{
  "contractName": "Drivers",
  "abi": [
    {
      "constant": false,
      "inputs": [],
      "name": "renounceOwnership",
      "outputs": [],
      "payable": false,
      "stateMutability": "nonpayable",
      "type": "function"
    },
    {
      "constant": true,
      "inputs": [],
      "name": "owner",
      "outputs": [
        {
          "name": "",
          "type": "address"
        }
      ],
      "payable": false,
      "stateMutability": "view",
      "type": "function"
    },
    {
      "constant": true,
      "inputs": [
        {
          "name": "",
          "type": "uint256"
        }
      ],
      "name": "uberdrivers",
      "outputs": [
        {
          "name": "driverAddress",
          "type": "address"
        },
        {
          "name": "rating",
          "type": "uint256"
        },
        {
          "name": "name",
          "type": "string"
        },
        {
          "name": "car",
          "type": "string"
        },
        {
          "name": "status",
          "type": "uint8"
        }
      ],
      "payable": false,
      "stateMutability": "view",
      "type": "function"
    },
    {
      "constant": false,
      "inputs": [
        {
          "name": "_newOwner",
          "type": "address"
        }
      ],
      "name": "transferOwnership",
      "outputs": [],
      "payable": false,
      "stateMutability": "nonpayable",
      "type": "function"
    },
    {
      "anonymous": false,
      "inputs": [
        {
          "indexed": true,
          "name": "uberAddress",
          "type": "address"
        },
        {
          "indexed": true,
          "name": "status",
          "type": "string"
        }
      ],
      "name": "DriverAccessRequested",
      "type": "event"
    },
    {
      "anonymous": false,
      "inputs": [
        {
          "indexed": false,
          "name": "uberAddress",
          "type": "address"
        },
        {
          "indexed": false,
          "name": "message",
          "type": "string"
        }
      ],
      "name": "DriverAccessReviewed",
      "type": "event"
    },
    {
      "anonymous": false,
      "inputs": [
        {
          "indexed": false,
          "name": "_driverId",
          "type": "uint256"
        },
        {
          "indexed": false,
          "name": "rating",
          "type": "uint256"
        }
      ],
      "name": "DriverRated",
      "type": "event"
    },
    {
      "anonymous": false,
      "inputs": [
        {
          "indexed": true,
          "name": "previousOwner",
          "type": "address"
        }
      ],
      "name": "OwnershipRenounced",
      "type": "event"
    },
    {
      "anonymous": false,
      "inputs": [
        {
          "indexed": true,
          "name": "previousOwner",
          "type": "address"
        },
        {
          "indexed": true,
          "name": "newOwner",
          "type": "address"
        }
      ],
      "name": "OwnershipTransferred",
      "type": "event"
    },
    {
      "constant": false,
      "inputs": [
        {
          "name": "_contract",
          "type": "address"
        }
      ],
      "name": "setUberContract",
      "outputs": [],
      "payable": false,
      "stateMutability": "nonpayable",
      "type": "function"
    },
    {
      "constant": true,
      "inputs": [
        {
          "name": "_driverId",
          "type": "uint256"
        }
      ],
      "name": "getDriver",
      "outputs": [
        {
          "name": "",
          "type": "uint256"
        },
        {
          "name": "",
          "type": "address"
        },
        {
          "name": "",
          "type": "string"
        },
        {
          "name": "",
          "type": "string"
        },
        {
          "name": "",
          "type": "uint256"
        }
      ],
      "payable": false,
      "stateMutability": "view",
      "type": "function"
    },
    {
      "constant": true,
      "inputs": [],
      "name": "getAllDrivers",
      "outputs": [
        {
          "name": "",
          "type": "uint256[]"
        }
      ],
      "payable": false,
      "stateMutability": "view",
      "type": "function"
    },
    {
      "constant": false,
      "inputs": [
        {
          "name": "_car",
          "type": "string"
        },
        {
          "name": "_name",
          "type": "string"
        }
      ],
      "name": "requestToBeDriver",
      "outputs": [
        {
          "name": "",
          "type": "string"
        }
      ],
      "payable": false,
      "stateMutability": "nonpayable",
      "type": "function"
    },
    {
      "constant": false,
      "inputs": [
        {
          "name": "_driverID",
          "type": "uint256"
        },
        {
          "name": "_driverAddress",
          "type": "address"
        },
        {
          "name": "_returnStatus",
          "type": "string"
        }
      ],
      "name": "reviewDriver",
      "outputs": [],
      "payable": false,
      "stateMutability": "nonpayable",
      "type": "function"
    },
    {
      "constant": false,
      "inputs": [
        {
          "name": "_driverId",
          "type": "uint256"
        },
        {
          "name": "rating",
          "type": "uint256"
        }
      ],
      "name": "rateDriver",
      "outputs": [],
      "payable": false,
      "stateMutability": "nonpayable",
      "type": "function"
    }
  ],
  "bytecode": "0x6080604052336000806101000a81548173ffffffffffffffffffffffffffffffffffffffff021916908373ffffffffffffffffffffffffffffffffffffffff160217905550611559806100536000396000f3006080604052600436106100a4576000357c0100000000000000000000000000000000000000000000000000000000900463ffffffff1680632290b191146100a95780632906b64b146101fc5780636cbac4a81461028f578063715018a6146102fb5780638da5cb5b14610312578063c603182314610369578063cadc9966146104ca578063d300103a146105f2578063d6dd259914610629578063f2fde38b1461066c575b600080fd5b3480156100b557600080fd5b506100d4600480360381019080803590602001909291905050506106af565b604051808681526020018573ffffffffffffffffffffffffffffffffffffffff1673ffffffffffffffffffffffffffffffffffffffff1681526020018060200180602001848152602001838103835286818151815260200191508051906020019080838360005b8381101561015657808201518184015260208101905061013b565b50505050905090810190601f1680156101835780820380516001836020036101000a031916815260200191505b50838103825285818151815260200191508051906020019080838360005b838110156101bc5780820151818401526020810190506101a1565b50505050905090810190601f1680156101e95780820380516001836020036101000a031916815260200191505b5097505050505050505060405180910390f35b34801561020857600080fd5b5061028d60048036038101908080359060200190929190803573ffffffffffffffffffffffffffffffffffffffff169060200190929190803590602001908201803590602001908080601f0160208091040260200160405190810160405280939291908181526020018383808284378201915050505050509192919290505050610856565b005b34801561029b57600080fd5b506102a4610cf5565b6040518080602001828103825283818151815260200191508051906020019060200280838360005b838110156102e75780820151818401526020810190506102cc565b505050509050019250505060405180910390f35b34801561030757600080fd5b50610310610d4c565b005b34801561031e57600080fd5b50610327610e4e565b604051808273ffffffffffffffffffffffffffffffffffffffff1673ffffffffffffffffffffffffffffffffffffffff16815260200191505060405180910390f35b34801561037557600080fd5b5061039460048036038101908080359060200190929190505050610e73565b604051808673ffffffffffffffffffffffffffffffffffffffff1673ffffffffffffffffffffffffffffffffffffffff16815260200185815260200180602001806020018460048111156103e457fe5b60ff168152602001838103835286818151815260200191508051906020019080838360005b83811015610424578082015181840152602081019050610409565b50505050905090810190601f1680156104515780820380516001836020036101000a031916815260200191505b50838103825285818151815260200191508051906020019080838360005b8381101561048a57808201518184015260208101905061046f565b50505050905090810190601f1680156104b75780820380516001836020036101000a031916815260200191505b5097505050505050505060405180910390f35b3480156104d657600080fd5b50610577600480360381019080803590602001908201803590602001908080601f0160208091040260200160405190810160405280939291908181526020018383808284378201915050505050509192919290803590602001908201803590602001908080601f0160208091040260200160405190810160405280939291908181526020018383808284378201915050505050509192919290505050611015565b6040518080602001828103825283818151815260200191508051906020019080838360005b838110156105b757808201518184015260208101905061059c565b50505050905090810190601f1680156105e45780820380516001836020036101000a031916815260200191505b509250505060405180910390f35b3480156105fe57600080fd5b506106276004803603810190808035906020019092919080359060200190929190505050611150565b005b34801561063557600080fd5b5061066a600480360381019080803573ffffffffffffffffffffffffffffffffffffffff169060200190929190505050611288565b005b34801561067857600080fd5b506106ad600480360381019080803573ffffffffffffffffffffffffffffffffffffffff169060200190929190505050611327565b005b6000806060806000806001878154811015156106c757fe5b90600052602060002090600502019050868160000160009054906101000a900473ffffffffffffffffffffffffffffffffffffffff1682600201836003018460010154828054600181600116156101000203166002900480601f01602080910402602001604051908101604052809291908181526020018280546001816001161561010002031660029004801561079f5780601f106107745761010080835404028352916020019161079f565b820191906000526020600020905b81548152906001019060200180831161078257829003601f168201915b50505050509250818054600181600116156101000203166002900480601f01602080910402602001604051908101604052809291908181526020018280546001816001161561010002031660029004801561083b5780601f106108105761010080835404028352916020019161083b565b820191906000526020600020905b81548152906001019060200180831161081e57829003601f168201915b50505050509150955095509550955095505091939590929450565b60606000809054906101000a900473ffffffffffffffffffffffffffffffffffffffff1673ffffffffffffffffffffffffffffffffffffffff163373ffffffffffffffffffffffffffffffffffffffff161415156108b357600080fd5b60405180807f417070726f7665640000000000000000000000000000000000000000000000008152506008019050604051809103902060001916826040518082805190602001908083835b60208310151561092357805182526020820191506020810190506020830392506108fe565b6001836020036101000a03801982511681845116808217855250505050505090500191505060405180910390206000191614156109ff576001808581548110151561096a57fe5b906000526020600020906005020160040160006101000a81548160ff0219169083600481111561099657fe5b0217905550606060405190810160405280602e81526020017f5375636365737366756c6c7920726567697374657265642c20796f752063616e81526020017f2073746172742064726976696e670000000000000000000000000000000000008152509050610cef565b60405180807f50656e64696e67000000000000000000000000000000000000000000000000008152506007019050604051809103902060001916826040518082805190602001908083835b602083101515610a6f5780518252602082019150602081019050602083039250610a4a565b6001836020036101000a0380198251168184511680821785525050505050509050019150506040518091039020600019161415610b25576004600185815481101515610ab757fe5b906000526020600020906005020160040160006101000a81548160ff02191690836004811115610ae357fe5b02179055506040805190810160405280601e81526020017f5765206e65656420736f6d65206d6f72652074696d652e205468616e6b7300008152509050610cee565b60405180807f52656a65637465640000000000000000000000000000000000000000000000008152506008019050604051809103902060001916826040518082805190602001908083835b602083101515610b955780518252602082019150602081019050602083039250610b70565b6001836020036101000a0380198251168184511680821785525050505050509050019150506040518091039020600019161415610c72576003600185815481101515610bdd57fe5b906000526020600020906005020160040160006101000a81548160ff02191690836004811115610c0957fe5b0217905550606060405190810160405280602481526020017f536f7272792c20796f7520646f6e2774206d656574206f757220636f6e64697481526020017f696f6e73000000000000000000000000000000000000000000000000000000008152509050610ced565b6002600185815481101515610c8357fe5b906000526020600020906005020160040160006101000a81548160ff02191690836004811115610caf57fe5b02179055506040805190810160405280601381526020017f5374696c6c206e6f74207265676973747265640000000000000000000000000081525090505b5b5b50505050565b60608060008060009150600090505b600180549050811015610d4357808383815181101515610d2057fe5b906020019060200201818152505081806001019250508080600101915050610d04565b82935050505090565b6000809054906101000a900473ffffffffffffffffffffffffffffffffffffffff1673ffffffffffffffffffffffffffffffffffffffff163373ffffffffffffffffffffffffffffffffffffffff16141515610da757600080fd5b6000809054906101000a900473ffffffffffffffffffffffffffffffffffffffff1673ffffffffffffffffffffffffffffffffffffffff167ff8df31144d9c2f0f6b59d69b8b98abd5459d07f2742c4df920b25aae33c6482060405160405180910390a260008060006101000a81548173ffffffffffffffffffffffffffffffffffffffff021916908373ffffffffffffffffffffffffffffffffffffffff160217905550565b6000809054906101000a900473ffffffffffffffffffffffffffffffffffffffff1681565b600181815481101515610e8257fe5b90600052602060002090600502016000915090508060000160009054906101000a900473ffffffffffffffffffffffffffffffffffffffff1690806001015490806002018054600181600116156101000203166002900480601f016020809104026020016040519081016040528092919081815260200182805460018160011615610100020316600290048015610f5a5780601f10610f2f57610100808354040283529160200191610f5a565b820191906000526020600020905b815481529060010190602001808311610f3d57829003601f168201915b505050505090806003018054600181600116156101000203166002900480601f016020809104026020016040519081016040528092919081815260200182805460018160011615610100020316600290048015610ff85780601f10610fcd57610100808354040283529160200191610ff8565b820191906000526020600020905b815481529060010190602001808311610fdb57829003601f168201915b5050505050908060040160009054906101000a900460ff16905085565b606060026000815480929190600101919050555060a0604051908101604052803373ffffffffffffffffffffffffffffffffffffffff168152602001600081526020018381526020018481526020016000600481111561107157fe5b815250600160025481548110151561108557fe5b906000526020600020906005020160008201518160000160006101000a81548173ffffffffffffffffffffffffffffffffffffffff021916908373ffffffffffffffffffffffffffffffffffffffff160217905550602082015181600101556040820151816002019080519060200190611100929190611488565b50606082015181600301908051906020019061111d929190611488565b5060808201518160040160006101000a81548160ff0219169083600481111561114257fe5b021790555090505092915050565b33600360009054906101000a900473ffffffffffffffffffffffffffffffffffffffff1673ffffffffffffffffffffffffffffffffffffffff163373ffffffffffffffffffffffffffffffffffffffff1614151561123c576040517f08c379a000000000000000000000000000000000000000000000000000000000815260040180806020018281038252602d8152602001807f4f6e6c7920746865207562657220636f6e74726163742063616e2063616c6c2081526020017f746869732066756e6369746f6e0000000000000000000000000000000000000081525060400191505060405180910390fd5b8160018481548110151561124c57fe5b9060005260206000209060050201600101540160018481548110151561126e57fe5b906000526020600020906005020160010181905550505050565b6000809054906101000a900473ffffffffffffffffffffffffffffffffffffffff1673ffffffffffffffffffffffffffffffffffffffff163373ffffffffffffffffffffffffffffffffffffffff161415156112e357600080fd5b80600360006101000a81548173ffffffffffffffffffffffffffffffffffffffff021916908373ffffffffffffffffffffffffffffffffffffffff16021790555050565b6000809054906101000a900473ffffffffffffffffffffffffffffffffffffffff1673ffffffffffffffffffffffffffffffffffffffff163373ffffffffffffffffffffffffffffffffffffffff1614151561138257600080fd5b61138b8161138e565b50565b600073ffffffffffffffffffffffffffffffffffffffff168173ffffffffffffffffffffffffffffffffffffffff16141515156113ca57600080fd5b8073ffffffffffffffffffffffffffffffffffffffff166000809054906101000a900473ffffffffffffffffffffffffffffffffffffffff1673ffffffffffffffffffffffffffffffffffffffff167f8be0079c531659141344cd1fd0a4f28419497f9722a3daafe3b4186f6b6457e060405160405180910390a3806000806101000a81548173ffffffffffffffffffffffffffffffffffffffff021916908373ffffffffffffffffffffffffffffffffffffffff16021790555050565b828054600181600116156101000203166002900490600052602060002090601f016020900481019282601f106114c957805160ff19168380011785556114f7565b828001600101855582156114f7579182015b828111156114f65782518255916020019190600101906114db565b5b5090506115049190611508565b5090565b61152a91905b8082111561152657600081600090555060010161150e565b5090565b905600a165627a7a7230582002aaf2a49d1e962336c81ff0a9eef8ab4562b4afd80ab9938a161981c532bdf50029",
  "source": "pragma solidity ^0.4.24;\r\n\r\nimport \"node_modules/openzeppelin-solidity/contracts/math/SafeMath.sol\";\r\nimport \"node_modules/openzeppelin-solidity/contracts/token/ERC20/ERC20.sol\";\r\nimport \"node_modules/openzeppelin-solidity/contracts/token/ERC20/BasicToken.sol\";\r\nimport \"contracts/Ownable.sol\";\r\n\r\ncontract Drivers is Ownable{\r\n\r\n    enum DriverStatus{Requested, Registered, NotRegistered, Failed, Pending}\r\n\r\n    struct uberDriver{\r\n        address driverAddress;\r\n        uint rating;\r\n        string name;\r\n        string car;\r\n        DriverStatus status;\r\n    }\r\n    \r\n    uberDriver[] public uberdrivers;\r\n   // mapping (uint => uberDriver) public uberdrivers;    \r\n    uint numberOfDrivers; \r\n    event DriverAccessRequested(address indexed uberAddress, string indexed status);\r\n    event DriverAccessReviewed(address uberAddress, string message);\r\n    event DriverRated(uint _driverId, uint rating);\r\n\r\n    address private uberContract;\r\n\r\n    modifier isUberContract(address _contractAddress){\r\n        require(msg.sender == uberContract, \"Only the uber contract can call this funciton\");\r\n        _;\r\n    }\r\n\r\n    function setUberContract(address _contract) onlyOwner public{\r\n        uberContract = _contract;\r\n    }\r\n    \r\n    function getDriver(uint _driverId) public view returns(uint, address, string, string, uint){\r\n        uberDriver storage uberdriver = uberdrivers[_driverId];\r\n        return(_driverId, uberdriver.driverAddress, uberdriver.name, uberdriver.car, uberdriver.rating);\r\n    }\r\n    \r\n    function getAllDrivers() external view returns(uint[]){\r\n        uint[] memory result;\r\n        uint counter = 0;\r\n\r\n        for (uint i = 0; i < uberdrivers.length; i++) {\r\n            result[counter] = i;\r\n            counter++;\r\n        }\r\n        return result;\r\n    }\r\n    \r\n    function requestToBeDriver(string _car, string _name) public returns(string){\r\n        numberOfDrivers++;\r\n        uberdrivers[numberOfDrivers] = uberDriver(msg.sender,0, _name, _car, DriverStatus.Requested);     \r\n           \r\n       // emit DriverAccessRequested(msg.sender, \"Requested\");\r\n    }\r\n\r\n    function reviewDriver(uint _driverID, address _driverAddress, string _returnStatus) onlyOwner public{\r\n        \r\n        string memory message;\r\n        if(keccak256(_returnStatus) == keccak256(\"Approved\"))\r\n        {\r\n            uberdrivers[_driverID].status = DriverStatus.Registered;\r\n            message = \"Successfully registered, you can start driving\";\r\n        }else if(keccak256(_returnStatus) == keccak256(\"Pending\")){\r\n            uberdrivers[_driverID].status = DriverStatus.Pending;\r\n            message = \"We need some more time. Thanks\";\r\n        }else if(keccak256(_returnStatus) == keccak256(\"Rejected\")){\r\n            uberdrivers[_driverID].status = DriverStatus.Failed;\r\n            message = \"Sorry, you don't meet our conditions\";\r\n        }else{\r\n            uberdrivers[_driverID].status = DriverStatus.NotRegistered;\r\n            message = \"Still not registred\";\r\n        }\r\n     //   emit DriverAccessReviewed(_driverAddress, message);\r\n    }\r\n\r\n    function rateDriver(uint _driverId, uint rating) public isUberContract(msg.sender){        \r\n        uberdrivers[_driverId].rating = uberdrivers[_driverId].rating + rating;\r\n  //      emit DriverRated(_driverId, uberdrivers[_driverId].rating);\r\n    }\r\n}",
  "sourcePath": "C:\\Users\\Graham.Nelson\\Documents\\Blockchain\\Development\\SmartContractDev\\TCR_Uber\\contracts\\Drivers.sol",
  "compiler": {
    "name": "solc",
    "version": "0.4.24+commit.e67f0147.Emscripten.clang"
  },
  "schemaVersion": "2.0.0",
  "updatedAt": "2018-06-27T11:11:05.050Z"
}