{
  "contractName": "Drivers",
  "abi": [
    {
      "constant": true,
      "inputs": [
        {
          "name": "",
          "type": "uint256"
        }
      ],
      "name": "driversList",
      "outputs": [
        {
          "name": "",
          "type": "address"
        }
      ],
      "payable": false,
      "stateMutability": "view",
      "type": "function"
    },
    {
      "constant": true,
      "inputs": [
        {
          "name": "",
          "type": "address"
        }
      ],
      "name": "uberdrivers",
      "outputs": [
        {
          "name": "rating",
          "type": "uint256"
        },
        {
          "name": "name",
          "type": "string"
        },
        {
          "name": "car",
          "type": "string"
        },
        {
          "name": "status",
          "type": "uint8"
        },
        {
          "name": "index",
          "type": "uint256"
        },
        {
          "name": "numberOfRides",
          "type": "uint256"
        }
      ],
      "payable": false,
      "stateMutability": "view",
      "type": "function"
    },
    {
      "constant": false,
      "inputs": [],
      "name": "renounceOwnership",
      "outputs": [],
      "payable": false,
      "stateMutability": "nonpayable",
      "type": "function"
    },
    {
      "constant": true,
      "inputs": [],
      "name": "owner",
      "outputs": [
        {
          "name": "",
          "type": "address"
        }
      ],
      "payable": false,
      "stateMutability": "view",
      "type": "function"
    },
    {
      "constant": true,
      "inputs": [
        {
          "name": "",
          "type": "uint256"
        }
      ],
      "name": "registeredDriverList",
      "outputs": [
        {
          "name": "",
          "type": "address"
        }
      ],
      "payable": false,
      "stateMutability": "view",
      "type": "function"
    },
    {
      "constant": false,
      "inputs": [
        {
          "name": "_newOwner",
          "type": "address"
        }
      ],
      "name": "transferOwnership",
      "outputs": [],
      "payable": false,
      "stateMutability": "nonpayable",
      "type": "function"
    },
    {
      "anonymous": false,
      "inputs": [
        {
          "indexed": false,
          "name": "driver",
          "type": "address"
        },
        {
          "indexed": false,
          "name": "rating",
          "type": "uint256"
        },
        {
          "indexed": false,
          "name": "name",
          "type": "string"
        },
        {
          "indexed": false,
          "name": "car",
          "type": "string"
        },
        {
          "indexed": false,
          "name": "status",
          "type": "uint256"
        }
      ],
      "name": "driverEvents",
      "type": "event"
    },
    {
      "anonymous": false,
      "inputs": [
        {
          "indexed": true,
          "name": "previousOwner",
          "type": "address"
        }
      ],
      "name": "OwnershipRenounced",
      "type": "event"
    },
    {
      "anonymous": false,
      "inputs": [
        {
          "indexed": true,
          "name": "previousOwner",
          "type": "address"
        },
        {
          "indexed": true,
          "name": "newOwner",
          "type": "address"
        }
      ],
      "name": "OwnershipTransferred",
      "type": "event"
    },
    {
      "constant": true,
      "inputs": [
        {
          "name": "_driver",
          "type": "address"
        }
      ],
      "name": "isUser",
      "outputs": [
        {
          "name": "isIndeed",
          "type": "bool"
        }
      ],
      "payable": false,
      "stateMutability": "view",
      "type": "function"
    },
    {
      "constant": false,
      "inputs": [
        {
          "name": "_driver",
          "type": "address"
        },
        {
          "name": "_rating",
          "type": "uint256"
        }
      ],
      "name": "rateDriver",
      "outputs": [],
      "payable": false,
      "stateMutability": "nonpayable",
      "type": "function"
    },
    {
      "constant": false,
      "inputs": [
        {
          "name": "_contract",
          "type": "address"
        }
      ],
      "name": "setUberContract",
      "outputs": [],
      "payable": false,
      "stateMutability": "nonpayable",
      "type": "function"
    },
    {
      "constant": false,
      "inputs": [
        {
          "name": "_name",
          "type": "string"
        },
        {
          "name": "_car",
          "type": "string"
        }
      ],
      "name": "requestToBeDriver",
      "outputs": [],
      "payable": false,
      "stateMutability": "nonpayable",
      "type": "function"
    },
    {
      "constant": false,
      "inputs": [
        {
          "name": "_driver",
          "type": "address"
        },
        {
          "name": "_car",
          "type": "string"
        },
        {
          "name": "_name",
          "type": "string"
        }
      ],
      "name": "addDriver",
      "outputs": [
        {
          "name": "",
          "type": "bool"
        }
      ],
      "payable": false,
      "stateMutability": "nonpayable",
      "type": "function"
    },
    {
      "constant": false,
      "inputs": [
        {
          "name": "_driver",
          "type": "address"
        }
      ],
      "name": "removeDriver",
      "outputs": [],
      "payable": false,
      "stateMutability": "nonpayable",
      "type": "function"
    },
    {
      "constant": true,
      "inputs": [],
      "name": "getDriverCount",
      "outputs": [
        {
          "name": "",
          "type": "uint256"
        }
      ],
      "payable": false,
      "stateMutability": "view",
      "type": "function"
    },
    {
      "constant": true,
      "inputs": [
        {
          "name": "_index",
          "type": "uint256"
        }
      ],
      "name": "getDriverAtIndex",
      "outputs": [
        {
          "name": "",
          "type": "address"
        }
      ],
      "payable": false,
      "stateMutability": "view",
      "type": "function"
    },
    {
      "constant": true,
      "inputs": [],
      "name": "getAllDriver",
      "outputs": [
        {
          "name": "",
          "type": "address[]"
        }
      ],
      "payable": false,
      "stateMutability": "view",
      "type": "function"
    },
    {
      "constant": true,
      "inputs": [
        {
          "name": "_driver",
          "type": "address"
        }
      ],
      "name": "getDriverDetails",
      "outputs": [
        {
          "name": "",
          "type": "address"
        },
        {
          "name": "",
          "type": "string"
        },
        {
          "name": "",
          "type": "string"
        },
        {
          "name": "",
          "type": "uint256"
        },
        {
          "name": "",
          "type": "uint256"
        },
        {
          "name": "",
          "type": "uint256"
        }
      ],
      "payable": false,
      "stateMutability": "view",
      "type": "function"
    },
    {
      "constant": false,
      "inputs": [
        {
          "name": "_driverAddress",
          "type": "address"
        },
        {
          "name": "_returnStatus",
          "type": "string"
        }
      ],
      "name": "reviewDriver",
      "outputs": [],
      "payable": false,
      "stateMutability": "nonpayable",
      "type": "function"
    }
  ],
  "bytecode": "0x608060405273345ca3e014aaf5dca488057592ee47305d9b3e10600560006101000a81548173ffffffffffffffffffffffffffffffffffffffff021916908373ffffffffffffffffffffffffffffffffffffffff160217905550336000806101000a81548173ffffffffffffffffffffffffffffffffffffffff021916908373ffffffffffffffffffffffffffffffffffffffff1602179055506127c4806100a86000396000f3006080604052600436106100f1576000357c0100000000000000000000000000000000000000000000000000000000900463ffffffff1680630da0474d146100f65780632be17d26146101635780634036444a1461018e5780634209fff114610217578063542d345014610272578063580256f2146102df578063715018a6146104315780638da5cb5b146104485780639db11c401461049f578063c26bacd1146104ec578063cadc99661461052f578063cceb6c39146105de578063d6dd25991461064b578063eef10c4d1461068e578063f2fde38b146106fa578063f769e2b51461073d578063f9550dcd146108ad575b600080fd5b34801561010257600080fd5b5061012160048036038101908080359060200190929190505050610994565b604051808273ffffffffffffffffffffffffffffffffffffffff1673ffffffffffffffffffffffffffffffffffffffff16815260200191505060405180910390f35b34801561016f57600080fd5b506101786109d2565b6040518082815260200191505060405180910390f35b34801561019a57600080fd5b50610215600480360381019080803573ffffffffffffffffffffffffffffffffffffffff169060200190929190803590602001908201803590602001908080601f01602080910402602001604051908101604052809392919081815260200183838082843782019150505050505091929192905050506109df565b005b34801561022357600080fd5b50610258600480360381019080803573ffffffffffffffffffffffffffffffffffffffff16906020019092919050505061105c565b604051808215151515815260200191505060405180910390f35b34801561027e57600080fd5b5061029d60048036038101908080359060200190929190505050611126565b604051808273ffffffffffffffffffffffffffffffffffffffff1673ffffffffffffffffffffffffffffffffffffffff16815260200191505060405180910390f35b3480156102eb57600080fd5b50610320600480360381019080803573ffffffffffffffffffffffffffffffffffffffff169060200190929190505050611169565b60405180878152602001806020018060200186600481111561033e57fe5b60ff168152602001858152602001848152602001838103835288818151815260200191508051906020019080838360005b8381101561038a57808201518184015260208101905061036f565b50505050905090810190601f1680156103b75780820380516001836020036101000a031916815260200191505b50838103825287818151815260200191508051906020019080838360005b838110156103f05780820151818401526020810190506103d5565b50505050905090810190601f16801561041d5780820380516001836020036101000a031916815260200191505b509850505050505050505060405180910390f35b34801561043d57600080fd5b506104466112e2565b005b34801561045457600080fd5b5061045d6113e4565b604051808273ffffffffffffffffffffffffffffffffffffffff1673ffffffffffffffffffffffffffffffffffffffff16815260200191505060405180910390f35b3480156104ab57600080fd5b506104ea600480360381019080803573ffffffffffffffffffffffffffffffffffffffff16906020019092919080359060200190929190505050611409565b005b3480156104f857600080fd5b5061052d600480360381019080803573ffffffffffffffffffffffffffffffffffffffff1690602001909291905050506118b4565b005b34801561053b57600080fd5b506105dc600480360381019080803590602001908201803590602001908080601f0160208091040260200160405190810160405280939291908181526020018383808284378201915050505050509192919290803590602001908201803590602001908080601f0160208091040260200160405190810160405280939291908181526020018383808284378201915050505050509192919290505050611ad0565b005b3480156105ea57600080fd5b5061060960048036038101908080359060200190929190505050611e0f565b604051808273ffffffffffffffffffffffffffffffffffffffff1673ffffffffffffffffffffffffffffffffffffffff16815260200191505060405180910390f35b34801561065757600080fd5b5061068c600480360381019080803573ffffffffffffffffffffffffffffffffffffffff169060200190929190505050611e4d565b005b34801561069a57600080fd5b506106a3611eec565b6040518080602001828103825283818151815260200191508051906020019060200280838360005b838110156106e65780820151818401526020810190506106cb565b505050509050019250505060405180910390f35b34801561070657600080fd5b5061073b600480360381019080803573ffffffffffffffffffffffffffffffffffffffff169060200190929190505050611f7a565b005b34801561074957600080fd5b5061077e600480360381019080803573ffffffffffffffffffffffffffffffffffffffff169060200190929190505050611fe1565b604051808773ffffffffffffffffffffffffffffffffffffffff1673ffffffffffffffffffffffffffffffffffffffff1681526020018060200180602001868152602001858152602001848152602001838103835288818151815260200191508051906020019080838360005b838110156108065780820151818401526020810190506107eb565b50505050905090810190601f1680156108335780820380516001836020036101000a031916815260200191505b50838103825287818151815260200191508051906020019080838360005b8381101561086c578082015181840152602081019050610851565b50505050905090810190601f1680156108995780820380516001836020036101000a031916815260200191505b509850505050505050505060405180910390f35b3480156108b957600080fd5b5061097a600480360381019080803573ffffffffffffffffffffffffffffffffffffffff169060200190929190803590602001908201803590602001908080601f0160208091040260200160405190810160405280939291908181526020018383808284378201915050505050509192919290803590602001908201803590602001908080601f01602080910402602001604051908101604052809392919081815260200183838082843782019150505050505091929192905050506122b4565b604051808215151515815260200191505060405180910390f35b6001818154811015156109a357fe5b906000526020600020016000915054906101000a900473ffffffffffffffffffffffffffffffffffffffff1681565b6000600180549050905090565b60606000809054906101000a900473ffffffffffffffffffffffffffffffffffffffff1673ffffffffffffffffffffffffffffffffffffffff163373ffffffffffffffffffffffffffffffffffffffff16141515610a3c57600080fd5b60405180807f417070726f7665640000000000000000000000000000000000000000000000008152506008019050604051809103902060001916826040518082805190602001908083835b602083101515610aac5780518252602082019150602081019050602083039250610a87565b6001836020036101000a0380198251168184511680821785525050505050509050019150506040518091039020600019161415610c11576001600360008573ffffffffffffffffffffffffffffffffffffffff1673ffffffffffffffffffffffffffffffffffffffff16815260200190815260200160002060030160006101000a81548160ff02191690836004811115610b4257fe5b021790555060028390806001815401808255809150509060018203906000526020600020016000909192909190916101000a81548173ffffffffffffffffffffffffffffffffffffffff021916908373ffffffffffffffffffffffffffffffffffffffff16021790555050606060405190810160405280602e81526020017f5375636365737366756c6c7920726567697374657265642c20796f752063616e81526020017f2073746172742064726976696e670000000000000000000000000000000000008152509050610f66565b60405180807f50656e64696e67000000000000000000000000000000000000000000000000008152506007019050604051809103902060001916826040518082805190602001908083835b602083101515610c815780518252602082019150602081019050602083039250610c5c565b6001836020036101000a0380198251168184511680821785525050505050509050019150506040518091039020600019161415610d59576004600360008573ffffffffffffffffffffffffffffffffffffffff1673ffffffffffffffffffffffffffffffffffffffff16815260200190815260200160002060030160006101000a81548160ff02191690836004811115610d1757fe5b02179055506040805190810160405280601e81526020017f5765206e65656420736f6d65206d6f72652074696d652e205468616e6b7300008152509050610f65565b60405180807f52656a65637465640000000000000000000000000000000000000000000000008152506008019050604051809103902060001916826040518082805190602001908083835b602083101515610dc95780518252602082019150602081019050602083039250610da4565b6001836020036101000a0380198251168184511680821785525050505050509050019150506040518091039020600019161415610ec75760038060008573ffffffffffffffffffffffffffffffffffffffff1673ffffffffffffffffffffffffffffffffffffffff16815260200190815260200160002060030160006101000a81548160ff02191690836004811115610e5e57fe5b0217905550606060405190810160405280602481526020017f536f7272792c20796f7520646f6e2774206d656574206f757220636f6e64697481526020017f696f6e73000000000000000000000000000000000000000000000000000000008152509050610f64565b6002600360008573ffffffffffffffffffffffffffffffffffffffff1673ffffffffffffffffffffffffffffffffffffffff16815260200190815260200160002060030160006101000a81548160ff02191690836004811115610f2657fe5b02179055506040805190810160405280601381526020017f5374696c6c206e6f74207265676973747265640000000000000000000000000081525090505b5b5b7f2f1388ef7455dc2c8c8e21824332261695e84fc6e0202b74cca1d70d65b16003836000806004811115610f9657fe5b604051808473ffffffffffffffffffffffffffffffffffffffff1673ffffffffffffffffffffffffffffffffffffffff1681526020018381526020018060200180602001848152602001838103835260048152602001807f5445535400000000000000000000000000000000000000000000000000000000815250602001838103825260048152602001807f54455354000000000000000000000000000000000000000000000000000000008152506020019550505050505060405180910390a1505050565b60008060018054905014156110745760009050611121565b8173ffffffffffffffffffffffffffffffffffffffff166001600360008573ffffffffffffffffffffffffffffffffffffffff1673ffffffffffffffffffffffffffffffffffffffff168152602001908152602001600020600401548154811015156110dc57fe5b9060005260206000200160009054906101000a900473ffffffffffffffffffffffffffffffffffffffff1673ffffffffffffffffffffffffffffffffffffffff161490505b919050565b600060018281548110151561113757fe5b9060005260206000200160009054906101000a900473ffffffffffffffffffffffffffffffffffffffff169050919050565b6003602052806000526040600020600091509050806000015490806001018054600181600116156101000203166002900480601f01602080910402602001604051908101604052809291908181526020018280546001816001161561010002031660029004801561121b5780601f106111f05761010080835404028352916020019161121b565b820191906000526020600020905b8154815290600101906020018083116111fe57829003601f168201915b505050505090806002018054600181600116156101000203166002900480601f0160208091040260200160405190810160405280929190818152602001828054600181600116156101000203166002900480156112b95780601f1061128e576101008083540402835291602001916112b9565b820191906000526020600020905b81548152906001019060200180831161129c57829003601f168201915b5050505050908060030160009054906101000a900460ff16908060040154908060050154905086565b6000809054906101000a900473ffffffffffffffffffffffffffffffffffffffff1673ffffffffffffffffffffffffffffffffffffffff163373ffffffffffffffffffffffffffffffffffffffff1614151561133d57600080fd5b6000809054906101000a900473ffffffffffffffffffffffffffffffffffffffff1673ffffffffffffffffffffffffffffffffffffffff167ff8df31144d9c2f0f6b59d69b8b98abd5459d07f2742c4df920b25aae33c6482060405160405180910390a260008060006101000a81548173ffffffffffffffffffffffffffffffffffffffff021916908373ffffffffffffffffffffffffffffffffffffffff160217905550565b6000809054906101000a900473ffffffffffffffffffffffffffffffffffffffff1681565b600080600080600033600560009054906101000a900473ffffffffffffffffffffffffffffffffffffffff1673ffffffffffffffffffffffffffffffffffffffff163373ffffffffffffffffffffffffffffffffffffffff161415156114fd576040517f08c379a000000000000000000000000000000000000000000000000000000000815260040180806020018281038252602d8152602001807f4f6e6c7920746865207562657220636f6e74726163742063616e2063616c6c2081526020017f746869732066756e6369746f6e0000000000000000000000000000000000000081525060400191505060405180910390fd5b600360008973ffffffffffffffffffffffffffffffffffffffff1673ffffffffffffffffffffffffffffffffffffffff16815260200190815260200160002060050160008154809291906001019190505550600360008973ffffffffffffffffffffffffffffffffffffffff1673ffffffffffffffffffffffffffffffffffffffff168152602001908152602001600020600001549550600360008973ffffffffffffffffffffffffffffffffffffffff1673ffffffffffffffffffffffffffffffffffffffff1681526020019081526020016000206005015494506115e66001860387612563565b93506115f2848861259b565b92506115fe83866125b7565b915081600360008a73ffffffffffffffffffffffffffffffffffffffff1673ffffffffffffffffffffffffffffffffffffffff168152602001908152602001600020600001819055507f2f1388ef7455dc2c8c8e21824332261695e84fc6e0202b74cca1d70d65b160038883600360008c73ffffffffffffffffffffffffffffffffffffffff1673ffffffffffffffffffffffffffffffffffffffff168152602001908152602001600020600101600360008d73ffffffffffffffffffffffffffffffffffffffff1673ffffffffffffffffffffffffffffffffffffffff168152602001908152602001600020600201600360008e73ffffffffffffffffffffffffffffffffffffffff1673ffffffffffffffffffffffffffffffffffffffff16815260200190815260200160002060030160009054906101000a900460ff16600481111561174957fe5b604051808673ffffffffffffffffffffffffffffffffffffffff1673ffffffffffffffffffffffffffffffffffffffff16815260200185815260200180602001806020018481526020018381038352868181546001816001161561010002031660029004815260200191508054600181600116156101000203166002900480156118145780601f106117e957610100808354040283529160200191611814565b820191906000526020600020905b8154815290600101906020018083116117f757829003601f168201915b50508381038252858181546001816001161561010002031660029004815260200191508054600181600116156101000203166002900480156118975780601f1061186c57610100808354040283529160200191611897565b820191906000526020600020905b81548152906001019060200180831161187a57829003601f168201915b505097505050505050505060405180910390a15050505050505050565b6000806000809054906101000a900473ffffffffffffffffffffffffffffffffffffffff1673ffffffffffffffffffffffffffffffffffffffff163373ffffffffffffffffffffffffffffffffffffffff1614151561191257600080fd5b61191b8361105c565b151561198f576040517f08c379a00000000000000000000000000000000000000000000000000000000081526004018080602001828103825260178152602001807f64726976657220646f6573206e6f74206578697369747300000000000000000081525060200191505060405180910390fd5b600360008473ffffffffffffffffffffffffffffffffffffffff1673ffffffffffffffffffffffffffffffffffffffff1681526020019081526020016000206004015491506001808080549050038154811015156119e957fe5b9060005260206000200160009054906101000a900473ffffffffffffffffffffffffffffffffffffffff16905080600183815481101515611a2657fe5b9060005260206000200160006101000a81548173ffffffffffffffffffffffffffffffffffffffff021916908373ffffffffffffffffffffffffffffffffffffffff16021790555081600360008373ffffffffffffffffffffffffffffffffffffffff1673ffffffffffffffffffffffffffffffffffffffff168152602001908152602001600020600401819055506001805480919060019003611aca91906126c7565b50505050565b611ad93361105c565b15611b4c576040517f08c379a00000000000000000000000000000000000000000000000000000000081526004018080602001828103825260178152602001807f44726976657220416c726561647920457869736973747300000000000000000081525060200191505060405180910390fd5b60c0604051908101604052806000815260200183815260200182815260200160006004811115611b7857fe5b81526020016001803390806001815401808255809150509060018203906000526020600020016000909192909190916101000a81548173ffffffffffffffffffffffffffffffffffffffff021916908373ffffffffffffffffffffffffffffffffffffffff1602179055500381526020016000815250600360003373ffffffffffffffffffffffffffffffffffffffff1673ffffffffffffffffffffffffffffffffffffffff168152602001908152602001600020600082015181600001556020820151816001019080519060200190611c539291906126f3565b506040820151816002019080519060200190611c709291906126f3565b5060608201518160030160006101000a81548160ff02191690836004811115611c9557fe5b02179055506080820151816004015560a082015181600501559050507f2f1388ef7455dc2c8c8e21824332261695e84fc6e0202b74cca1d70d65b16003336000848460016004811115611ce457fe5b604051808673ffffffffffffffffffffffffffffffffffffffff1673ffffffffffffffffffffffffffffffffffffffff1681526020018581526020018060200180602001848152602001838103835286818151815260200191508051906020019080838360005b83811015611d66578082015181840152602081019050611d4b565b50505050905090810190601f168015611d935780820380516001836020036101000a031916815260200191505b50838103825285818151815260200191508051906020019080838360005b83811015611dcc578082015181840152602081019050611db1565b50505050905090810190601f168015611df95780820380516001836020036101000a031916815260200191505b5097505050505050505060405180910390a15050565b600281815481101515611e1e57fe5b906000526020600020016000915054906101000a900473ffffffffffffffffffffffffffffffffffffffff1681565b6000809054906101000a900473ffffffffffffffffffffffffffffffffffffffff1673ffffffffffffffffffffffffffffffffffffffff163373ffffffffffffffffffffffffffffffffffffffff16141515611ea857600080fd5b80600560006101000a81548173ffffffffffffffffffffffffffffffffffffffff021916908373ffffffffffffffffffffffffffffffffffffffff16021790555050565b60606001805480602002602001604051908101604052809291908181526020018280548015611f7057602002820191906000526020600020905b8160009054906101000a900473ffffffffffffffffffffffffffffffffffffffff1673ffffffffffffffffffffffffffffffffffffffff1681526020019060010190808311611f26575b5050505050905090565b6000809054906101000a900473ffffffffffffffffffffffffffffffffffffffff1673ffffffffffffffffffffffffffffffffffffffff163373ffffffffffffffffffffffffffffffffffffffff16141515611fd557600080fd5b611fde816125cd565b50565b600060608060008060006060806000806000600360008d73ffffffffffffffffffffffffffffffffffffffff1673ffffffffffffffffffffffffffffffffffffffff1681526020019081526020016000206001018054600181600116156101000203166002900480601f0160208091040260200160405190810160405280929190818152602001828054600181600116156101000203166002900480156120c95780601f1061209e576101008083540402835291602001916120c9565b820191906000526020600020905b8154815290600101906020018083116120ac57829003601f168201915b50505050509450600360008d73ffffffffffffffffffffffffffffffffffffffff1673ffffffffffffffffffffffffffffffffffffffff1681526020019081526020016000206002018054600181600116156101000203166002900480601f0160208091040260200160405190810160405280929190818152602001828054600181600116156101000203166002900480156121a65780601f1061217b576101008083540402835291602001916121a6565b820191906000526020600020905b81548152906001019060200180831161218957829003601f168201915b50505050509350600360008d73ffffffffffffffffffffffffffffffffffffffff1673ffffffffffffffffffffffffffffffffffffffff168152602001908152602001600020600001549250600360008d73ffffffffffffffffffffffffffffffffffffffff1673ffffffffffffffffffffffffffffffffffffffff16815260200190815260200160002060030160009054906101000a900460ff16600481111561224d57fe5b9150600360008d73ffffffffffffffffffffffffffffffffffffffff1673ffffffffffffffffffffffffffffffffffffffff1681526020019081526020016000206004015490508b85858585859a509a509a509a509a509a50505050505091939550919395565b60008060009054906101000a900473ffffffffffffffffffffffffffffffffffffffff1673ffffffffffffffffffffffffffffffffffffffff163373ffffffffffffffffffffffffffffffffffffffff1614151561231157600080fd5b61231a8461105c565b1561238d576040517f08c379a00000000000000000000000000000000000000000000000000000000081526004018080602001828103825260178152602001807f44726976657220416c726561647920457869736973747300000000000000000081525060200191505060405180910390fd5b60c06040519081016040528060008152602001838152602001848152602001600160048111156123b957fe5b81526020016001808790806001815401808255809150509060018203906000526020600020016000909192909190916101000a81548173ffffffffffffffffffffffffffffffffffffffff021916908373ffffffffffffffffffffffffffffffffffffffff1602179055500381526020016000815250600360008673ffffffffffffffffffffffffffffffffffffffff1673ffffffffffffffffffffffffffffffffffffffff1681526020019081526020016000206000820151816000015560208201518160010190805190602001906124949291906126f3565b5060408201518160020190805190602001906124b19291906126f3565b5060608201518160030160006101000a81548160ff021916908360048111156124d657fe5b02179055506080820151816004015560a0820151816005015590505060028490806001815401808255809150509060018203906000526020600020016000909192909190916101000a81548173ffffffffffffffffffffffffffffffffffffffff021916908373ffffffffffffffffffffffffffffffffffffffff16021790555050600190509392505050565b6000808314156125765760009050612595565b818302905081838281151561258757fe5b0414151561259157fe5b8090505b92915050565b600081830190508281101515156125ae57fe5b80905092915050565b600081838115156125c457fe5b04905092915050565b600073ffffffffffffffffffffffffffffffffffffffff168173ffffffffffffffffffffffffffffffffffffffff161415151561260957600080fd5b8073ffffffffffffffffffffffffffffffffffffffff166000809054906101000a900473ffffffffffffffffffffffffffffffffffffffff1673ffffffffffffffffffffffffffffffffffffffff167f8be0079c531659141344cd1fd0a4f28419497f9722a3daafe3b4186f6b6457e060405160405180910390a3806000806101000a81548173ffffffffffffffffffffffffffffffffffffffff021916908373ffffffffffffffffffffffffffffffffffffffff16021790555050565b8154818355818111156126ee578183600052602060002091820191016126ed9190612773565b5b505050565b828054600181600116156101000203166002900490600052602060002090601f016020900481019282601f1061273457805160ff1916838001178555612762565b82800160010185558215612762579182015b82811115612761578251825591602001919060010190612746565b5b50905061276f9190612773565b5090565b61279591905b80821115612791576000816000905550600101612779565b5090565b905600a165627a7a7230582056f23e374c43bc430a16e29e1e899989ac62574714985db56adb65f952c08f6e0029",
  "source": "pragma solidity ^0.4.24;\r\n\r\nimport \"node_modules/openzeppelin-solidity/contracts/math/SafeMath.sol\";\r\nimport \"node_modules/openzeppelin-solidity/contracts/token/ERC20/ERC20.sol\";\r\nimport \"node_modules/openzeppelin-solidity/contracts/token/ERC20/BasicToken.sol\";\r\nimport \"contracts/Ownable.sol\";\r\n\r\ncontract Drivers is Ownable{\r\n\r\n    enum DriverStatus{Requested, Registered, NotRegistered, Failed, Pending}\r\n\r\n    struct uberDriver{\r\n        uint rating;\r\n        string name;\r\n        string car;\r\n        DriverStatus status;\r\n        uint index;\r\n        uint numberOfRides;\r\n    }\r\n    \r\n    address[] public driversList;\r\n    address[] public registeredDriverList;\r\n    mapping (address => uberDriver) public uberdrivers;    \r\n    uint numberOfDrivers; \r\n    event driverEvents(address driver, uint rating, string name, string car, uint status);\r\n    address private uberContract = 0x345ca3e014aaf5dca488057592ee47305d9b3e10;  \r\n\r\n\r\n    modifier isUberContract(address _contractAddress){\r\n        require(msg.sender == uberContract, \"Only the uber contract can call this funciton\");\r\n        _;\r\n    }\r\n\r\n    function isUser(address _driver)public view returns(bool isIndeed){\r\n        if(driversList.length == 0) return false;\r\n        return (driversList[uberdrivers[_driver].index] == _driver);\r\n    }\r\n\r\n    function rateDriver(address _driver, uint _rating)public  isUberContract(msg.sender){\r\n        uberdrivers[_driver].numberOfRides++; \r\n        uint currentRating = uberdrivers[_driver].rating; \r\n        uint noRides = uberdrivers[_driver].numberOfRides;\r\n        uint currentRatingVal = SafeMath.mul((noRides-1),currentRating);\r\n        uint newRatingTotalVal = SafeMath.add(currentRatingVal, _rating);\r\n        uint newRating = SafeMath.div(newRatingTotalVal, noRides);\r\n        uberdrivers[_driver].rating = newRating;\r\n        emit driverEvents(_driver, newRating, uberdrivers[_driver].name, uberdrivers[_driver].car, uint(uberdrivers[_driver].status));\r\n    }\r\n\r\n    function setUberContract(address _contract) onlyOwner public{\r\n        uberContract = _contract;\r\n    }  \r\n    \r\n    function requestToBeDriver(string _name, string _car) public{ \r\n        if(isUser(msg.sender)) revert(\"Driver Already Exisists\"); \r\n        uberdrivers[msg.sender] = uberDriver(0, _name, _car, DriverStatus.Requested, driversList.push(msg.sender)-1,0);        \r\n        emit driverEvents(msg.sender, 0, _name, _car, uint(DriverStatus.Registered));\r\n\r\n    }\r\n    function addDriver(address _driver, string _car, string _name) public onlyOwner returns(bool){\r\n        if(isUser(_driver)) revert(\"Driver Already Exisists\"); \r\n        uberdrivers[_driver] = uberDriver(0, _name, _car, DriverStatus.Registered, driversList.push(_driver)-1, 0);        \r\n        registeredDriverList.push(_driver);\r\n        return true; \r\n   //     emit driverEvents(_driver, 0, _name, _car, uint(DriverStatus.Registered));\r\n    }\r\n\r\n    function removeDriver(address _driver) public onlyOwner{\r\n        if(!isUser(_driver)) revert(\"driver does not exisits\");         \r\n        \r\n        uint rowToDelete = uberdrivers[_driver].index;\r\n        address keyToMove = driversList[driversList.length-1];        \r\n        driversList[rowToDelete] = keyToMove;\r\n        uberdrivers[keyToMove].index = rowToDelete;\r\n        driversList.length--;        \r\n       \r\n    }\r\n\r\n    function getDriverCount() public view returns(uint){\r\n        return driversList.length;\r\n    }\r\n\r\n    function getDriverAtIndex(uint _index) public view returns(address){\r\n        return driversList[_index];\r\n    }\r\n \r\n    function getAllDriver() public view returns(address[]){\r\n        return driversList;\r\n    }\r\n\r\n    function getDriverDetails(address _driver) public view returns(address,string,string,uint,uint,uint){\r\n        string memory name = uberdrivers[_driver].name;\r\n        string memory car = uberdrivers[_driver].car;\r\n        uint rating = uberdrivers[_driver].rating;\r\n        uint status = uint(uberdrivers[_driver].status);\r\n        uint index = uberdrivers[_driver].index;\r\n        return(_driver,name,car,rating,status,index);\r\n    }\r\n    \r\n    function reviewDriver(address _driverAddress, string _returnStatus) onlyOwner public{\r\n        \r\n        string memory message;\r\n        if(keccak256(_returnStatus) == keccak256(\"Approved\"))\r\n        {\r\n            uberdrivers[_driverAddress].status = DriverStatus.Registered;\r\n            registeredDriverList.push(_driverAddress);\r\n            message = \"Successfully registered, you can start driving\";\r\n        }else if(keccak256(_returnStatus) == keccak256(\"Pending\")){\r\n            uberdrivers[_driverAddress].status = DriverStatus.Pending;\r\n            message = \"We need some more time. Thanks\";\r\n        }else if(keccak256(_returnStatus) == keccak256(\"Rejected\")){\r\n            uberdrivers[_driverAddress].status = DriverStatus.Failed;\r\n            message = \"Sorry, you don't meet our conditions\";\r\n        }else{\r\n            uberdrivers[_driverAddress].status = DriverStatus.NotRegistered;\r\n            message = \"Still not registred\";\r\n        }\r\n        emit driverEvents(_driverAddress, 0, \"TEST\", \"TEST\", uint(DriverStatus.Requested));\r\n    }\r\n}",
  "sourcePath": "contracts/Drivers.sol",
  "compiler": {
    "name": "solc",
    "version": "0.4.24+commit.e67f0147.Emscripten.clang"
  },
  "schemaVersion": "2.0.0",
  "updatedAt": "2018-07-04T12:09:50.073Z"
}