{
  "contractName": "Drivers",
  "abi": [
    {
      "constant": false,
      "inputs": [],
      "name": "renounceOwnership",
      "outputs": [],
      "payable": false,
      "stateMutability": "nonpayable",
      "type": "function"
    },
    {
      "constant": true,
      "inputs": [],
      "name": "owner",
      "outputs": [
        {
          "name": "",
          "type": "address"
        }
      ],
      "payable": false,
      "stateMutability": "view",
      "type": "function"
    },
    {
      "constant": true,
      "inputs": [
        {
          "name": "",
          "type": "uint256"
        }
      ],
      "name": "uberdrivers",
      "outputs": [
        {
          "name": "driverAddress",
          "type": "address"
        },
        {
          "name": "rating",
          "type": "uint256"
        },
        {
          "name": "name",
          "type": "string"
        },
        {
          "name": "car",
          "type": "string"
        },
        {
          "name": "status",
          "type": "uint8"
        }
      ],
      "payable": false,
      "stateMutability": "view",
      "type": "function"
    },
    {
      "constant": false,
      "inputs": [
        {
          "name": "_newOwner",
          "type": "address"
        }
      ],
      "name": "transferOwnership",
      "outputs": [],
      "payable": false,
      "stateMutability": "nonpayable",
      "type": "function"
    },
    {
      "anonymous": false,
      "inputs": [
        {
          "indexed": true,
          "name": "uberAddress",
          "type": "address"
        },
        {
          "indexed": true,
          "name": "status",
          "type": "string"
        }
      ],
      "name": "DriverAccessRequested",
      "type": "event"
    },
    {
      "anonymous": false,
      "inputs": [
        {
          "indexed": false,
          "name": "uberAddress",
          "type": "address"
        },
        {
          "indexed": false,
          "name": "message",
          "type": "string"
        }
      ],
      "name": "DriverAccessReviewed",
      "type": "event"
    },
    {
      "anonymous": false,
      "inputs": [
        {
          "indexed": false,
          "name": "_driverId",
          "type": "uint256"
        },
        {
          "indexed": false,
          "name": "rating",
          "type": "uint256"
        }
      ],
      "name": "DriverRated",
      "type": "event"
    },
    {
      "anonymous": false,
      "inputs": [
        {
          "indexed": true,
          "name": "previousOwner",
          "type": "address"
        }
      ],
      "name": "OwnershipRenounced",
      "type": "event"
    },
    {
      "anonymous": false,
      "inputs": [
        {
          "indexed": true,
          "name": "previousOwner",
          "type": "address"
        },
        {
          "indexed": true,
          "name": "newOwner",
          "type": "address"
        }
      ],
      "name": "OwnershipTransferred",
      "type": "event"
    },
    {
      "constant": false,
      "inputs": [
        {
          "name": "_contract",
          "type": "address"
        }
      ],
      "name": "setUberContract",
      "outputs": [],
      "payable": false,
      "stateMutability": "nonpayable",
      "type": "function"
    },
    {
      "constant": true,
      "inputs": [
        {
          "name": "_driverId",
          "type": "uint256"
        }
      ],
      "name": "getDriver",
      "outputs": [
        {
          "name": "",
          "type": "uint256"
        },
        {
          "name": "",
          "type": "address"
        },
        {
          "name": "",
          "type": "string"
        },
        {
          "name": "",
          "type": "string"
        },
        {
          "name": "",
          "type": "uint256"
        }
      ],
      "payable": false,
      "stateMutability": "view",
      "type": "function"
    },
    {
      "constant": true,
      "inputs": [],
      "name": "getAllDrivers",
      "outputs": [
        {
          "name": "",
          "type": "uint256[]"
        }
      ],
      "payable": false,
      "stateMutability": "view",
      "type": "function"
    },
    {
      "constant": false,
      "inputs": [
        {
          "name": "_car",
          "type": "string"
        },
        {
          "name": "_name",
          "type": "string"
        }
      ],
      "name": "requestToBeDriver",
      "outputs": [],
      "payable": false,
      "stateMutability": "nonpayable",
      "type": "function"
    },
    {
      "constant": false,
      "inputs": [
        {
          "name": "_driverID",
          "type": "uint256"
        },
        {
          "name": "_driverAddress",
          "type": "address"
        },
        {
          "name": "_returnStatus",
          "type": "string"
        }
      ],
      "name": "reviewDriver",
      "outputs": [],
      "payable": false,
      "stateMutability": "nonpayable",
      "type": "function"
    },
    {
      "constant": false,
      "inputs": [
        {
          "name": "_driverId",
          "type": "uint256"
        },
        {
          "name": "rating",
          "type": "uint256"
        }
      ],
      "name": "rateDriver",
      "outputs": [],
      "payable": false,
      "stateMutability": "nonpayable",
      "type": "function"
    }
  ],
  "bytecode": "0x6080604052336000806101000a81548173ffffffffffffffffffffffffffffffffffffffff021916908373ffffffffffffffffffffffffffffffffffffffff1602179055506114dc806100536000396000f3006080604052600436106100a4576000357c0100000000000000000000000000000000000000000000000000000000900463ffffffff1680632290b191146100a95780632906b64b146101fc5780636cbac4a81461028f578063715018a6146102fb5780638da5cb5b14610312578063c603182314610369578063cadc9966146104ca578063d300103a14610579578063d6dd2599146105b0578063f2fde38b146105f3575b600080fd5b3480156100b557600080fd5b506100d460048036038101908080359060200190929190505050610636565b604051808681526020018573ffffffffffffffffffffffffffffffffffffffff1673ffffffffffffffffffffffffffffffffffffffff1681526020018060200180602001848152602001838103835286818151815260200191508051906020019080838360005b8381101561015657808201518184015260208101905061013b565b50505050905090810190601f1680156101835780820380516001836020036101000a031916815260200191505b50838103825285818151815260200191508051906020019080838360005b838110156101bc5780820151818401526020810190506101a1565b50505050905090810190601f1680156101e95780820380516001836020036101000a031916815260200191505b5097505050505050505060405180910390f35b34801561020857600080fd5b5061028d60048036038101908080359060200190929190803573ffffffffffffffffffffffffffffffffffffffff169060200190929190803590602001908201803590602001908080601f01602080910402602001604051908101604052809392919081815260200183838082843782019150505050505091929192905050506107dd565b005b34801561029b57600080fd5b506102a4610c7c565b6040518080602001828103825283818151815260200191508051906020019060200280838360005b838110156102e75780820151818401526020810190506102cc565b505050509050019250505060405180910390f35b34801561030757600080fd5b50610310610cd3565b005b34801561031e57600080fd5b50610327610dd5565b604051808273ffffffffffffffffffffffffffffffffffffffff1673ffffffffffffffffffffffffffffffffffffffff16815260200191505060405180910390f35b34801561037557600080fd5b5061039460048036038101908080359060200190929190505050610dfa565b604051808673ffffffffffffffffffffffffffffffffffffffff1673ffffffffffffffffffffffffffffffffffffffff16815260200185815260200180602001806020018460048111156103e457fe5b60ff168152602001838103835286818151815260200191508051906020019080838360005b83811015610424578082015181840152602081019050610409565b50505050905090810190601f1680156104515780820380516001836020036101000a031916815260200191505b50838103825285818151815260200191508051906020019080838360005b8381101561048a57808201518184015260208101905061046f565b50505050905090810190601f1680156104b75780820380516001836020036101000a031916815260200191505b5097505050505050505060405180910390f35b3480156104d657600080fd5b50610577600480360381019080803590602001908201803590602001908080601f0160208091040260200160405190810160405280939291908181526020018383808284378201915050505050509192919290803590602001908201803590602001908080601f0160208091040260200160405190810160405280939291908181526020018383808284378201915050505050509192919290505050610f9c565b005b34801561058557600080fd5b506105ae60048036038101908080359060200190929190803590602001909291905050506110d3565b005b3480156105bc57600080fd5b506105f1600480360381019080803573ffffffffffffffffffffffffffffffffffffffff16906020019092919050505061120b565b005b3480156105ff57600080fd5b50610634600480360381019080803573ffffffffffffffffffffffffffffffffffffffff1690602001909291905050506112aa565b005b60008060608060008060018781548110151561064e57fe5b90600052602060002090600502019050868160000160009054906101000a900473ffffffffffffffffffffffffffffffffffffffff1682600201836003018460010154828054600181600116156101000203166002900480601f0160208091040260200160405190810160405280929190818152602001828054600181600116156101000203166002900480156107265780601f106106fb57610100808354040283529160200191610726565b820191906000526020600020905b81548152906001019060200180831161070957829003601f168201915b50505050509250818054600181600116156101000203166002900480601f0160208091040260200160405190810160405280929190818152602001828054600181600116156101000203166002900480156107c25780601f10610797576101008083540402835291602001916107c2565b820191906000526020600020905b8154815290600101906020018083116107a557829003601f168201915b50505050509150955095509550955095505091939590929450565b60606000809054906101000a900473ffffffffffffffffffffffffffffffffffffffff1673ffffffffffffffffffffffffffffffffffffffff163373ffffffffffffffffffffffffffffffffffffffff1614151561083a57600080fd5b60405180807f417070726f7665640000000000000000000000000000000000000000000000008152506008019050604051809103902060001916826040518082805190602001908083835b6020831015156108aa5780518252602082019150602081019050602083039250610885565b6001836020036101000a03801982511681845116808217855250505050505090500191505060405180910390206000191614156109875760006001858154811015156108f257fe5b906000526020600020906005020160040160006101000a81548160ff0219169083600481111561091e57fe5b0217905550606060405190810160405280602e81526020017f5375636365737366756c6c7920726567697374657265642c20796f752063616e81526020017f2073746172742064726976696e670000000000000000000000000000000000008152509050610c76565b60405180807f50656e64696e67000000000000000000000000000000000000000000000000008152506007019050604051809103902060001916826040518082805190602001908083835b6020831015156109f757805182526020820191506020810190506020830392506109d2565b6001836020036101000a0380198251168184511680821785525050505050509050019150506040518091039020600019161415610aad576004600185815481101515610a3f57fe5b906000526020600020906005020160040160006101000a81548160ff02191690836004811115610a6b57fe5b02179055506040805190810160405280601e81526020017f5765206e65656420736f6d65206d6f72652074696d652e205468616e6b7300008152509050610c75565b60405180807f52656a65637465640000000000000000000000000000000000000000000000008152506008019050604051809103902060001916826040518082805190602001908083835b602083101515610b1d5780518252602082019150602081019050602083039250610af8565b6001836020036101000a0380198251168184511680821785525050505050509050019150506040518091039020600019161415610bfa576002600185815481101515610b6557fe5b906000526020600020906005020160040160006101000a81548160ff02191690836004811115610b9157fe5b0217905550606060405190810160405280602481526020017f536f7272792c20796f7520646f6e2774206d656574206f757220636f6e64697481526020017f696f6e73000000000000000000000000000000000000000000000000000000008152509050610c74565b60018085815481101515610c0a57fe5b906000526020600020906005020160040160006101000a81548160ff02191690836004811115610c3657fe5b02179055506040805190810160405280601381526020017f5374696c6c206e6f74207265676973747265640000000000000000000000000081525090505b5b5b50505050565b60608060008060009150600090505b600180549050811015610cca57808383815181101515610ca757fe5b906020019060200201818152505081806001019250508080600101915050610c8b565b82935050505090565b6000809054906101000a900473ffffffffffffffffffffffffffffffffffffffff1673ffffffffffffffffffffffffffffffffffffffff163373ffffffffffffffffffffffffffffffffffffffff16141515610d2e57600080fd5b6000809054906101000a900473ffffffffffffffffffffffffffffffffffffffff1673ffffffffffffffffffffffffffffffffffffffff167ff8df31144d9c2f0f6b59d69b8b98abd5459d07f2742c4df920b25aae33c6482060405160405180910390a260008060006101000a81548173ffffffffffffffffffffffffffffffffffffffff021916908373ffffffffffffffffffffffffffffffffffffffff160217905550565b6000809054906101000a900473ffffffffffffffffffffffffffffffffffffffff1681565b600181815481101515610e0957fe5b90600052602060002090600502016000915090508060000160009054906101000a900473ffffffffffffffffffffffffffffffffffffffff1690806001015490806002018054600181600116156101000203166002900480601f016020809104026020016040519081016040528092919081815260200182805460018160011615610100020316600290048015610ee15780601f10610eb657610100808354040283529160200191610ee1565b820191906000526020600020905b815481529060010190602001808311610ec457829003601f168201915b505050505090806003018054600181600116156101000203166002900480601f016020809104026020016040519081016040528092919081815260200182805460018160011615610100020316600290048015610f7f5780601f10610f5457610100808354040283529160200191610f7f565b820191906000526020600020905b815481529060010190602001808311610f6257829003601f168201915b5050505050908060040160009054906101000a900460ff16905085565b60026000815480929190600101919050555060a0604051908101604052803373ffffffffffffffffffffffffffffffffffffffff1681526020016000815260200182815260200183815260200160036004811115610ff657fe5b815250600160025481548110151561100a57fe5b906000526020600020906005020160008201518160000160006101000a81548173ffffffffffffffffffffffffffffffffffffffff021916908373ffffffffffffffffffffffffffffffffffffffff16021790555060208201518160010155604082015181600201908051906020019061108592919061140b565b5060608201518160030190805190602001906110a292919061140b565b5060808201518160040160006101000a81548160ff021916908360048111156110c757fe5b02179055509050505050565b33600360009054906101000a900473ffffffffffffffffffffffffffffffffffffffff1673ffffffffffffffffffffffffffffffffffffffff163373ffffffffffffffffffffffffffffffffffffffff161415156111bf576040517f08c379a000000000000000000000000000000000000000000000000000000000815260040180806020018281038252602d8152602001807f4f6e6c7920746865207562657220636f6e74726163742063616e2063616c6c2081526020017f746869732066756e6369746f6e0000000000000000000000000000000000000081525060400191505060405180910390fd5b816001848154811015156111cf57fe5b906000526020600020906005020160010154016001848154811015156111f157fe5b906000526020600020906005020160010181905550505050565b6000809054906101000a900473ffffffffffffffffffffffffffffffffffffffff1673ffffffffffffffffffffffffffffffffffffffff163373ffffffffffffffffffffffffffffffffffffffff1614151561126657600080fd5b80600360006101000a81548173ffffffffffffffffffffffffffffffffffffffff021916908373ffffffffffffffffffffffffffffffffffffffff16021790555050565b6000809054906101000a900473ffffffffffffffffffffffffffffffffffffffff1673ffffffffffffffffffffffffffffffffffffffff163373ffffffffffffffffffffffffffffffffffffffff1614151561130557600080fd5b61130e81611311565b50565b600073ffffffffffffffffffffffffffffffffffffffff168173ffffffffffffffffffffffffffffffffffffffff161415151561134d57600080fd5b8073ffffffffffffffffffffffffffffffffffffffff166000809054906101000a900473ffffffffffffffffffffffffffffffffffffffff1673ffffffffffffffffffffffffffffffffffffffff167f8be0079c531659141344cd1fd0a4f28419497f9722a3daafe3b4186f6b6457e060405160405180910390a3806000806101000a81548173ffffffffffffffffffffffffffffffffffffffff021916908373ffffffffffffffffffffffffffffffffffffffff16021790555050565b828054600181600116156101000203166002900490600052602060002090601f016020900481019282601f1061144c57805160ff191683800117855561147a565b8280016001018555821561147a579182015b8281111561147957825182559160200191906001019061145e565b5b509050611487919061148b565b5090565b6114ad91905b808211156114a9576000816000905550600101611491565b5090565b905600a165627a7a72305820eb4808db546004dab060a409d0ee34417df04c16039a4c1734acf480a1c0e17a0029",
  "source": "pragma solidity ^0.4.24;\n\nimport \"node_modules/openzeppelin-solidity/contracts/math/SafeMath.sol\";\nimport \"node_modules/openzeppelin-solidity/contracts/token/ERC20/ERC20.sol\";\nimport \"node_modules/openzeppelin-solidity/contracts/token/ERC20/BasicToken.sol\";\nimport \"contracts/Ownable.sol\";\n\ncontract Drivers is Ownable{\n\n    enum DriverStatus{Registered, NotRegistered, Failed, Requested, Pending}\n\n    struct uberDriver{\n        address driverAddress;\n        uint rating;\n        string name;\n        string car;\n        DriverStatus status;\n    }\n    \n    uberDriver[] public uberdrivers;\n   // mapping (uint => uberDriver) public uberdrivers;    \n    uint numberOfDrivers; \n    event DriverAccessRequested(address indexed uberAddress, string indexed status);\n    event DriverAccessReviewed(address uberAddress, string message);\n    event DriverRated(uint _driverId, uint rating);\n\n    address private uberContract;\n\n    modifier isUberContract(address _contractAddress){\n        require(msg.sender == uberContract, \"Only the uber contract can call this funciton\");\n        _;\n    }\n\n    function setUberContract(address _contract) onlyOwner public{\n        uberContract = _contract;\n    }\n    \n    function getDriver(uint _driverId) public view returns(uint, address, string, string, uint){\n        uberDriver storage uberdriver = uberdrivers[_driverId];\n        return(_driverId, uberdriver.driverAddress, uberdriver.name, uberdriver.car, uberdriver.rating);\n    }\n    \n    function getAllDrivers() external view returns(uint[]){\n        uint[] memory result;\n        uint counter = 0;\n\n        for (uint i = 0; i < uberdrivers.length; i++) {\n            result[counter] = i;\n            counter++;\n        }\n        return result;\n    }\n    \n    function requestToBeDriver(string _car, string _name) public {\n        numberOfDrivers++;\n        uberdrivers[numberOfDrivers] = uberDriver(msg.sender,0, _name, _car, DriverStatus.Requested);        \n       // emit DriverAccessRequested(msg.sender, \"Requested\");\n    }\n\n    function reviewDriver(uint _driverID, address _driverAddress, string _returnStatus) onlyOwner public{\n        \n        string memory message;\n        if(keccak256(_returnStatus) == keccak256(\"Approved\"))\n        {\n            uberdrivers[_driverID].status = DriverStatus.Registered;\n            message = \"Successfully registered, you can start driving\";\n        }else if(keccak256(_returnStatus) == keccak256(\"Pending\")){\n            uberdrivers[_driverID].status = DriverStatus.Pending;\n            message = \"We need some more time. Thanks\";\n        }else if(keccak256(_returnStatus) == keccak256(\"Rejected\")){\n            uberdrivers[_driverID].status = DriverStatus.Failed;\n            message = \"Sorry, you don't meet our conditions\";\n        }else{\n            uberdrivers[_driverID].status = DriverStatus.NotRegistered;\n            message = \"Still not registred\";\n        }\n     //   emit DriverAccessReviewed(_driverAddress, message);\n    }\n\n    function rateDriver(uint _driverId, uint rating) public isUberContract(msg.sender){        \n        uberdrivers[_driverId].rating = uberdrivers[_driverId].rating + rating;\n  //      emit DriverRated(_driverId, uberdrivers[_driverId].rating);\n    }\n}",
  "sourcePath": "/Users/Graham/Documents/Git Repo/Smart-Contract-Learning-1/contracts/Drivers.sol",
  "compiler": {
    "name": "solc",
    "version": "0.4.24+commit.e67f0147.Emscripten.clang"
  },
  "schemaVersion": "2.0.1",
  "updatedAt": "2018-06-21T13:32:01.981Z"
}