{
  "contractName": "Drivers",
  "abi": [
    {
      "constant": true,
      "inputs": [
        {
          "name": "",
          "type": "uint256"
        }
      ],
      "name": "driversList",
      "outputs": [
        {
          "name": "",
          "type": "address"
        }
      ],
      "payable": false,
      "stateMutability": "view",
      "type": "function"
    },
    {
      "constant": true,
      "inputs": [
        {
          "name": "",
          "type": "address"
        }
      ],
      "name": "uberdrivers",
      "outputs": [
        {
          "name": "rating",
          "type": "uint256"
        },
        {
          "name": "name",
          "type": "string"
        },
        {
          "name": "car",
          "type": "string"
        },
        {
          "name": "status",
          "type": "uint8"
        },
        {
          "name": "index",
          "type": "uint256"
        }
      ],
      "payable": false,
      "stateMutability": "view",
      "type": "function"
    },
    {
      "constant": false,
      "inputs": [],
      "name": "renounceOwnership",
      "outputs": [],
      "payable": false,
      "stateMutability": "nonpayable",
      "type": "function"
    },
    {
      "constant": true,
      "inputs": [],
      "name": "owner",
      "outputs": [
        {
          "name": "",
          "type": "address"
        }
      ],
      "payable": false,
      "stateMutability": "view",
      "type": "function"
    },
    {
      "constant": false,
      "inputs": [
        {
          "name": "_newOwner",
          "type": "address"
        }
      ],
      "name": "transferOwnership",
      "outputs": [],
      "payable": false,
      "stateMutability": "nonpayable",
      "type": "function"
    },
    {
      "anonymous": false,
      "inputs": [
        {
          "indexed": false,
          "name": "driver",
          "type": "address"
        },
        {
          "indexed": false,
          "name": "rating",
          "type": "uint256"
        },
        {
          "indexed": false,
          "name": "name",
          "type": "string"
        },
        {
          "indexed": false,
          "name": "car",
          "type": "string"
        },
        {
          "indexed": false,
          "name": "status",
          "type": "uint256"
        }
      ],
      "name": "driverEvents",
      "type": "event"
    },
    {
      "anonymous": false,
      "inputs": [
        {
          "indexed": true,
          "name": "previousOwner",
          "type": "address"
        }
      ],
      "name": "OwnershipRenounced",
      "type": "event"
    },
    {
      "anonymous": false,
      "inputs": [
        {
          "indexed": true,
          "name": "previousOwner",
          "type": "address"
        },
        {
          "indexed": true,
          "name": "newOwner",
          "type": "address"
        }
      ],
      "name": "OwnershipTransferred",
      "type": "event"
    },
    {
      "constant": true,
      "inputs": [
        {
          "name": "_driver",
          "type": "address"
        }
      ],
      "name": "isUser",
      "outputs": [
        {
          "name": "isIndeed",
          "type": "bool"
        }
      ],
      "payable": false,
      "stateMutability": "view",
      "type": "function"
    },
    {
      "constant": false,
      "inputs": [
        {
          "name": "_contract",
          "type": "address"
        }
      ],
      "name": "setUberContract",
      "outputs": [],
      "payable": false,
      "stateMutability": "nonpayable",
      "type": "function"
    },
    {
      "constant": false,
      "inputs": [
        {
          "name": "_name",
          "type": "string"
        },
        {
          "name": "_car",
          "type": "string"
        }
      ],
      "name": "requestToBeDriver",
      "outputs": [],
      "payable": false,
      "stateMutability": "nonpayable",
      "type": "function"
    },
    {
      "constant": false,
      "inputs": [
        {
          "name": "_driver",
          "type": "address"
        },
        {
          "name": "_car",
          "type": "string"
        },
        {
          "name": "_name",
          "type": "string"
        }
      ],
      "name": "addDriver",
      "outputs": [],
      "payable": false,
      "stateMutability": "nonpayable",
      "type": "function"
    },
    {
      "constant": false,
      "inputs": [
        {
          "name": "_driver",
          "type": "address"
        }
      ],
      "name": "removeDriver",
      "outputs": [],
      "payable": false,
      "stateMutability": "nonpayable",
      "type": "function"
    },
    {
      "constant": true,
      "inputs": [],
      "name": "getDriverCount",
      "outputs": [
        {
          "name": "",
          "type": "uint256"
        }
      ],
      "payable": false,
      "stateMutability": "view",
      "type": "function"
    },
    {
      "constant": true,
      "inputs": [
        {
          "name": "_index",
          "type": "uint256"
        }
      ],
      "name": "getDriverAtIndex",
      "outputs": [
        {
          "name": "",
          "type": "address"
        }
      ],
      "payable": false,
      "stateMutability": "view",
      "type": "function"
    },
    {
      "constant": true,
      "inputs": [],
      "name": "getAllDriver",
      "outputs": [
        {
          "name": "",
          "type": "address[]"
        }
      ],
      "payable": false,
      "stateMutability": "view",
      "type": "function"
    },
    {
      "constant": true,
      "inputs": [
        {
          "name": "_driver",
          "type": "address"
        }
      ],
      "name": "getDriverDetails",
      "outputs": [
        {
          "name": "",
          "type": "address"
        },
        {
          "name": "",
          "type": "string"
        },
        {
          "name": "",
          "type": "string"
        },
        {
          "name": "",
          "type": "uint256"
        },
        {
          "name": "",
          "type": "uint256"
        },
        {
          "name": "",
          "type": "uint256"
        }
      ],
      "payable": false,
      "stateMutability": "view",
      "type": "function"
    },
    {
      "constant": false,
      "inputs": [
        {
          "name": "_driverAddress",
          "type": "address"
        },
        {
          "name": "_returnStatus",
          "type": "string"
        }
      ],
      "name": "reviewDriver",
      "outputs": [],
      "payable": false,
      "stateMutability": "nonpayable",
      "type": "function"
    }
  ],
  "bytecode": "0x6080604052336000806101000a81548173ffffffffffffffffffffffffffffffffffffffff021916908373ffffffffffffffffffffffffffffffffffffffff1602179055506121e5806100536000396000f3006080604052600436106100db576000357c0100000000000000000000000000000000000000000000000000000000900463ffffffff1680630da0474d146100e05780632be17d261461014d5780634036444a146101785780634209fff114610201578063542d34501461025c578063580256f2146102c9578063715018a6146104145780638da5cb5b1461042b578063c26bacd114610482578063cadc9966146104c5578063d6dd259914610574578063eef10c4d146105b7578063f2fde38b14610623578063f769e2b514610666578063f9550dcd146107d6575b600080fd5b3480156100ec57600080fd5b5061010b600480360381019080803590602001909291905050506108a5565b604051808273ffffffffffffffffffffffffffffffffffffffff1673ffffffffffffffffffffffffffffffffffffffff16815260200191505060405180910390f35b34801561015957600080fd5b506101626108e3565b6040518082815260200191505060405180910390f35b34801561018457600080fd5b506101ff600480360381019080803573ffffffffffffffffffffffffffffffffffffffff169060200190929190803590602001908201803590602001908080601f01602080910402602001604051908101604052809392919081815260200183838082843782019150505050505091929192905050506108f0565b005b34801561020d57600080fd5b50610242600480360381019080803573ffffffffffffffffffffffffffffffffffffffff169060200190929190505050610f07565b604051808215151515815260200191505060405180910390f35b34801561026857600080fd5b5061028760048036038101908080359060200190929190505050610fd1565b604051808273ffffffffffffffffffffffffffffffffffffffff1673ffffffffffffffffffffffffffffffffffffffff16815260200191505060405180910390f35b3480156102d557600080fd5b5061030a600480360381019080803573ffffffffffffffffffffffffffffffffffffffff169060200190929190505050611014565b60405180868152602001806020018060200185600481111561032857fe5b60ff168152602001848152602001838103835287818151815260200191508051906020019080838360005b8381101561036e578082015181840152602081019050610353565b50505050905090810190601f16801561039b5780820380516001836020036101000a031916815260200191505b50838103825286818151815260200191508051906020019080838360005b838110156103d45780820151818401526020810190506103b9565b50505050905090810190601f1680156104015780820380516001836020036101000a031916815260200191505b5097505050505050505060405180910390f35b34801561042057600080fd5b50610429611187565b005b34801561043757600080fd5b50610440611289565b604051808273ffffffffffffffffffffffffffffffffffffffff1673ffffffffffffffffffffffffffffffffffffffff16815260200191505060405180910390f35b34801561048e57600080fd5b506104c3600480360381019080803573ffffffffffffffffffffffffffffffffffffffff1690602001909291905050506112ae565b005b3480156104d157600080fd5b50610572600480360381019080803590602001908201803590602001908080601f0160208091040260200160405190810160405280939291908181526020018383808284378201915050505050509192919290803590602001908201803590602001908080601f01602080910402602001604051908101604052809392919081815260200183838082843782019150505050505091929192905050506114ca565b005b34801561058057600080fd5b506105b5600480360381019080803573ffffffffffffffffffffffffffffffffffffffff1690602001909291905050506117f8565b005b3480156105c357600080fd5b506105cc611897565b6040518080602001828103825283818151815260200191508051906020019060200280838360005b8381101561060f5780820151818401526020810190506105f4565b505050509050019250505060405180910390f35b34801561062f57600080fd5b50610664600480360381019080803573ffffffffffffffffffffffffffffffffffffffff169060200190929190505050611925565b005b34801561067257600080fd5b506106a7600480360381019080803573ffffffffffffffffffffffffffffffffffffffff16906020019092919050505061198c565b604051808773ffffffffffffffffffffffffffffffffffffffff1673ffffffffffffffffffffffffffffffffffffffff1681526020018060200180602001868152602001858152602001848152602001838103835288818151815260200191508051906020019080838360005b8381101561072f578082015181840152602081019050610714565b50505050905090810190601f16801561075c5780820380516001836020036101000a031916815260200191505b50838103825287818151815260200191508051906020019080838360005b8381101561079557808201518184015260208101905061077a565b50505050905090810190601f1680156107c25780820380516001836020036101000a031916815260200191505b509850505050505050505060405180910390f35b3480156107e257600080fd5b506108a3600480360381019080803573ffffffffffffffffffffffffffffffffffffffff169060200190929190803590602001908201803590602001908080601f0160208091040260200160405190810160405280939291908181526020018383808284378201915050505050509192919290803590602001908201803590602001908080601f0160208091040260200160405190810160405280939291908181526020018383808284378201915050505050509192919290505050611c64565b005b6001818154811015156108b457fe5b906000526020600020016000915054906101000a900473ffffffffffffffffffffffffffffffffffffffff1681565b6000600180549050905090565b60606000809054906101000a900473ffffffffffffffffffffffffffffffffffffffff1673ffffffffffffffffffffffffffffffffffffffff163373ffffffffffffffffffffffffffffffffffffffff1614151561094d57600080fd5b60405180807f417070726f7665640000000000000000000000000000000000000000000000008152506008019050604051809103902060001916826040518082805190602001908083835b6020831015156109bd5780518252602082019150602081019050602083039250610998565b6001836020036101000a0380198251168184511680821785525050505050509050019150506040518091039020600019161415610abc576001600260008573ffffffffffffffffffffffffffffffffffffffff1673ffffffffffffffffffffffffffffffffffffffff16815260200190815260200160002060030160006101000a81548160ff02191690836004811115610a5357fe5b0217905550606060405190810160405280602e81526020017f5375636365737366756c6c7920726567697374657265642c20796f752063616e81526020017f2073746172742064726976696e670000000000000000000000000000000000008152509050610e11565b60405180807f50656e64696e67000000000000000000000000000000000000000000000000008152506007019050604051809103902060001916826040518082805190602001908083835b602083101515610b2c5780518252602082019150602081019050602083039250610b07565b6001836020036101000a0380198251168184511680821785525050505050509050019150506040518091039020600019161415610c04576004600260008573ffffffffffffffffffffffffffffffffffffffff1673ffffffffffffffffffffffffffffffffffffffff16815260200190815260200160002060030160006101000a81548160ff02191690836004811115610bc257fe5b02179055506040805190810160405280601e81526020017f5765206e65656420736f6d65206d6f72652074696d652e205468616e6b7300008152509050610e10565b60405180807f52656a65637465640000000000000000000000000000000000000000000000008152506008019050604051809103902060001916826040518082805190602001908083835b602083101515610c745780518252602082019150602081019050602083039250610c4f565b6001836020036101000a0380198251168184511680821785525050505050509050019150506040518091039020600019161415610d73576003600260008573ffffffffffffffffffffffffffffffffffffffff1673ffffffffffffffffffffffffffffffffffffffff16815260200190815260200160002060030160006101000a81548160ff02191690836004811115610d0a57fe5b0217905550606060405190810160405280602481526020017f536f7272792c20796f7520646f6e2774206d656574206f757220636f6e64697481526020017f696f6e73000000000000000000000000000000000000000000000000000000008152509050610e0f565b60028060008573ffffffffffffffffffffffffffffffffffffffff1673ffffffffffffffffffffffffffffffffffffffff16815260200190815260200160002060030160006101000a81548160ff02191690836004811115610dd157fe5b02179055506040805190810160405280601381526020017f5374696c6c206e6f74207265676973747265640000000000000000000000000081525090505b5b5b7f2f1388ef7455dc2c8c8e21824332261695e84fc6e0202b74cca1d70d65b16003836000806004811115610e4157fe5b604051808473ffffffffffffffffffffffffffffffffffffffff1673ffffffffffffffffffffffffffffffffffffffff1681526020018381526020018060200180602001848152602001838103835260048152602001807f5445535400000000000000000000000000000000000000000000000000000000815250602001838103825260048152602001807f54455354000000000000000000000000000000000000000000000000000000008152506020019550505050505060405180910390a1505050565b6000806001805490501415610f1f5760009050610fcc565b8173ffffffffffffffffffffffffffffffffffffffff166001600260008573ffffffffffffffffffffffffffffffffffffffff1673ffffffffffffffffffffffffffffffffffffffff16815260200190815260200160002060040154815481101515610f8757fe5b9060005260206000200160009054906101000a900473ffffffffffffffffffffffffffffffffffffffff1673ffffffffffffffffffffffffffffffffffffffff161490505b919050565b6000600182815481101515610fe257fe5b9060005260206000200160009054906101000a900473ffffffffffffffffffffffffffffffffffffffff169050919050565b6002602052806000526040600020600091509050806000015490806001018054600181600116156101000203166002900480601f0160208091040260200160405190810160405280929190818152602001828054600181600116156101000203166002900480156110c65780601f1061109b576101008083540402835291602001916110c6565b820191906000526020600020905b8154815290600101906020018083116110a957829003601f168201915b505050505090806002018054600181600116156101000203166002900480601f0160208091040260200160405190810160405280929190818152602001828054600181600116156101000203166002900480156111645780601f1061113957610100808354040283529160200191611164565b820191906000526020600020905b81548152906001019060200180831161114757829003601f168201915b5050505050908060030160009054906101000a900460ff16908060040154905085565b6000809054906101000a900473ffffffffffffffffffffffffffffffffffffffff1673ffffffffffffffffffffffffffffffffffffffff163373ffffffffffffffffffffffffffffffffffffffff161415156111e257600080fd5b6000809054906101000a900473ffffffffffffffffffffffffffffffffffffffff1673ffffffffffffffffffffffffffffffffffffffff167ff8df31144d9c2f0f6b59d69b8b98abd5459d07f2742c4df920b25aae33c6482060405160405180910390a260008060006101000a81548173ffffffffffffffffffffffffffffffffffffffff021916908373ffffffffffffffffffffffffffffffffffffffff160217905550565b6000809054906101000a900473ffffffffffffffffffffffffffffffffffffffff1681565b6000806000809054906101000a900473ffffffffffffffffffffffffffffffffffffffff1673ffffffffffffffffffffffffffffffffffffffff163373ffffffffffffffffffffffffffffffffffffffff1614151561130c57600080fd5b61131583610f07565b1515611389576040517f08c379a00000000000000000000000000000000000000000000000000000000081526004018080602001828103825260178152602001807f64726976657220646f6573206e6f74206578697369747300000000000000000081525060200191505060405180910390fd5b600260008473ffffffffffffffffffffffffffffffffffffffff1673ffffffffffffffffffffffffffffffffffffffff1681526020019081526020016000206004015491506001808080549050038154811015156113e357fe5b9060005260206000200160009054906101000a900473ffffffffffffffffffffffffffffffffffffffff1690508060018381548110151561142057fe5b9060005260206000200160006101000a81548173ffffffffffffffffffffffffffffffffffffffff021916908373ffffffffffffffffffffffffffffffffffffffff16021790555081600260008373ffffffffffffffffffffffffffffffffffffffff1673ffffffffffffffffffffffffffffffffffffffff1681526020019081526020016000206004018190555060018054809190600190036114c491906120e8565b50505050565b6114d333610f07565b15611546576040517f08c379a00000000000000000000000000000000000000000000000000000000081526004018080602001828103825260178152602001807f44726976657220416c726561647920457869736973747300000000000000000081525060200191505060405180910390fd5b60a060405190810160405280600081526020018381526020018281526020016000600481111561157257fe5b81526020016001803390806001815401808255809150509060018203906000526020600020016000909192909190916101000a81548173ffffffffffffffffffffffffffffffffffffffff021916908373ffffffffffffffffffffffffffffffffffffffff16021790555003815250600260003373ffffffffffffffffffffffffffffffffffffffff1673ffffffffffffffffffffffffffffffffffffffff168152602001908152602001600020600082015181600001556020820151816001019080519060200190611646929190612114565b506040820151816002019080519060200190611663929190612114565b5060608201518160030160006101000a81548160ff0219169083600481111561168857fe5b0217905550608082015181600401559050507f2f1388ef7455dc2c8c8e21824332261695e84fc6e0202b74cca1d70d65b160033360008484600160048111156116cd57fe5b604051808673ffffffffffffffffffffffffffffffffffffffff1673ffffffffffffffffffffffffffffffffffffffff1681526020018581526020018060200180602001848152602001838103835286818151815260200191508051906020019080838360005b8381101561174f578082015181840152602081019050611734565b50505050905090810190601f16801561177c5780820380516001836020036101000a031916815260200191505b50838103825285818151815260200191508051906020019080838360005b838110156117b557808201518184015260208101905061179a565b50505050905090810190601f1680156117e25780820380516001836020036101000a031916815260200191505b5097505050505050505060405180910390a15050565b6000809054906101000a900473ffffffffffffffffffffffffffffffffffffffff1673ffffffffffffffffffffffffffffffffffffffff163373ffffffffffffffffffffffffffffffffffffffff1614151561185357600080fd5b80600460006101000a81548173ffffffffffffffffffffffffffffffffffffffff021916908373ffffffffffffffffffffffffffffffffffffffff16021790555050565b6060600180548060200260200160405190810160405280929190818152602001828054801561191b57602002820191906000526020600020905b8160009054906101000a900473ffffffffffffffffffffffffffffffffffffffff1673ffffffffffffffffffffffffffffffffffffffff16815260200190600101908083116118d1575b5050505050905090565b6000809054906101000a900473ffffffffffffffffffffffffffffffffffffffff1673ffffffffffffffffffffffffffffffffffffffff163373ffffffffffffffffffffffffffffffffffffffff1614151561198057600080fd5b61198981611fee565b50565b6000606080600080600080600080600080600260008d73ffffffffffffffffffffffffffffffffffffffff1673ffffffffffffffffffffffffffffffffffffffff1681526020019081526020016000206001019450600260008d73ffffffffffffffffffffffffffffffffffffffff1673ffffffffffffffffffffffffffffffffffffffff1681526020019081526020016000206002019350600260008d73ffffffffffffffffffffffffffffffffffffffff1673ffffffffffffffffffffffffffffffffffffffff168152602001908152602001600020600001549250600260008d73ffffffffffffffffffffffffffffffffffffffff1673ffffffffffffffffffffffffffffffffffffffff16815260200190815260200160002060030160009054906101000a900460ff166004811115611ac557fe5b9150600260008d73ffffffffffffffffffffffffffffffffffffffff1673ffffffffffffffffffffffffffffffffffffffff1681526020019081526020016000206004015490508b8585858585848054600181600116156101000203166002900480601f016020809104026020016040519081016040528092919081815260200182805460018160011615610100020316600290048015611ba75780601f10611b7c57610100808354040283529160200191611ba7565b820191906000526020600020905b815481529060010190602001808311611b8a57829003601f168201915b50505050509450838054600181600116156101000203166002900480601f016020809104026020016040519081016040528092919081815260200182805460018160011615610100020316600290048015611c435780601f10611c1857610100808354040283529160200191611c43565b820191906000526020600020905b815481529060010190602001808311611c2657829003601f168201915b505050505093509a509a509a509a509a509a50505050505091939550919395565b6000809054906101000a900473ffffffffffffffffffffffffffffffffffffffff1673ffffffffffffffffffffffffffffffffffffffff163373ffffffffffffffffffffffffffffffffffffffff16141515611cbf57600080fd5b611cc883610f07565b15611d3b576040517f08c379a00000000000000000000000000000000000000000000000000000000081526004018080602001828103825260178152602001807f44726976657220416c726561647920457869736973747300000000000000000081525060200191505060405180910390fd5b60a0604051908101604052806000815260200182815260200183815260200160016004811115611d6757fe5b81526020016001808690806001815401808255809150509060018203906000526020600020016000909192909190916101000a81548173ffffffffffffffffffffffffffffffffffffffff021916908373ffffffffffffffffffffffffffffffffffffffff16021790555003815250600260008573ffffffffffffffffffffffffffffffffffffffff1673ffffffffffffffffffffffffffffffffffffffff168152602001908152602001600020600082015181600001556020820151816001019080519060200190611e3b929190612114565b506040820151816002019080519060200190611e58929190612114565b5060608201518160030160006101000a81548160ff02191690836004811115611e7d57fe5b0217905550608082015181600401559050507f2f1388ef7455dc2c8c8e21824332261695e84fc6e0202b74cca1d70d65b16003836000838560006004811115611ec257fe5b604051808673ffffffffffffffffffffffffffffffffffffffff1673ffffffffffffffffffffffffffffffffffffffff1681526020018581526020018060200180602001848152602001838103835286818151815260200191508051906020019080838360005b83811015611f44578082015181840152602081019050611f29565b50505050905090810190601f168015611f715780820380516001836020036101000a031916815260200191505b50838103825285818151815260200191508051906020019080838360005b83811015611faa578082015181840152602081019050611f8f565b50505050905090810190601f168015611fd75780820380516001836020036101000a031916815260200191505b5097505050505050505060405180910390a1505050565b600073ffffffffffffffffffffffffffffffffffffffff168173ffffffffffffffffffffffffffffffffffffffff161415151561202a57600080fd5b8073ffffffffffffffffffffffffffffffffffffffff166000809054906101000a900473ffffffffffffffffffffffffffffffffffffffff1673ffffffffffffffffffffffffffffffffffffffff167f8be0079c531659141344cd1fd0a4f28419497f9722a3daafe3b4186f6b6457e060405160405180910390a3806000806101000a81548173ffffffffffffffffffffffffffffffffffffffff021916908373ffffffffffffffffffffffffffffffffffffffff16021790555050565b81548183558181111561210f5781836000526020600020918201910161210e9190612194565b5b505050565b828054600181600116156101000203166002900490600052602060002090601f016020900481019282601f1061215557805160ff1916838001178555612183565b82800160010185558215612183579182015b82811115612182578251825591602001919060010190612167565b5b5090506121909190612194565b5090565b6121b691905b808211156121b257600081600090555060010161219a565b5090565b905600a165627a7a72305820e4b2a08b2db5949221c1db1becdd0ff184631df0a70b669fa93c5ac32174efbd0029",
  "source": "pragma solidity ^0.4.24;\n\nimport \"node_modules/openzeppelin-solidity/contracts/math/SafeMath.sol\";\nimport \"node_modules/openzeppelin-solidity/contracts/token/ERC20/ERC20.sol\";\nimport \"node_modules/openzeppelin-solidity/contracts/token/ERC20/BasicToken.sol\";\nimport \"contracts/Ownable.sol\";\n\ncontract Drivers is Ownable{\n\n    enum DriverStatus{Requested, Registered, NotRegistered, Failed, Pending}\n\n    struct uberDriver{\n        uint rating;\n        string name;\n        string car;\n        DriverStatus status;\n        uint index;\n    }\n    \n    address[] public driversList;\n    mapping (address => uberDriver) public uberdrivers;    \n    uint numberOfDrivers; \n    event driverEvents(address driver, uint rating, string name, string car, uint status);\n    address private uberContract;    \n\n    modifier isUberContract(address _contractAddress){\n        require(msg.sender == uberContract, \"Only the uber contract can call this funciton\");\n        _;\n    }\n\n    function isUser(address _driver)public view returns(bool isIndeed){\n        if(driversList.length == 0) return false;\n        return (driversList[uberdrivers[_driver].index] == _driver);\n    }\n\n    function setUberContract(address _contract) onlyOwner public{\n        uberContract = _contract;\n    }  \n    \n    function requestToBeDriver(string _name, string _car) public{ \n        if(isUser(msg.sender)) revert(\"Driver Already Exisists\"); \n        uberdrivers[msg.sender] = uberDriver(0, _name, _car, DriverStatus.Requested, driversList.push(msg.sender)-1);        \n        emit driverEvents(msg.sender, 0, _name, _car, uint(DriverStatus.Registered));\n\n    }\n    function addDriver(address _driver, string _car, string _name) public onlyOwner{\n        if(isUser(_driver)) revert(\"Driver Already Exisists\"); \n        uberdrivers[_driver] = uberDriver(0, _name, _car, DriverStatus.Registered, driversList.push(_driver)-1);        \n        emit driverEvents(_driver, 0, _name, _car, uint(DriverStatus.Requested));\n    }\n\n    function removeDriver(address _driver) public onlyOwner{\n        if(!isUser(_driver)) revert(\"driver does not exisits\");         \n        uint rowToDelete = uberdrivers[_driver].index;\n        address keyToMove = driversList[driversList.length-1];\n        driversList[rowToDelete] = keyToMove;\n        uberdrivers[keyToMove].index = rowToDelete;\n        driversList.length--;        \n       \n    }\n\n    function getDriverCount() public view returns(uint){\n        return driversList.length;\n    }\n\n    function getDriverAtIndex(uint _index) public view returns(address){\n        return driversList[_index];\n    }\n \n    function getAllDriver() public view returns(address[]){\n        return driversList;\n    }\n\n    function getDriverDetails(address _driver) public view returns(address,string,string,uint,uint,uint){\n        string name = uberdrivers[_driver].name;\n        string car = uberdrivers[_driver].car;\n        uint rating = uberdrivers[_driver].rating;\n        uint status = uint(uberdrivers[_driver].status);\n        uint index = uberdrivers[_driver].index;\n        return(_driver,name,car,rating,status,index);\n    }\n    \n    function reviewDriver(address _driverAddress, string _returnStatus) onlyOwner public{\n        \n        string memory message;\n        if(keccak256(_returnStatus) == keccak256(\"Approved\"))\n        {\n            uberdrivers[_driverAddress].status = DriverStatus.Registered;\n            message = \"Successfully registered, you can start driving\";\n        }else if(keccak256(_returnStatus) == keccak256(\"Pending\")){\n            uberdrivers[_driverAddress].status = DriverStatus.Pending;\n            message = \"We need some more time. Thanks\";\n        }else if(keccak256(_returnStatus) == keccak256(\"Rejected\")){\n            uberdrivers[_driverAddress].status = DriverStatus.Failed;\n            message = \"Sorry, you don't meet our conditions\";\n        }else{\n            uberdrivers[_driverAddress].status = DriverStatus.NotRegistered;\n            message = \"Still not registred\";\n        }\n        emit driverEvents(_driverAddress, 0, \"TEST\", \"TEST\", uint(DriverStatus.Requested));\n    }\n}",
  "sourcePath": "/Users/Graham/Documents/GitHub/Smart-Contract-Learning-1/contracts/Drivers.sol",
  "compiler": {
    "name": "solc",
    "version": "0.4.24+commit.e67f0147.Emscripten.clang"
  },
  "schemaVersion": "2.0.1",
  "updatedAt": "2018-07-02T16:17:54.636Z"
}