{
  "contractName": "Uber_TCR",
  "abi": [
    {
      "constant": true,
      "inputs": [],
      "name": "feePerKM",
      "outputs": [
        {
          "name": "",
          "type": "uint256"
        }
      ],
      "payable": false,
      "stateMutability": "view",
      "type": "function"
    },
    {
      "constant": true,
      "inputs": [
        {
          "name": "",
          "type": "uint256"
        }
      ],
      "name": "rides",
      "outputs": [
        {
          "name": "rider",
          "type": "address"
        },
        {
          "name": "driver",
          "type": "address"
        },
        {
          "name": "pickUpLocation",
          "type": "string"
        },
        {
          "name": "dropOffLocation",
          "type": "string"
        },
        {
          "name": "distance",
          "type": "uint256"
        },
        {
          "name": "rideValue",
          "type": "uint256"
        },
        {
          "name": "status",
          "type": "uint8"
        },
        {
          "name": "rideCompleteDriver",
          "type": "bool"
        },
        {
          "name": "rideCompleteRider",
          "type": "bool"
        },
        {
          "name": "driveRating",
          "type": "uint256"
        }
      ],
      "payable": false,
      "stateMutability": "view",
      "type": "function"
    },
    {
      "constant": false,
      "inputs": [],
      "name": "renounceOwnership",
      "outputs": [],
      "payable": false,
      "stateMutability": "nonpayable",
      "type": "function"
    },
    {
      "constant": true,
      "inputs": [],
      "name": "owner",
      "outputs": [
        {
          "name": "",
          "type": "address"
        }
      ],
      "payable": false,
      "stateMutability": "view",
      "type": "function"
    },
    {
      "constant": true,
      "inputs": [
        {
          "name": "",
          "type": "uint256"
        }
      ],
      "name": "listDrivers",
      "outputs": [
        {
          "name": "",
          "type": "address"
        }
      ],
      "payable": false,
      "stateMutability": "view",
      "type": "function"
    },
    {
      "constant": false,
      "inputs": [
        {
          "name": "_newOwner",
          "type": "address"
        }
      ],
      "name": "transferOwnership",
      "outputs": [],
      "payable": false,
      "stateMutability": "nonpayable",
      "type": "function"
    },
    {
      "inputs": [],
      "payable": false,
      "stateMutability": "nonpayable",
      "type": "constructor"
    },
    {
      "anonymous": false,
      "inputs": [
        {
          "indexed": false,
          "name": "rideId",
          "type": "uint256"
        },
        {
          "indexed": false,
          "name": "driver",
          "type": "address"
        },
        {
          "indexed": false,
          "name": "rider",
          "type": "address"
        },
        {
          "indexed": false,
          "name": "pickup",
          "type": "string"
        },
        {
          "indexed": false,
          "name": "dropoff",
          "type": "string"
        },
        {
          "indexed": false,
          "name": "rideValue",
          "type": "uint256"
        },
        {
          "indexed": false,
          "name": "status",
          "type": "uint256"
        },
        {
          "indexed": false,
          "name": "CmD",
          "type": "bool"
        },
        {
          "indexed": false,
          "name": "CmR",
          "type": "bool"
        },
        {
          "indexed": false,
          "name": "rating",
          "type": "uint256"
        }
      ],
      "name": "RideEvent",
      "type": "event"
    },
    {
      "anonymous": false,
      "inputs": [
        {
          "indexed": true,
          "name": "rideId",
          "type": "uint256"
        },
        {
          "indexed": true,
          "name": "driver",
          "type": "address"
        },
        {
          "indexed": true,
          "name": "rider",
          "type": "address"
        },
        {
          "indexed": false,
          "name": "rideValue",
          "type": "uint256"
        }
      ],
      "name": "RideComplete",
      "type": "event"
    },
    {
      "anonymous": false,
      "inputs": [
        {
          "indexed": true,
          "name": "rideId",
          "type": "uint256"
        },
        {
          "indexed": false,
          "name": "status",
          "type": "uint256"
        }
      ],
      "name": "RidePaid",
      "type": "event"
    },
    {
      "anonymous": false,
      "inputs": [
        {
          "indexed": false,
          "name": "newFee",
          "type": "uint256"
        }
      ],
      "name": "FeeUpdated",
      "type": "event"
    },
    {
      "anonymous": false,
      "inputs": [
        {
          "indexed": true,
          "name": "previousOwner",
          "type": "address"
        }
      ],
      "name": "OwnershipRenounced",
      "type": "event"
    },
    {
      "anonymous": false,
      "inputs": [
        {
          "indexed": true,
          "name": "previousOwner",
          "type": "address"
        },
        {
          "indexed": true,
          "name": "newOwner",
          "type": "address"
        }
      ],
      "name": "OwnershipTransferred",
      "type": "event"
    },
    {
      "constant": false,
      "inputs": [
        {
          "name": "_contract",
          "type": "address"
        }
      ],
      "name": "setdriverContract",
      "outputs": [],
      "payable": false,
      "stateMutability": "nonpayable",
      "type": "function"
    },
    {
      "constant": false,
      "inputs": [
        {
          "name": "_newFee",
          "type": "uint256"
        }
      ],
      "name": "setRideFee",
      "outputs": [],
      "payable": false,
      "stateMutability": "nonpayable",
      "type": "function"
    },
    {
      "constant": true,
      "inputs": [],
      "name": "numOfDrivers",
      "outputs": [
        {
          "name": "",
          "type": "uint256"
        }
      ],
      "payable": false,
      "stateMutability": "view",
      "type": "function"
    },
    {
      "constant": true,
      "inputs": [],
      "name": "getAllDriver",
      "outputs": [
        {
          "name": "",
          "type": "address[]"
        }
      ],
      "payable": false,
      "stateMutability": "view",
      "type": "function"
    },
    {
      "constant": true,
      "inputs": [],
      "name": "getRideCount",
      "outputs": [
        {
          "name": "",
          "type": "uint256"
        }
      ],
      "payable": false,
      "stateMutability": "view",
      "type": "function"
    },
    {
      "constant": true,
      "inputs": [
        {
          "name": "_rideId",
          "type": "uint256"
        }
      ],
      "name": "getRide",
      "outputs": [
        {
          "name": "",
          "type": "uint256"
        },
        {
          "name": "",
          "type": "address"
        },
        {
          "name": "",
          "type": "address"
        },
        {
          "name": "",
          "type": "uint256"
        },
        {
          "name": "",
          "type": "uint256"
        },
        {
          "name": "",
          "type": "uint256"
        }
      ],
      "payable": false,
      "stateMutability": "view",
      "type": "function"
    },
    {
      "constant": true,
      "inputs": [
        {
          "name": "_rideId",
          "type": "uint256"
        }
      ],
      "name": "getRideLocationDetails",
      "outputs": [
        {
          "name": "",
          "type": "string"
        },
        {
          "name": "",
          "type": "string"
        }
      ],
      "payable": false,
      "stateMutability": "view",
      "type": "function"
    },
    {
      "constant": false,
      "inputs": [
        {
          "name": "_driver",
          "type": "address"
        },
        {
          "name": "_pickUpLocation",
          "type": "string"
        },
        {
          "name": "_dropOffLocation",
          "type": "string"
        },
        {
          "name": "_distance",
          "type": "uint256"
        }
      ],
      "name": "requestRide",
      "outputs": [],
      "payable": false,
      "stateMutability": "nonpayable",
      "type": "function"
    },
    {
      "constant": false,
      "inputs": [
        {
          "name": "_rideId",
          "type": "uint256"
        }
      ],
      "name": "payForRide",
      "outputs": [],
      "payable": true,
      "stateMutability": "payable",
      "type": "function"
    },
    {
      "constant": false,
      "inputs": [
        {
          "name": "_rideId",
          "type": "uint256"
        }
      ],
      "name": "startRide",
      "outputs": [],
      "payable": false,
      "stateMutability": "nonpayable",
      "type": "function"
    },
    {
      "constant": false,
      "inputs": [
        {
          "name": "_rideId",
          "type": "uint256"
        }
      ],
      "name": "cancelRide",
      "outputs": [],
      "payable": false,
      "stateMutability": "nonpayable",
      "type": "function"
    },
    {
      "constant": false,
      "inputs": [
        {
          "name": "_rideId",
          "type": "uint256"
        }
      ],
      "name": "completeRide",
      "outputs": [],
      "payable": false,
      "stateMutability": "nonpayable",
      "type": "function"
    },
    {
      "constant": false,
      "inputs": [
        {
          "name": "_rideId",
          "type": "uint256"
        },
        {
          "name": "_rating",
          "type": "uint256"
        }
      ],
      "name": "rateRide",
      "outputs": [],
      "payable": false,
      "stateMutability": "nonpayable",
      "type": "function"
    },
    {
      "constant": true,
      "inputs": [
        {
          "name": "_rideId",
          "type": "uint256"
        }
      ],
      "name": "statusOfRide",
      "outputs": [
        {
          "name": "",
          "type": "string"
        }
      ],
      "payable": false,
      "stateMutability": "view",
      "type": "function"
    }
  ],
  "bytecode": "0x608060405266038d7ea4c6800060055573f25186b5081ff5ce73482ad761db0eb0d25abfbf600760006101000a81548173ffffffffffffffffffffffffffffffffffffffff021916908373ffffffffffffffffffffffffffffffffffffffff16021790555034801561007057600080fd5b50336000806101000a81548173ffffffffffffffffffffffffffffffffffffffff021916908373ffffffffffffffffffffffffffffffffffffffff16021790555033600660006101000a81548173ffffffffffffffffffffffffffffffffffffffff021916908373ffffffffffffffffffffffffffffffffffffffff160217905550613df8806101016000396000f300608060405260043610610112576000357c0100000000000000000000000000000000000000000000000000000000900463ffffffff16806309c181c5146101175780630df39bb1146101425780635205f11214610162578063715018a61461031a5780637c7b0ff4146103315780638959a5d1146103ed5780638da5cb5b146104185780639e9f2dbb1461046f578063a6f07b29146104a6578063b585d9ce146104d3578063b71cea8a14610579578063bcedfa60146105e6578063c416dd0b14610629578063c679565114610656578063ca7be3ac1461072f578063dcaeaec114610841578063e9c14b1e1461086e578063eef10c4d1461089b578063f2fde38b14610907578063f69bc1401461094a575b600080fd5b34801561012357600080fd5b5061012c610975565b6040518082815260200191505060405180910390f35b6101606004803603810190808035906020019092919050505061097b565b005b34801561016e57600080fd5b5061018d60048036038101908080359060200190929190505050610e32565b604051808b73ffffffffffffffffffffffffffffffffffffffff1673ffffffffffffffffffffffffffffffffffffffff1681526020018a73ffffffffffffffffffffffffffffffffffffffff1673ffffffffffffffffffffffffffffffffffffffff168152602001806020018060200189815260200188815260200187600681111561021557fe5b60ff168152602001861515151581526020018515151515815260200184815260200183810383528b818151815260200191508051906020019080838360005b8381101561026f578082015181840152602081019050610254565b50505050905090810190601f16801561029c5780820380516001836020036101000a031916815260200191505b5083810382528a818151815260200191508051906020019080838360005b838110156102d55780820151818401526020810190506102ba565b50505050905090810190601f1680156103025780820380516001836020036101000a031916815260200191505b509c5050505050505050505050505060405180910390f35b34801561032657600080fd5b5061032f61101d565b005b34801561033d57600080fd5b5061035c6004803603810190808035906020019092919050505061111f565b604051808781526020018673ffffffffffffffffffffffffffffffffffffffff1673ffffffffffffffffffffffffffffffffffffffff1681526020018573ffffffffffffffffffffffffffffffffffffffff1673ffffffffffffffffffffffffffffffffffffffff168152602001848152602001838152602001828152602001965050505050505060405180910390f35b3480156103f957600080fd5b50610402611225565b6040518082815260200191505060405180910390f35b34801561042457600080fd5b5061042d61122f565b604051808273ffffffffffffffffffffffffffffffffffffffff1673ffffffffffffffffffffffffffffffffffffffff16815260200191505060405180910390f35b34801561047b57600080fd5b506104a46004803603810190808035906020019092919080359060200190929190505050611255565b005b3480156104b257600080fd5b506104d160048036038101908080359060200190929190505050611766565b005b3480156104df57600080fd5b506104fe60048036038101908080359060200190929190505050611f72565b6040518080602001828103825283818151815260200191508051906020019080838360005b8381101561053e578082015181840152602081019050610523565b50505050905090810190601f16801561056b5780820380516001836020036101000a031916815260200191505b509250505060405180910390f35b34801561058557600080fd5b506105a460048036038101908080359060200190929190505050612258565b604051808273ffffffffffffffffffffffffffffffffffffffff1673ffffffffffffffffffffffffffffffffffffffff16815260200191505060405180910390f35b3480156105f257600080fd5b50610627600480360381019080803573ffffffffffffffffffffffffffffffffffffffff169060200190929190505050612296565b005b34801561063557600080fd5b5061065460048036038101908080359060200190929190505050612335565b005b34801561066257600080fd5b5061072d600480360381019080803573ffffffffffffffffffffffffffffffffffffffff169060200190929190803590602001908201803590602001908080601f0160208091040260200160405190810160405280939291908181526020018383808284378201915050505050509192919290803590602001908201803590602001908080601f016020809104026020016040519081016040528093929190818152602001838380828437820191505050505050919291929080359060200190929190505050612f06565b005b34801561073b57600080fd5b5061075a6004803603810190808035906020019092919050505061345b565b604051808060200180602001838103835285818151815260200191508051906020019080838360005b8381101561079e578082015181840152602081019050610783565b50505050905090810190601f1680156107cb5780820380516001836020036101000a031916815260200191505b50838103825284818151815260200191508051906020019080838360005b838110156108045780820151818401526020810190506107e9565b50505050905090810190601f1680156108315780820380516001836020036101000a031916815260200191505b5094505050505060405180910390f35b34801561084d57600080fd5b5061086c600480360381019080803590602001909291905050506135d0565b005b34801561087a57600080fd5b506108996004803603810190808035906020019092919050505061366c565b005b3480156108a757600080fd5b506108b0613af3565b6040518080602001828103825283818151815260200191508051906020019060200280838360005b838110156108f35780820151818401526020810190506108d8565b505050509050019250505060405180910390f35b34801561091357600080fd5b50610948600480360381019080803573ffffffffffffffffffffffffffffffffffffffff169060200190929190505050613b81565b005b34801561095657600080fd5b5061095f613be8565b6040518082815260200191505060405180910390f35b60055481565b6001600681111561098857fe5b6003600083815260200190815260200160002060060160009054906101000a900460ff1660068111156109b757fe5b141515610a2c576040517f08c379a000000000000000000000000000000000000000000000000000000000815260040180806020018281038252601d8152602001807f52696465206e6f7420696e2074686520636f727265637420737461746500000081525060200191505060405180910390fd5b346004600082825401925050819055506003600082815260200190815260200160002060000160009054906101000a900473ffffffffffffffffffffffffffffffffffffffff1673ffffffffffffffffffffffffffffffffffffffff163373ffffffffffffffffffffffffffffffffffffffff161415610e2f576003600082815260200190815260200160002060050154341415610dc05760026003600083815260200190815260200160002060060160006101000a81548160ff02191690836006811115610af757fe5b02179055507f1ad760d5e1420fded13c2c3d603a5e9348dc872856e6bbd78ad1603fd8c80873816003600084815260200190815260200160002060010160009054906101000a900473ffffffffffffffffffffffffffffffffffffffff166003600085815260200190815260200160002060000160009054906101000a900473ffffffffffffffffffffffffffffffffffffffff16600360008681526020019081526020016000206002016003600087815260200190815260200160002060030160036000888152602001908152602001600020600501546003600089815260200190815260200160002060060160009054906101000a900460ff166006811115610bfe57fe5b6000806000604051808b81526020018a73ffffffffffffffffffffffffffffffffffffffff1673ffffffffffffffffffffffffffffffffffffffff1681526020018973ffffffffffffffffffffffffffffffffffffffff1673ffffffffffffffffffffffffffffffffffffffff1681526020018060200180602001888152602001878152602001861515151581526020018515151515815260200184815260200183810383528a818154600181600116156101000203166002900481526020019150805460018160011615610100020316600290048015610d205780601f10610cf557610100808354040283529160200191610d20565b820191906000526020600020905b815481529060010190602001808311610d0357829003601f168201915b5050838103825289818154600181600116156101000203166002900481526020019150805460018160011615610100020316600290048015610da35780601f10610d7857610100808354040283529160200191610da3565b820191906000526020600020905b815481529060010190602001808311610d8657829003601f168201915b50509c5050505050505050505050505060405180910390a1610e2e565b6040517f08c379a00000000000000000000000000000000000000000000000000000000081526004018080602001828103825260108152602001807f496e636f727265637420416d6f756e740000000000000000000000000000000081525060200191505060405180910390fd5b5b50565b60036020528060005260406000206000915090508060000160009054906101000a900473ffffffffffffffffffffffffffffffffffffffff16908060010160009054906101000a900473ffffffffffffffffffffffffffffffffffffffff1690806002018054600181600116156101000203166002900480601f016020809104026020016040519081016040528092919081815260200182805460018160011615610100020316600290048015610f2a5780601f10610eff57610100808354040283529160200191610f2a565b820191906000526020600020905b815481529060010190602001808311610f0d57829003601f168201915b505050505090806003018054600181600116156101000203166002900480601f016020809104026020016040519081016040528092919081815260200182805460018160011615610100020316600290048015610fc85780601f10610f9d57610100808354040283529160200191610fc8565b820191906000526020600020905b815481529060010190602001808311610fab57829003601f168201915b5050505050908060040154908060050154908060060160009054906101000a900460ff16908060060160019054906101000a900460ff16908060060160029054906101000a900460ff1690806007015490508a565b6000809054906101000a900473ffffffffffffffffffffffffffffffffffffffff1673ffffffffffffffffffffffffffffffffffffffff163373ffffffffffffffffffffffffffffffffffffffff1614151561107857600080fd5b6000809054906101000a900473ffffffffffffffffffffffffffffffffffffffff1673ffffffffffffffffffffffffffffffffffffffff167ff8df31144d9c2f0f6b59d69b8b98abd5459d07f2742c4df920b25aae33c6482060405160405180910390a260008060006101000a81548173ffffffffffffffffffffffffffffffffffffffff021916908373ffffffffffffffffffffffffffffffffffffffff160217905550565b6000806000806000806000806000806000600360008d815260200190815260200160002060010160009054906101000a900473ffffffffffffffffffffffffffffffffffffffff169450600360008d815260200190815260200160002060000160009054906101000a900473ffffffffffffffffffffffffffffffffffffffff169350600360008d8152602001908152602001600020600501549250600360008d815260200190815260200160002060060160009054906101000a900460ff1660068111156111ea57fe5b9150600360008d81526020019081526020016000206007015490508b85858585859a509a509a509a509a509a50505050505091939550919395565b6000600154905090565b600660009054906101000a900473ffffffffffffffffffffffffffffffffffffffff1681565b6000806003600085815260200190815260200160002060010160009054906101000a900473ffffffffffffffffffffffffffffffffffffffff1691506003600085815260200190815260200160002060060160019054906101000a900460ff1680156112e157506003600085815260200190815260200160002060060160029054906101000a900460ff165b156116f25782600360008681526020019081526020016000206007018190555060066003600086815260200190815260200160002060060160006101000a81548160ff0219169083600681111561133457fe5b0217905550600760009054906101000a900473ffffffffffffffffffffffffffffffffffffffff1690508073ffffffffffffffffffffffffffffffffffffffff16639db11c4083856040518363ffffffff167c0100000000000000000000000000000000000000000000000000000000028152600401808373ffffffffffffffffffffffffffffffffffffffff1673ffffffffffffffffffffffffffffffffffffffff16815260200182815260200192505050600060405180830381600087803b15801561140157600080fd5b505af1158015611415573d6000803e3d6000fd5b505050507f1ad760d5e1420fded13c2c3d603a5e9348dc872856e6bbd78ad1603fd8c80873846003600087815260200190815260200160002060010160009054906101000a900473ffffffffffffffffffffffffffffffffffffffff166003600088815260200190815260200160002060000160009054906101000a900473ffffffffffffffffffffffffffffffffffffffff1660036000898152602001908152602001600020600201600360008a8152602001908152602001600020600301600360008b815260200190815260200160002060050154600360008c815260200190815260200160002060060160009054906101000a900460ff16600681111561151b57fe5b600180600360008f815260200190815260200160002060070154604051808b81526020018a73ffffffffffffffffffffffffffffffffffffffff1673ffffffffffffffffffffffffffffffffffffffff1681526020018973ffffffffffffffffffffffffffffffffffffffff1673ffffffffffffffffffffffffffffffffffffffff1681526020018060200180602001888152602001878152602001861515151581526020018515151515815260200184815260200183810383528a8181546001816001161561010002031660029004815260200191508054600181600116156101000203166002900480156116525780601f1061162757610100808354040283529160200191611652565b820191906000526020600020905b81548152906001019060200180831161163557829003601f168201915b50508381038252898181546001816001161561010002031660029004815260200191508054600181600116156101000203166002900480156116d55780601f106116aa576101008083540402835291602001916116d5565b820191906000526020600020905b8154815290600101906020018083116116b857829003601f168201915b50509c5050505050505050505050505060405180910390a1611760565b6040517f08c379a00000000000000000000000000000000000000000000000000000000081526004018080602001828103825260058152602001807f4572726f7200000000000000000000000000000000000000000000000000000081525060200191505060405180910390fd5b50505050565b6000806003600084815260200190815260200160002060010160009054906101000a900473ffffffffffffffffffffffffffffffffffffffff1691506003600084815260200190815260200160002060000160009054906101000a900473ffffffffffffffffffffffffffffffffffffffff1690508173ffffffffffffffffffffffffffffffffffffffff163373ffffffffffffffffffffffffffffffffffffffff161415611b685760056003600085815260200190815260200160002060060160006101000a81548160ff0219169083600681111561184257fe5b02179055508073ffffffffffffffffffffffffffffffffffffffff166108fc60036000868152602001908152602001600020600501549081150290604051600060405180830381858888f193505050501580156118a3573d6000803e3d6000fd5b507f1ad760d5e1420fded13c2c3d603a5e9348dc872856e6bbd78ad1603fd8c80873836003600086815260200190815260200160002060010160009054906101000a900473ffffffffffffffffffffffffffffffffffffffff166003600087815260200190815260200160002060000160009054906101000a900473ffffffffffffffffffffffffffffffffffffffff166003600088815260200190815260200160002060020160036000898152602001908152602001600020600301600360008a815260200190815260200160002060050154600360008b815260200190815260200160002060060160009054906101000a900460ff1660068111156119a657fe5b6000806000604051808b81526020018a73ffffffffffffffffffffffffffffffffffffffff1673ffffffffffffffffffffffffffffffffffffffff1681526020018973ffffffffffffffffffffffffffffffffffffffff1673ffffffffffffffffffffffffffffffffffffffff1681526020018060200180602001888152602001878152602001861515151581526020018515151515815260200184815260200183810383528a818154600181600116156101000203166002900481526020019150805460018160011615610100020316600290048015611ac85780601f10611a9d57610100808354040283529160200191611ac8565b820191906000526020600020905b815481529060010190602001808311611aab57829003601f168201915b5050838103825289818154600181600116156101000203166002900481526020019150805460018160011615610100020316600290048015611b4b5780601f10611b2057610100808354040283529160200191611b4b565b820191906000526020600020905b815481529060010190602001808311611b2e57829003601f168201915b50509c5050505050505050505050505060405180910390a1611f6d565b8073ffffffffffffffffffffffffffffffffffffffff163373ffffffffffffffffffffffffffffffffffffffff161415611f6c5760056003600085815260200190815260200160002060060160006101000a81548160ff02191690836006811115611bcf57fe5b02179055508073ffffffffffffffffffffffffffffffffffffffff166108fc6064605f600360008881526020019081526020016000206005015402811515611c1357fe5b049081150290604051600060405180830381858888f19350505050158015611c3f573d6000803e3d6000fd5b508173ffffffffffffffffffffffffffffffffffffffff166108fc60646005600360008881526020019081526020016000206005015402811515611c7f57fe5b049081150290604051600060405180830381858888f19350505050158015611cab573d6000803e3d6000fd5b507f1ad760d5e1420fded13c2c3d603a5e9348dc872856e6bbd78ad1603fd8c80873836003600086815260200190815260200160002060010160009054906101000a900473ffffffffffffffffffffffffffffffffffffffff166003600087815260200190815260200160002060000160009054906101000a900473ffffffffffffffffffffffffffffffffffffffff166003600088815260200190815260200160002060020160036000898152602001908152602001600020600301600360008a815260200190815260200160002060050154600360008b815260200190815260200160002060060160009054906101000a900460ff166006811115611dae57fe5b6000806000604051808b81526020018a73ffffffffffffffffffffffffffffffffffffffff1673ffffffffffffffffffffffffffffffffffffffff1681526020018973ffffffffffffffffffffffffffffffffffffffff1673ffffffffffffffffffffffffffffffffffffffff1681526020018060200180602001888152602001878152602001861515151581526020018515151515815260200184815260200183810383528a818154600181600116156101000203166002900481526020019150805460018160011615610100020316600290048015611ed05780601f10611ea557610100808354040283529160200191611ed0565b820191906000526020600020905b815481529060010190602001808311611eb357829003601f168201915b5050838103825289818154600181600116156101000203166002900481526020019150805460018160011615610100020316600290048015611f535780601f10611f2857610100808354040283529160200191611f53565b820191906000526020600020905b815481529060010190602001808311611f3657829003601f168201915b50509c5050505050505050505050505060405180910390a15b5b505050565b6060600060036000848152602001908152602001600020905060016006811115611f9857fe5b8160060160009054906101000a900460ff166006811115611fb557fe5b1415611ff8576040805190810160405280600981526020017f52657175657374656400000000000000000000000000000000000000000000008152509150612252565b6003600681111561200557fe5b8160060160009054906101000a900460ff16600681111561202257fe5b1415612065576040805190810160405280600b81526020017f496e2050726f67726573730000000000000000000000000000000000000000008152509150612252565b6000600681111561207257fe5b8160060160009054906101000a900460ff16600681111561208f57fe5b14156120d2576040805190810160405280600b81526020017f4e6f7420537461727465640000000000000000000000000000000000000000008152509150612252565b600460068111156120df57fe5b8160060160009054906101000a900460ff1660068111156120fc57fe5b141561213f576040805190810160405280600981526020017f436f6d706c6574656400000000000000000000000000000000000000000000008152509150612252565b6005600681111561214c57fe5b8160060160009054906101000a900460ff16600681111561216957fe5b14156121ac576040805190810160405280600981526020017f43616e63656c6c656400000000000000000000000000000000000000000000008152509150612252565b600260068111156121b957fe5b8160060160009054906101000a900460ff1660068111156121d657fe5b1415612219576040805190810160405280600481526020017f50616964000000000000000000000000000000000000000000000000000000008152509150612252565b6040805190810160405280601081526020017f63616e6e6f742066696e6420726964650000000000000000000000000000000081525091505b50919050565b60028181548110151561226757fe5b906000526020600020016000915054906101000a900473ffffffffffffffffffffffffffffffffffffffff1681565b6000809054906101000a900473ffffffffffffffffffffffffffffffffffffffff1673ffffffffffffffffffffffffffffffffffffffff163373ffffffffffffffffffffffffffffffffffffffff161415156122f157600080fd5b80600760006101000a81548173ffffffffffffffffffffffffffffffffffffffff021916908373ffffffffffffffffffffffffffffffffffffffff16021790555050565b6000806003600084815260200190815260200160002060010160009054906101000a900473ffffffffffffffffffffffffffffffffffffffff1691506003600084815260200190815260200160002060000160009054906101000a900473ffffffffffffffffffffffffffffffffffffffff1690508173ffffffffffffffffffffffffffffffffffffffff163373ffffffffffffffffffffffffffffffffffffffff1614801561240c5750600015156003600085815260200190815260200160002060060160019054906101000a900460ff161515145b156127495760016003600085815260200190815260200160002060060160016101000a81548160ff0219169083151502179055507f1ad760d5e1420fded13c2c3d603a5e9348dc872856e6bbd78ad1603fd8c80873836003600086815260200190815260200160002060010160009054906101000a900473ffffffffffffffffffffffffffffffffffffffff166003600087815260200190815260200160002060000160009054906101000a900473ffffffffffffffffffffffffffffffffffffffff166003600088815260200190815260200160002060020160036000898152602001908152602001600020600301600360008a815260200190815260200160002060050154600360008b815260200190815260200160002060060160009054906101000a900460ff16600681111561254257fe5b600360008c815260200190815260200160002060060160019054906101000a900460ff16600360008d815260200190815260200160002060060160029054906101000a900460ff166000604051808b81526020018a73ffffffffffffffffffffffffffffffffffffffff1673ffffffffffffffffffffffffffffffffffffffff1681526020018973ffffffffffffffffffffffffffffffffffffffff1673ffffffffffffffffffffffffffffffffffffffff1681526020018060200180602001888152602001878152602001861515151581526020018515151515815260200184815260200183810383528a8181546001816001161561010002031660029004815260200191508054600181600116156101000203166002900480156126a95780601f1061267e576101008083540402835291602001916126a9565b820191906000526020600020905b81548152906001019060200180831161268c57829003601f168201915b505083810382528981815460018160011615610100020316600290048152602001915080546001816001161561010002031660029004801561272c5780601f106127015761010080835404028352916020019161272c565b820191906000526020600020905b81548152906001019060200180831161270f57829003601f168201915b50509c5050505050505050505050505060405180910390a1612b57565b8073ffffffffffffffffffffffffffffffffffffffff163373ffffffffffffffffffffffffffffffffffffffff161480156127ab5750600015156003600085815260200190815260200160002060060160029054906101000a900460ff161515145b15612ae85760016003600085815260200190815260200160002060060160026101000a81548160ff0219169083151502179055507f1ad760d5e1420fded13c2c3d603a5e9348dc872856e6bbd78ad1603fd8c80873836003600086815260200190815260200160002060010160009054906101000a900473ffffffffffffffffffffffffffffffffffffffff166003600087815260200190815260200160002060000160009054906101000a900473ffffffffffffffffffffffffffffffffffffffff166003600088815260200190815260200160002060020160036000898152602001908152602001600020600301600360008a815260200190815260200160002060050154600360008b815260200190815260200160002060060160009054906101000a900460ff1660068111156128e157fe5b600360008c815260200190815260200160002060060160019054906101000a900460ff16600360008d815260200190815260200160002060060160029054906101000a900460ff166000604051808b81526020018a73ffffffffffffffffffffffffffffffffffffffff1673ffffffffffffffffffffffffffffffffffffffff1681526020018973ffffffffffffffffffffffffffffffffffffffff1673ffffffffffffffffffffffffffffffffffffffff1681526020018060200180602001888152602001878152602001861515151581526020018515151515815260200184815260200183810383528a818154600181600116156101000203166002900481526020019150805460018160011615610100020316600290048015612a485780601f10612a1d57610100808354040283529160200191612a48565b820191906000526020600020905b815481529060010190602001808311612a2b57829003601f168201915b5050838103825289818154600181600116156101000203166002900481526020019150805460018160011615610100020316600290048015612acb5780601f10612aa057610100808354040283529160200191612acb565b820191906000526020600020905b815481529060010190602001808311612aae57829003601f168201915b50509c5050505050505050505050505060405180910390a1612b56565b6040517f08c379a00000000000000000000000000000000000000000000000000000000081526004018080602001828103825260058152602001807f576f6f707300000000000000000000000000000000000000000000000000000081525060200191505060405180910390fd5b5b6003600084815260200190815260200160002060060160019054906101000a900460ff168015612ba757506003600084815260200190815260200160002060060160029054906101000a900460ff165b15612f01578173ffffffffffffffffffffffffffffffffffffffff166108fc60036000868152602001908152602001600020600501549081150290604051600060405180830381858888f19350505050158015612c08573d6000803e3d6000fd5b5060046003600085815260200190815260200160002060060160006101000a81548160ff02191690836006811115612c3c57fe5b02179055507f1ad760d5e1420fded13c2c3d603a5e9348dc872856e6bbd78ad1603fd8c80873836003600086815260200190815260200160002060010160009054906101000a900473ffffffffffffffffffffffffffffffffffffffff166003600087815260200190815260200160002060000160009054906101000a900473ffffffffffffffffffffffffffffffffffffffff166003600088815260200190815260200160002060020160036000898152602001908152602001600020600301600360008a815260200190815260200160002060050154600360008b815260200190815260200160002060060160009054906101000a900460ff166006811115612d4357fe5b6001806000604051808b81526020018a73ffffffffffffffffffffffffffffffffffffffff1673ffffffffffffffffffffffffffffffffffffffff1681526020018973ffffffffffffffffffffffffffffffffffffffff1673ffffffffffffffffffffffffffffffffffffffff1681526020018060200180602001888152602001878152602001861515151581526020018515151515815260200184815260200183810383528a818154600181600116156101000203166002900481526020019150805460018160011615610100020316600290048015612e655780601f10612e3a57610100808354040283529160200191612e65565b820191906000526020600020905b815481529060010190602001808311612e4857829003601f168201915b5050838103825289818154600181600116156101000203166002900481526020019150805460018160011615610100020316600290048015612ee85780601f10612ebd57610100808354040283529160200191612ee8565b820191906000526020600020905b815481529060010190602001808311612ecb57829003601f168201915b50509c5050505050505050505050505060405180910390a15b505050565b6000806000806000600760009054906101000a900473ffffffffffffffffffffffffffffffffffffffff1694508473ffffffffffffffffffffffffffffffffffffffff16634209fff18a6040518263ffffffff167c0100000000000000000000000000000000000000000000000000000000028152600401808273ffffffffffffffffffffffffffffffffffffffff1673ffffffffffffffffffffffffffffffffffffffff168152602001915050602060405180830381600087803b158015612fce57600080fd5b505af1158015612fe2573d6000803e3d6000fd5b505050506040513d6020811015612ff857600080fd5b8101908080519060200190929190505050935083156133e257600160008154809291906001019190505550600154925033915061303786600554613bf5565b9050610140604051908101604052808373ffffffffffffffffffffffffffffffffffffffff1681526020018a73ffffffffffffffffffffffffffffffffffffffff168152602001898152602001888152602001878152602001828152602001600160068111156130a357fe5b815260200160001515815260200160001515815260200160008152506003600085815260200190815260200160002060008201518160000160006101000a81548173ffffffffffffffffffffffffffffffffffffffff021916908373ffffffffffffffffffffffffffffffffffffffff16021790555060208201518160010160006101000a81548173ffffffffffffffffffffffffffffffffffffffff021916908373ffffffffffffffffffffffffffffffffffffffff160217905550604082015181600201908051906020019061317c929190613d27565b506060820151816003019080519060200190613199929190613d27565b506080820151816004015560a0820151816005015560c08201518160060160006101000a81548160ff021916908360068111156131d257fe5b021790555060e08201518160060160016101000a81548160ff0219169083151502179055506101008201518160060160026101000a81548160ff02191690831515021790555061012082015181600701559050507f1ad760d5e1420fded13c2c3d603a5e9348dc872856e6bbd78ad1603fd8c80873838a848b8b866001600681111561325a57fe5b6000806000604051808b81526020018a73ffffffffffffffffffffffffffffffffffffffff1673ffffffffffffffffffffffffffffffffffffffff1681526020018973ffffffffffffffffffffffffffffffffffffffff1673ffffffffffffffffffffffffffffffffffffffff1681526020018060200180602001888152602001878152602001861515151581526020018515151515815260200184815260200183810383528a818151815260200191508051906020019080838360005b83811015613333578082015181840152602081019050613318565b50505050905090810190601f1680156133605780820380516001836020036101000a031916815260200191505b50838103825289818151815260200191508051906020019080838360005b8381101561339957808201518184015260208101905061337e565b50505050905090810190601f1680156133c65780820380516001836020036101000a031916815260200191505b509c5050505050505050505050505060405180910390a1613450565b6040517f08c379a00000000000000000000000000000000000000000000000000000000081526004018080602001828103825260158152602001807f44726976657220646f6573206e6f74206578697374000000000000000000000081525060200191505060405180910390fd5b505050505050505050565b606080606080600360008681526020019081526020016000206002018054600181600116156101000203166002900480601f01602080910402602001604051908101604052809291908181526020018280546001816001161561010002031660029004801561350b5780601f106134e05761010080835404028352916020019161350b565b820191906000526020600020905b8154815290600101906020018083116134ee57829003601f168201915b50505050509150600360008681526020019081526020016000206003018054600181600116156101000203166002900480601f0160208091040260200160405190810160405280929190818152602001828054600181600116156101000203166002900480156135bc5780601f10613591576101008083540402835291602001916135bc565b820191906000526020600020905b81548152906001019060200180831161359f57829003601f168201915b505050505090508181935093505050915091565b6000809054906101000a900473ffffffffffffffffffffffffffffffffffffffff1673ffffffffffffffffffffffffffffffffffffffff163373ffffffffffffffffffffffffffffffffffffffff1614151561362b57600080fd5b806005819055507f8c4d35e54a3f2ef1134138fd8ea3daee6a3c89e10d2665996babdf70261e2c76816040518082815260200191505060405180910390a150565b6002600681111561367957fe5b6003600083815260200190815260200160002060060160009054906101000a900460ff1660068111156136a857fe5b14151561371d576040517f08c379a000000000000000000000000000000000000000000000000000000000815260040180806020018281038252601e8152602001807f5269646520686173206e6f74206265656e207061696420666f7220796574000081525060200191505060405180910390fd5b6003600082815260200190815260200160002060010160009054906101000a900473ffffffffffffffffffffffffffffffffffffffff1673ffffffffffffffffffffffffffffffffffffffff163373ffffffffffffffffffffffffffffffffffffffff161415613a8257600380600083815260200190815260200160002060060160006101000a81548160ff021916908360068111156137b957fe5b02179055507f1ad760d5e1420fded13c2c3d603a5e9348dc872856e6bbd78ad1603fd8c80873816003600084815260200190815260200160002060010160009054906101000a900473ffffffffffffffffffffffffffffffffffffffff166003600085815260200190815260200160002060000160009054906101000a900473ffffffffffffffffffffffffffffffffffffffff16600360008681526020019081526020016000206002016003600087815260200190815260200160002060030160036000888152602001908152602001600020600501546003600089815260200190815260200160002060060160009054906101000a900460ff1660068111156138c057fe5b6000806000604051808b81526020018a73ffffffffffffffffffffffffffffffffffffffff1673ffffffffffffffffffffffffffffffffffffffff1681526020018973ffffffffffffffffffffffffffffffffffffffff1673ffffffffffffffffffffffffffffffffffffffff1681526020018060200180602001888152602001878152602001861515151581526020018515151515815260200184815260200183810383528a8181546001816001161561010002031660029004815260200191508054600181600116156101000203166002900480156139e25780601f106139b7576101008083540402835291602001916139e2565b820191906000526020600020905b8154815290600101906020018083116139c557829003601f168201915b5050838103825289818154600181600116156101000203166002900481526020019150805460018160011615610100020316600290048015613a655780601f10613a3a57610100808354040283529160200191613a65565b820191906000526020600020905b815481529060010190602001808311613a4857829003601f168201915b50509c5050505050505050505050505060405180910390a1613af0565b6040517f08c379a000000000000000000000000000000000000000000000000000000000815260040180806020018281038252600a8152602001807f4e6f74206472697665720000000000000000000000000000000000000000000081525060200191505060405180910390fd5b50565b60606002805480602002602001604051908101604052809291908181526020018280548015613b7757602002820191906000526020600020905b8160009054906101000a900473ffffffffffffffffffffffffffffffffffffffff1673ffffffffffffffffffffffffffffffffffffffff1681526020019060010190808311613b2d575b5050505050905090565b6000809054906101000a900473ffffffffffffffffffffffffffffffffffffffff1673ffffffffffffffffffffffffffffffffffffffff163373ffffffffffffffffffffffffffffffffffffffff16141515613bdc57600080fd5b613be581613c2d565b50565b6000600280549050905090565b600080831415613c085760009050613c27565b8183029050818382811515613c1957fe5b04141515613c2357fe5b8090505b92915050565b600073ffffffffffffffffffffffffffffffffffffffff168173ffffffffffffffffffffffffffffffffffffffff1614151515613c6957600080fd5b8073ffffffffffffffffffffffffffffffffffffffff166000809054906101000a900473ffffffffffffffffffffffffffffffffffffffff1673ffffffffffffffffffffffffffffffffffffffff167f8be0079c531659141344cd1fd0a4f28419497f9722a3daafe3b4186f6b6457e060405160405180910390a3806000806101000a81548173ffffffffffffffffffffffffffffffffffffffff021916908373ffffffffffffffffffffffffffffffffffffffff16021790555050565b828054600181600116156101000203166002900490600052602060002090601f016020900481019282601f10613d6857805160ff1916838001178555613d96565b82800160010185558215613d96579182015b82811115613d95578251825591602001919060010190613d7a565b5b509050613da39190613da7565b5090565b613dc991905b80821115613dc5576000816000905550600101613dad565b5090565b905600a165627a7a7230582011ea2be7db453f4b8b4bef5ce57db13571896a2971849be1f493848fd1cd6a220029",
  "source": "pragma solidity ^0.4.24;\r\n\r\nimport \"node_modules/openzeppelin-solidity/contracts/math/SafeMath.sol\";\r\nimport \"node_modules/openzeppelin-solidity/contracts/token/ERC20/ERC20.sol\";\r\nimport \"node_modules/openzeppelin-solidity/contracts/token/ERC20/ERC20Basic.sol\";\r\nimport \"node_modules/openzeppelin-solidity/contracts/token/ERC20/BasicToken.sol\";\r\nimport \"contracts/Ownable.sol\";\r\nimport \"contracts/Drivers.sol\";\r\n\r\ncontract Uber_TCR is Ownable{\r\n    \r\n    using SafeMath for uint;\r\n    enum RideStatus {NotStarted, Requested, Paid, InProgress, Completed, Cancelled, Rated}\r\n    \r\n    event RideEvent(uint rideId, address driver, address rider, string pickup, string dropoff, uint rideValue, uint status, bool CmD, bool CmR, \r\n    uint rating);\r\n    event RideComplete(uint indexed rideId, address indexed driver, address indexed rider, uint rideValue);\r\n    event RidePaid(uint indexed rideId, uint status);\r\n    event FeeUpdated(uint newFee);\r\n    \r\n    struct Ride{\r\n        address  rider; \r\n        address  driver;\r\n        string pickUpLocation;\r\n        string dropOffLocation;\r\n        uint  distance;\r\n        uint256  rideValue;        \r\n        RideStatus status;\r\n        bool rideCompleteDriver;\r\n        bool rideCompleteRider;\r\n        uint driveRating;\r\n    }\r\n    uint private numberOfRides;\r\n    address[] public listDrivers; \r\n    mapping(uint => Ride) public rides;\r\n    uint private contractAmount;\r\n    uint public feePerKM = 0.001 ether;\r\n    address public owner; \r\n    address private driverContract = 0xf25186b5081ff5ce73482ad761db0eb0d25abfbf;\r\n\r\n    constructor() public{\r\n        owner = msg.sender;\r\n    }\r\n\r\n    modifier isDriver(address _driverAddress){\r\n        Drivers driver = Drivers(driverContract);\r\n        bool isIndeed = driver.isUser(_driverAddress);\r\n        require(isIndeed, \"Only the uber contract can call this funciton\");\r\n        _;\r\n    }\r\n\r\n    function setdriverContract(address _contract) onlyOwner public{\r\n        driverContract = _contract;\r\n    }\r\n        \r\n    function setRideFee(uint256 _newFee) onlyOwner public{\r\n        feePerKM = _newFee;\r\n        emit FeeUpdated(_newFee);\r\n    }\r\n\r\n    function numOfDrivers() public view returns(uint256){\r\n        return listDrivers.length;\r\n    }\r\n    \r\n    function getAllDriver() public view returns(address[]){\r\n        return listDrivers;\r\n    }\r\n    \r\n    function getRideCount() public view returns(uint){\r\n        return numberOfRides;\r\n    }\r\n\r\n    function getRide(uint _rideId) public view returns(uint, address, address,uint, uint,uint)\r\n    {        \r\n        address driver = rides[_rideId].driver;\r\n        address rider = rides[_rideId].rider;\r\n        uint value = rides[_rideId].rideValue;\r\n        uint status = uint(rides[_rideId].status);\r\n        uint rating = uint(rides[_rideId].driveRating);\r\n        return(_rideId, driver, rider, value, status, rating);\r\n    }\r\n    function getRideLocationDetails(uint _rideId) public view returns(string, string){\r\n        string memory pickup = rides[_rideId].pickUpLocation;\r\n        string memory droppOff = rides[_rideId].dropOffLocation;\r\n        return(pickup, droppOff);\r\n    }\r\n    function requestRide(address _driver, string _pickUpLocation, string _dropOffLocation, uint _distance) public {\r\n        Drivers driver = Drivers(driverContract);\r\n        bool isIndeed = driver.isUser(_driver);\r\n        if(isIndeed){\r\n            numberOfRides++;\r\n            uint _rideId = numberOfRides;\r\n            address _rider = msg.sender;\r\n            uint256 _rideValue = SafeMath.mul(_distance, feePerKM);\r\n            rides[_rideId] = Ride(_rider, _driver, _pickUpLocation, _dropOffLocation, _distance, _rideValue, RideStatus.Requested, false, false, 0);\r\n            emit RideEvent(_rideId, _driver, _rider, _pickUpLocation, _dropOffLocation, _rideValue, uint(RideStatus.Requested), false, false, 0);\r\n        }\r\n        else{\r\n            revert(\"Driver does not exist\");\r\n        }\r\n        \r\n    }\r\n\r\n    function payForRide(uint _rideId) public payable{\r\n        \r\n        require(rides[_rideId].status == RideStatus.Requested, \"Ride not in the correct state\");\r\n        \r\n        contractAmount+= msg.value;\r\n        if(msg.sender == rides[_rideId].rider) {\r\n            if(msg.value == rides[_rideId].rideValue)\r\n            {\r\n                rides[_rideId].status = RideStatus.Paid;\r\n                emit RideEvent(_rideId, rides[_rideId].driver, rides[_rideId].rider, rides[_rideId].pickUpLocation, rides[_rideId].dropOffLocation, rides[_rideId].rideValue, uint(rides[_rideId].status), false, false, 0);\r\n            }\r\n            else{\r\n                revert(\"Incorrect Amount\");\r\n            }\r\n        }  \r\n    }\r\n\r\n    function startRide(uint _rideId) public {\r\n        require(rides[_rideId].status == RideStatus.Paid, \"Ride has not been paid for yet\");\r\n        if(msg.sender == rides[_rideId].driver)\r\n        {\r\n            rides[_rideId].status = RideStatus.InProgress;\r\n            emit RideEvent(_rideId, rides[_rideId].driver, rides[_rideId].rider, rides[_rideId].pickUpLocation, rides[_rideId].dropOffLocation, rides[_rideId].rideValue, uint(rides[_rideId].status), false, false, 0);\r\n\r\n        }else{\r\n            revert(\"Not driver\");\r\n        }\r\n    }\r\n    \r\n    function cancelRide(uint _rideId) public{\r\n        address _driver = rides[_rideId].driver;\r\n        address _rider = rides[_rideId].rider;\r\n\r\n        if(msg.sender == _driver)\r\n        {\r\n            rides[_rideId].status = RideStatus.Cancelled;\r\n            _rider.transfer(rides[_rideId].rideValue);\r\n            emit RideEvent(_rideId, rides[_rideId].driver, rides[_rideId].rider, rides[_rideId].pickUpLocation, rides[_rideId].dropOffLocation, rides[_rideId].rideValue, uint(rides[_rideId].status), false, false, 0);\r\n\r\n        }else if(msg.sender == _rider)\r\n        {\r\n            rides[_rideId].status = RideStatus.Cancelled;\r\n            _rider.transfer(rides[_rideId].rideValue * 95 / 100);\r\n            //pay pentatly for cancellings\r\n            _driver.transfer(rides[_rideId].rideValue * 5 / 100);\r\n            emit RideEvent(_rideId, rides[_rideId].driver, rides[_rideId].rider, rides[_rideId].pickUpLocation, rides[_rideId].dropOffLocation, rides[_rideId].rideValue, uint(rides[_rideId].status),false, false, 0);\r\n\r\n        }\r\n    }\r\n\r\n    function completeRide(uint _rideId) public{\r\n        \r\n        \r\n        address _driver = rides[_rideId].driver;\r\n        address _rider = rides[_rideId].rider;\r\n\r\n        if(msg.sender == _driver && rides[_rideId].rideCompleteDriver == false)\r\n        {\r\n            rides[_rideId].rideCompleteDriver = true;        \r\n            emit RideEvent(_rideId, rides[_rideId].driver, rides[_rideId].rider, rides[_rideId].pickUpLocation, rides[_rideId].dropOffLocation, rides[_rideId].rideValue, uint(rides[_rideId].status), rides[_rideId].rideCompleteDriver, rides[_rideId].rideCompleteRider, 0);\r\n\r\n        }else if(msg.sender == _rider && rides[_rideId].rideCompleteRider == false)\r\n        {\r\n            rides[_rideId].rideCompleteRider = true;                        \r\n            emit RideEvent(_rideId, rides[_rideId].driver, rides[_rideId].rider, rides[_rideId].pickUpLocation, rides[_rideId].dropOffLocation, rides[_rideId].rideValue, uint(rides[_rideId].status), rides[_rideId].rideCompleteDriver, rides[_rideId].rideCompleteRider, 0);\r\n        }\r\n        else{\r\n            revert(\"Woops\");\r\n        }\r\n\r\n        if(rides[_rideId].rideCompleteDriver && rides[_rideId].rideCompleteRider)\r\n        {\r\n            _driver.transfer(rides[_rideId].rideValue);        \r\n            rides[_rideId].status = RideStatus.Completed;   \r\n            emit RideEvent(_rideId, rides[_rideId].driver, rides[_rideId].rider, rides[_rideId].pickUpLocation, rides[_rideId].dropOffLocation, rides[_rideId].rideValue, uint(rides[_rideId].status), true, true, 0);\r\n        }\r\n    }\r\n\r\n    function rateRide(uint _rideId, uint _rating) public{\r\n        address _driver = rides[_rideId].driver;        \r\n        if(rides[_rideId].rideCompleteDriver && rides[_rideId].rideCompleteRider){\r\n            rides[_rideId].driveRating = _rating;\r\n            rides[_rideId].status = RideStatus.Rated;   \r\n            Drivers driver = Drivers(driverContract);\r\n            driver.rateDriver(_driver, _rating);\r\n            emit RideEvent(_rideId, rides[_rideId].driver, rides[_rideId].rider, rides[_rideId].pickUpLocation, rides[_rideId].dropOffLocation, rides[_rideId].rideValue, uint(rides[_rideId].status), true,true, rides[_rideId].driveRating);\r\n        }else\r\n        {\r\n            revert(\"Error\");\r\n        }\r\n            \r\n\r\n    }\r\n\r\n    function statusOfRide(uint _rideId) public view returns(string){ \r\n        Ride storage ride = rides[_rideId];\r\n        \r\n        if(ride.status == RideStatus.Requested){\r\n            return \"Requested\";\r\n         }else if(ride.status == RideStatus.InProgress){\r\n            return \"In Progress\";\r\n         }else if(ride.status == RideStatus.NotStarted){\r\n            return \"Not Started\";\r\n         }else if(ride.status == RideStatus.Completed){\r\n            return \"Completed\";             \r\n         }else if(ride.status == RideStatus.Cancelled){\r\n            return \"Cancelled\"; \r\n         }else if(ride.status == RideStatus.Paid){\r\n            return \"Paid\"; \r\n         }\r\n         else\r\n         {\r\n            return \"cannot find ride\";\r\n         }\r\n    }\r\n}",
  "sourcePath": "C:\\Users\\Graham.Nelson\\Documents\\Blockchain\\Development\\SmartContractDev\\TCR_Uber\\contracts\\Uber.sol",
  "compiler": {
    "name": "solc",
    "version": "0.4.24+commit.e67f0147.Emscripten.clang"
  },
  "schemaVersion": "2.0.0",
  "updatedAt": "2018-07-04T12:09:50.054Z"
}