{
  "contractName": "Uber_TCR",
  "abi": [
    {
      "constant": true,
      "inputs": [],
      "name": "feePerKM",
      "outputs": [
        {
          "name": "",
          "type": "uint256"
        }
      ],
      "payable": false,
      "stateMutability": "view",
      "type": "function"
    },
    {
      "constant": true,
      "inputs": [
        {
          "name": "",
          "type": "uint256"
        }
      ],
      "name": "rides",
      "outputs": [
        {
          "name": "rider",
          "type": "address"
        },
        {
          "name": "driver",
          "type": "address"
        },
        {
          "name": "pickUpLocation",
          "type": "string"
        },
        {
          "name": "dropOffLocation",
          "type": "string"
        },
        {
          "name": "distance",
          "type": "uint256"
        },
        {
          "name": "rideValue",
          "type": "uint256"
        },
        {
          "name": "status",
          "type": "uint8"
        },
        {
          "name": "rideCompleteDriver",
          "type": "bool"
        },
        {
          "name": "rideCompleteRider",
          "type": "bool"
        }
      ],
      "payable": false,
      "stateMutability": "view",
      "type": "function"
    },
    {
      "constant": false,
      "inputs": [],
      "name": "renounceOwnership",
      "outputs": [],
      "payable": false,
      "stateMutability": "nonpayable",
      "type": "function"
    },
    {
      "constant": true,
      "inputs": [],
      "name": "owner",
      "outputs": [
        {
          "name": "",
          "type": "address"
        }
      ],
      "payable": false,
      "stateMutability": "view",
      "type": "function"
    },
    {
      "constant": true,
      "inputs": [
        {
          "name": "",
          "type": "uint256"
        }
      ],
      "name": "listDrivers",
      "outputs": [
        {
          "name": "",
          "type": "address"
        }
      ],
      "payable": false,
      "stateMutability": "view",
      "type": "function"
    },
    {
      "constant": false,
      "inputs": [
        {
          "name": "_newOwner",
          "type": "address"
        }
      ],
      "name": "transferOwnership",
      "outputs": [],
      "payable": false,
      "stateMutability": "nonpayable",
      "type": "function"
    },
    {
      "anonymous": false,
      "inputs": [
        {
          "indexed": true,
          "name": "rideId",
          "type": "uint256"
        },
        {
          "indexed": true,
          "name": "driver",
          "type": "address"
        },
        {
          "indexed": true,
          "name": "rider",
          "type": "address"
        },
        {
          "indexed": false,
          "name": "rideValue",
          "type": "uint256"
        }
      ],
      "name": "RideCreation",
      "type": "event"
    },
    {
      "anonymous": false,
      "inputs": [
        {
          "indexed": true,
          "name": "rideId",
          "type": "uint256"
        },
        {
          "indexed": true,
          "name": "driver",
          "type": "address"
        },
        {
          "indexed": true,
          "name": "rider",
          "type": "address"
        },
        {
          "indexed": false,
          "name": "rideValue",
          "type": "uint256"
        }
      ],
      "name": "RideComplete",
      "type": "event"
    },
    {
      "anonymous": false,
      "inputs": [
        {
          "indexed": true,
          "name": "rideId",
          "type": "uint256"
        },
        {
          "indexed": false,
          "name": "rider",
          "type": "address"
        }
      ],
      "name": "RidePaid",
      "type": "event"
    },
    {
      "anonymous": false,
      "inputs": [
        {
          "indexed": true,
          "name": "previousOwner",
          "type": "address"
        }
      ],
      "name": "OwnershipRenounced",
      "type": "event"
    },
    {
      "anonymous": false,
      "inputs": [
        {
          "indexed": true,
          "name": "previousOwner",
          "type": "address"
        },
        {
          "indexed": true,
          "name": "newOwner",
          "type": "address"
        }
      ],
      "name": "OwnershipTransferred",
      "type": "event"
    },
    {
      "constant": false,
      "inputs": [
        {
          "name": "_newFee",
          "type": "uint256"
        }
      ],
      "name": "setRideFee",
      "outputs": [],
      "payable": false,
      "stateMutability": "nonpayable",
      "type": "function"
    },
    {
      "constant": false,
      "inputs": [
        {
          "name": "_driver",
          "type": "address"
        },
        {
          "name": "_pickUpLocation",
          "type": "string"
        },
        {
          "name": "_dropOffLocation",
          "type": "string"
        },
        {
          "name": "_distance",
          "type": "uint256"
        }
      ],
      "name": "requestRide",
      "outputs": [],
      "payable": false,
      "stateMutability": "nonpayable",
      "type": "function"
    },
    {
      "constant": false,
      "inputs": [
        {
          "name": "_rideId",
          "type": "uint256"
        }
      ],
      "name": "payForRide",
      "outputs": [],
      "payable": true,
      "stateMutability": "payable",
      "type": "function"
    },
    {
      "constant": false,
      "inputs": [
        {
          "name": "_rideId",
          "type": "uint256"
        }
      ],
      "name": "startRide",
      "outputs": [],
      "payable": false,
      "stateMutability": "nonpayable",
      "type": "function"
    },
    {
      "constant": false,
      "inputs": [
        {
          "name": "_rideId",
          "type": "uint256"
        }
      ],
      "name": "cancelRide",
      "outputs": [],
      "payable": false,
      "stateMutability": "nonpayable",
      "type": "function"
    },
    {
      "constant": false,
      "inputs": [
        {
          "name": "_rideId",
          "type": "uint256"
        }
      ],
      "name": "completeRide",
      "outputs": [],
      "payable": false,
      "stateMutability": "nonpayable",
      "type": "function"
    },
    {
      "constant": true,
      "inputs": [
        {
          "name": "_rideId",
          "type": "uint256"
        }
      ],
      "name": "statusOfRide",
      "outputs": [
        {
          "name": "",
          "type": "string"
        }
      ],
      "payable": false,
      "stateMutability": "view",
      "type": "function"
    }
  ],
  "bytecode": "0x608060405266038d7ea4c68000600555336000806101000a81548173ffffffffffffffffffffffffffffffffffffffff021916908373ffffffffffffffffffffffffffffffffffffffff160217905550611aed8061005e6000396000f3006080604052600436106100c5576000357c0100000000000000000000000000000000000000000000000000000000900463ffffffff16806309c181c5146100ca5780630df39bb1146100f55780635205f11214610115578063715018a6146102c65780638da5cb5b146102dd578063a6f07b2914610334578063b585d9ce14610361578063b71cea8a14610407578063c416dd0b14610474578063c6795651146104a1578063dcaeaec11461057a578063e9c14b1e146105a7578063f2fde38b146105d4575b600080fd5b3480156100d657600080fd5b506100df610617565b6040518082815260200191505060405180910390f35b6101136004803603810190808035906020019092919050505061061d565b005b34801561012157600080fd5b5061014060048036038101908080359060200190929190505050610879565b604051808a73ffffffffffffffffffffffffffffffffffffffff1673ffffffffffffffffffffffffffffffffffffffff1681526020018973ffffffffffffffffffffffffffffffffffffffff1673ffffffffffffffffffffffffffffffffffffffff16815260200180602001806020018881526020018781526020018660058111156101c857fe5b60ff168152602001851515151581526020018415151515815260200183810383528a818151815260200191508051906020019080838360005b8381101561021c578082015181840152602081019050610201565b50505050905090810190601f1680156102495780820380516001836020036101000a031916815260200191505b50838103825289818151815260200191508051906020019080838360005b83811015610282578082015181840152602081019050610267565b50505050905090810190601f1680156102af5780820380516001836020036101000a031916815260200191505b509b50505050505050505050505060405180910390f35b3480156102d257600080fd5b506102db610a5e565b005b3480156102e957600080fd5b506102f2610b60565b604051808273ffffffffffffffffffffffffffffffffffffffff1673ffffffffffffffffffffffffffffffffffffffff16815260200191505060405180910390f35b34801561034057600080fd5b5061035f60048036038101908080359060200190929190505050610b85565b005b34801561036d57600080fd5b5061038c60048036038101908080359060200190929190505050610e13565b6040518080602001828103825283818151815260200191508051906020019080838360005b838110156103cc5780820151818401526020810190506103b1565b50505050905090810190601f1680156103f95780820380516001836020036101000a031916815260200191505b509250505060405180910390f35b34801561041357600080fd5b50610432600480360381019080803590602001909291905050506110f8565b604051808273ffffffffffffffffffffffffffffffffffffffff1673ffffffffffffffffffffffffffffffffffffffff16815260200191505060405180910390f35b34801561048057600080fd5b5061049f60048036038101908080359060200190929190505050611136565b005b3480156104ad57600080fd5b50610578600480360381019080803573ffffffffffffffffffffffffffffffffffffffff169060200190929190803590602001908201803590602001908080601f0160208091040260200160405190810160405280939291908181526020018383808284378201915050505050509192919290803590602001908201803590602001908080601f0160208091040260200160405190810160405280939291908181526020018383808284378201915050505050509192919290803590602001909291905050506113e3565b005b34801561058657600080fd5b506105a560048036038101908080359060200190929190505050611656565b005b3480156105b357600080fd5b506105d2600480360381019080803590602001909291905050506116bb565b005b3480156105e057600080fd5b50610615600480360381019080803573ffffffffffffffffffffffffffffffffffffffff169060200190929190505050611883565b005b60055481565b6001600581111561062a57fe5b6003600083815260200190815260200160002060060160009054906101000a900460ff16600581111561065957fe5b1415156106ce576040517f08c379a000000000000000000000000000000000000000000000000000000000815260040180806020018281038252601d8152602001807f52696465206e6f7420696e2074686520636f727265637420737461746500000081525060200191505060405180910390fd5b346004600082825401925050819055506003600082815260200190815260200160002060000160009054906101000a900473ffffffffffffffffffffffffffffffffffffffff1673ffffffffffffffffffffffffffffffffffffffff163373ffffffffffffffffffffffffffffffffffffffff1614156108765760036000828152602001908152602001600020600501543414156108075760026003600083815260200190815260200160002060060160006101000a81548160ff0219169083600581111561079957fe5b0217905550807f298bda476ccc04cbf603be3dfd5c4dc81367a3f5e23f51b1d9087ce10a28a29433604051808273ffffffffffffffffffffffffffffffffffffffff1673ffffffffffffffffffffffffffffffffffffffff16815260200191505060405180910390a2610875565b6040517f08c379a00000000000000000000000000000000000000000000000000000000081526004018080602001828103825260108152602001807f496e636f727265637420416d6f756e740000000000000000000000000000000081525060200191505060405180910390fd5b5b50565b60036020528060005260406000206000915090508060000160009054906101000a900473ffffffffffffffffffffffffffffffffffffffff16908060010160009054906101000a900473ffffffffffffffffffffffffffffffffffffffff1690806002018054600181600116156101000203166002900480601f0160208091040260200160405190810160405280929190818152602001828054600181600116156101000203166002900480156109715780601f1061094657610100808354040283529160200191610971565b820191906000526020600020905b81548152906001019060200180831161095457829003601f168201915b505050505090806003018054600181600116156101000203166002900480601f016020809104026020016040519081016040528092919081815260200182805460018160011615610100020316600290048015610a0f5780601f106109e457610100808354040283529160200191610a0f565b820191906000526020600020905b8154815290600101906020018083116109f257829003601f168201915b5050505050908060040154908060050154908060060160009054906101000a900460ff16908060060160019054906101000a900460ff16908060060160029054906101000a900460ff16905089565b6000809054906101000a900473ffffffffffffffffffffffffffffffffffffffff1673ffffffffffffffffffffffffffffffffffffffff163373ffffffffffffffffffffffffffffffffffffffff16141515610ab957600080fd5b6000809054906101000a900473ffffffffffffffffffffffffffffffffffffffff1673ffffffffffffffffffffffffffffffffffffffff167ff8df31144d9c2f0f6b59d69b8b98abd5459d07f2742c4df920b25aae33c6482060405160405180910390a260008060006101000a81548173ffffffffffffffffffffffffffffffffffffffff021916908373ffffffffffffffffffffffffffffffffffffffff160217905550565b6000809054906101000a900473ffffffffffffffffffffffffffffffffffffffff1681565b6000806003600084815260200190815260200160002060010160009054906101000a900473ffffffffffffffffffffffffffffffffffffffff1691506003600084815260200190815260200160002060000160009054906101000a900473ffffffffffffffffffffffffffffffffffffffff1690508173ffffffffffffffffffffffffffffffffffffffff163373ffffffffffffffffffffffffffffffffffffffff161415610cc85760056003600085815260200190815260200160002060060160006101000a81548160ff02191690836005811115610c6157fe5b02179055508073ffffffffffffffffffffffffffffffffffffffff166108fc60036000868152602001908152602001600020600501549081150290604051600060405180830381858888f19350505050158015610cc2573d6000803e3d6000fd5b50610e0e565b8073ffffffffffffffffffffffffffffffffffffffff163373ffffffffffffffffffffffffffffffffffffffff161415610e0d5760056003600085815260200190815260200160002060060160006101000a81548160ff02191690836005811115610d2f57fe5b02179055508073ffffffffffffffffffffffffffffffffffffffff166108fc6064605f600360008881526020019081526020016000206005015402811515610d7357fe5b049081150290604051600060405180830381858888f19350505050158015610d9f573d6000803e3d6000fd5b508173ffffffffffffffffffffffffffffffffffffffff166108fc60646005600360008881526020019081526020016000206005015402811515610ddf57fe5b049081150290604051600060405180830381858888f19350505050158015610e0b573d6000803e3d6000fd5b505b5b505050565b6060600060036000848152602001908152602001600020905060016005811115610e3957fe5b8160060160009054906101000a900460ff166005811115610e5657fe5b1415610e99576040805190810160405280600981526020017f526571756573746564000000000000000000000000000000000000000000000081525091506110f2565b60036005811115610ea657fe5b8160060160009054906101000a900460ff166005811115610ec357fe5b1415610f06576040805190810160405280600b81526020017f496e2050726f677265737300000000000000000000000000000000000000000081525091506110f2565b60006005811115610f1357fe5b8160060160009054906101000a900460ff166005811115610f3057fe5b1415610f73576040805190810160405280600b81526020017f4e6f74205374617274656400000000000000000000000000000000000000000081525091506110f2565b60046005811115610f8057fe5b8160060160009054906101000a900460ff166005811115610f9d57fe5b1415610fe0576040805190810160405280600981526020017f436f6d706c65746564000000000000000000000000000000000000000000000081525091506110f2565b600580811115610fec57fe5b8160060160009054906101000a900460ff16600581111561100957fe5b141561104c576040805190810160405280600981526020017f43616e63656c6c6564000000000000000000000000000000000000000000000081525091506110f2565b6002600581111561105957fe5b8160060160009054906101000a900460ff16600581111561107657fe5b14156110b9576040805190810160405280600481526020017f506169640000000000000000000000000000000000000000000000000000000081525091506110f2565b6040805190810160405280601081526020017f63616e6e6f742066696e6420726964650000000000000000000000000000000081525091505b50919050565b60028181548110151561110757fe5b906000526020600020016000915054906101000a900473ffffffffffffffffffffffffffffffffffffffff1681565b6000806003600084815260200190815260200160002060010160009054906101000a900473ffffffffffffffffffffffffffffffffffffffff1691506003600084815260200190815260200160002060000160009054906101000a900473ffffffffffffffffffffffffffffffffffffffff1690508173ffffffffffffffffffffffffffffffffffffffff163373ffffffffffffffffffffffffffffffffffffffff1614156112135760016003600085815260200190815260200160002060060160016101000a81548160ff021916908315150217905550611278565b8073ffffffffffffffffffffffffffffffffffffffff163373ffffffffffffffffffffffffffffffffffffffff1614156112775760016003600085815260200190815260200160002060060160026101000a81548160ff0219169083151502179055505b5b6003600084815260200190815260200160002060060160019054906101000a900460ff1680156112c857506003600084815260200190815260200160002060060160029054906101000a900460ff165b156113de578173ffffffffffffffffffffffffffffffffffffffff166108fc60036000868152602001908152602001600020600501549081150290604051600060405180830381858888f19350505050158015611329573d6000803e3d6000fd5b5060046003600085815260200190815260200160002060060160006101000a81548160ff0219169083600581111561135d57fe5b02179055508073ffffffffffffffffffffffffffffffffffffffff168273ffffffffffffffffffffffffffffffffffffffff16847e915a3c88094db70ad025e09b8fb85eff8ad86ee9bf5afc02dea205c1e56e4660036000888152602001908152602001600020600501546040518082815260200191505060405180910390a45b505050565b60008060006001600081548092919060010191905055925033915061140a846005546118ea565b9050610120604051908101604052808373ffffffffffffffffffffffffffffffffffffffff1681526020018873ffffffffffffffffffffffffffffffffffffffff1681526020018781526020018681526020018581526020018281526020016001600581111561147657fe5b8152602001600015158152602001600015158152506003600085815260200190815260200160002060008201518160000160006101000a81548173ffffffffffffffffffffffffffffffffffffffff021916908373ffffffffffffffffffffffffffffffffffffffff16021790555060208201518160010160006101000a81548173ffffffffffffffffffffffffffffffffffffffff021916908373ffffffffffffffffffffffffffffffffffffffff1602179055506040820151816002019080519060200190611548929190611a1c565b506060820151816003019080519060200190611565929190611a1c565b506080820151816004015560a0820151816005015560c08201518160060160006101000a81548160ff0219169083600581111561159e57fe5b021790555060e08201518160060160016101000a81548160ff0219169083151502179055506101008201518160060160026101000a81548160ff0219169083151502179055509050508673ffffffffffffffffffffffffffffffffffffffff168273ffffffffffffffffffffffffffffffffffffffff16847f32b81ff1b9b883947eff3c00cc79a5d75e15b5edede83b3f1b53ac2483da833c846040518082815260200191505060405180910390a450505050505050565b6000809054906101000a900473ffffffffffffffffffffffffffffffffffffffff1673ffffffffffffffffffffffffffffffffffffffff163373ffffffffffffffffffffffffffffffffffffffff161415156116b157600080fd5b8060058190555050565b600260058111156116c857fe5b6003600083815260200190815260200160002060060160009054906101000a900460ff1660058111156116f757fe5b14151561176c576040517f08c379a000000000000000000000000000000000000000000000000000000000815260040180806020018281038252601e8152602001807f5269646520686173206e6f74206265656e207061696420666f7220796574000081525060200191505060405180910390fd5b6003600082815260200190815260200160002060010160009054906101000a900473ffffffffffffffffffffffffffffffffffffffff1673ffffffffffffffffffffffffffffffffffffffff163373ffffffffffffffffffffffffffffffffffffffff16141561181257600380600083815260200190815260200160002060060160006101000a81548160ff0219169083600581111561180857fe5b0217905550611880565b6040517f08c379a000000000000000000000000000000000000000000000000000000000815260040180806020018281038252600a8152602001807f4e6f74206472697665720000000000000000000000000000000000000000000081525060200191505060405180910390fd5b50565b6000809054906101000a900473ffffffffffffffffffffffffffffffffffffffff1673ffffffffffffffffffffffffffffffffffffffff163373ffffffffffffffffffffffffffffffffffffffff161415156118de57600080fd5b6118e781611922565b50565b6000808314156118fd576000905061191c565b818302905081838281151561190e57fe5b0414151561191857fe5b8090505b92915050565b600073ffffffffffffffffffffffffffffffffffffffff168173ffffffffffffffffffffffffffffffffffffffff161415151561195e57600080fd5b8073ffffffffffffffffffffffffffffffffffffffff166000809054906101000a900473ffffffffffffffffffffffffffffffffffffffff1673ffffffffffffffffffffffffffffffffffffffff167f8be0079c531659141344cd1fd0a4f28419497f9722a3daafe3b4186f6b6457e060405160405180910390a3806000806101000a81548173ffffffffffffffffffffffffffffffffffffffff021916908373ffffffffffffffffffffffffffffffffffffffff16021790555050565b828054600181600116156101000203166002900490600052602060002090601f016020900481019282601f10611a5d57805160ff1916838001178555611a8b565b82800160010185558215611a8b579182015b82811115611a8a578251825591602001919060010190611a6f565b5b509050611a989190611a9c565b5090565b611abe91905b80821115611aba576000816000905550600101611aa2565b5090565b905600a165627a7a72305820e277e22e1d327402d5a84d902c19444fbada3b2c5c95c345fe3039af1206ad740029",
  "source": "pragma solidity ^0.4.24;\n\nimport \"node_modules/openzeppelin-solidity/contracts/math/SafeMath.sol\";\nimport \"node_modules/openzeppelin-solidity/contracts/token/ERC20/ERC20.sol\";\nimport \"node_modules/openzeppelin-solidity/contracts/token/ERC20/ERC20Basic.sol\";\nimport \"node_modules/openzeppelin-solidity/contracts/token/ERC20/BasicToken.sol\";\nimport \"contracts/Ownable.sol\";\n\ncontract Uber_TCR is Ownable{\n    \n    using SafeMath for uint;\n    enum RideStatus {NotStarted, Requested, Paid, InProgress, Completed, Cancelled }\n    \n    event RideCreation(uint indexed rideId, address indexed driver, address indexed rider, uint rideValue);\n    event RideComplete(uint indexed rideId, address indexed driver, address indexed rider, uint rideValue);\n    event RidePaid(uint indexed rideId, address rider);\n    \n    struct Ride{\n        address  rider; \n        address  driver;\n        string pickUpLocation;\n        string dropOffLocation;\n        uint  distance;\n        uint256  rideValue;        \n        RideStatus status;\n        bool rideCompleteDriver;\n        bool rideCompleteRider;\n    }\n    uint private numberOfRides;\n    address[] public listDrivers; \n    mapping(uint => Ride) public rides;\n    uint private contractAmount;\n    uint public feePerKM = 0.001 ether;\n    \n   // constructor(address[] _drivers) public{\n   //     listDrivers = _drivers;         \n   // }\n    \n    function setRideFee(uint256 _newFee) onlyOwner public{\n        feePerKM = _newFee;\n    }\n    \n    function requestRide(address _driver, string _pickUpLocation, string _dropOffLocation, uint _distance) public{\n        \n        uint _rideId = numberOfRides++;\n        address _rider = msg.sender;\n        uint256 _rideValue = SafeMath.mul(_distance, feePerKM);\n        rides[_rideId] = Ride(_rider, _driver, _pickUpLocation, _dropOffLocation, _distance, _rideValue, RideStatus.Requested, false, false);\n        emit RideCreation(_rideId, _rider, _driver, _rideValue);\n    }\n\n    function payForRide(uint _rideId) public payable{\n        \n        require(rides[_rideId].status == RideStatus.Requested, \"Ride not in the correct state\");\n        \n        contractAmount+= msg.value;\n        if(msg.sender == rides[_rideId].rider) {\n            if(msg.value == rides[_rideId].rideValue)\n            {\n                rides[_rideId].status = RideStatus.Paid;\n                emit RidePaid(_rideId, msg.sender);\n            }\n            else{\n                revert(\"Incorrect Amount\");\n            }\n        }  \n    }\n\n    function startRide(uint _rideId) public {\n        require(rides[_rideId].status == RideStatus.Paid, \"Ride has not been paid for yet\");\n        if(msg.sender == rides[_rideId].driver)\n        {\n            rides[_rideId].status = RideStatus.InProgress;\n        }else{\n            revert(\"Not driver\");\n        }\n    }\n    \n    function cancelRide(uint _rideId) public{\n        address _driver = rides[_rideId].driver;\n        address _rider = rides[_rideId].rider;\n\n        if(msg.sender == _driver)\n        {\n            rides[_rideId].status = RideStatus.Cancelled;\n            _rider.transfer(rides[_rideId].rideValue);\n        }else if(msg.sender == _rider)\n        {\n            rides[_rideId].status = RideStatus.Cancelled;\n            _rider.transfer(rides[_rideId].rideValue * 95 / 100);\n            //pay pentatly for cancellings\n            _driver.transfer(rides[_rideId].rideValue * 5 / 100);\n        }\n    }\n\n    function completeRide(uint _rideId) public{\n        \n        \n        address _driver = rides[_rideId].driver;\n        address _rider = rides[_rideId].rider;\n\n        if(msg.sender == _driver)\n        {\n            rides[_rideId].rideCompleteDriver = true;            \n        }else if(msg.sender == _rider)\n        {\n            rides[_rideId].rideCompleteRider = true;            \n        }\n\n        if(rides[_rideId].rideCompleteDriver && rides[_rideId].rideCompleteRider)\n        {\n            _driver.transfer(rides[_rideId].rideValue);        \n            rides[_rideId].status = RideStatus.Completed;   \n            emit RideComplete(_rideId, _driver, _rider, rides[_rideId].rideValue);\n        }\n    }\n\n    function statusOfRide(uint _rideId) public view returns(string){ \n        Ride storage ride = rides[_rideId];\n        \n        if(ride.status == RideStatus.Requested){\n            return \"Requested\";\n         }else if(ride.status == RideStatus.InProgress){\n            return \"In Progress\";\n         }else if(ride.status == RideStatus.NotStarted){\n            return \"Not Started\";\n         }else if(ride.status == RideStatus.Completed){\n            return \"Completed\";             \n         }else if(ride.status == RideStatus.Cancelled){\n            return \"Cancelled\"; \n         }else if(ride.status == RideStatus.Paid){\n            return \"Paid\"; \n         }\n         else\n         {\n            return \"cannot find ride\";\n         }\n    }\n}",
  "sourcePath": "/Users/Graham/Documents/Git Repo/Smart-Contract-Learning-1/contracts/Uber.sol",
  "compiler": {
    "name": "solc",
    "version": "0.4.24+commit.e67f0147.Emscripten.clang"
  },
  "schemaVersion": "2.0.1",
  "updatedAt": "2018-06-21T13:32:01.966Z"
}