{
  "contractName": "Uber_TCR",
  "abi": [
    {
      "constant": true,
      "inputs": [],
      "name": "feePerKM",
      "outputs": [
        {
          "name": "",
          "type": "uint256"
        }
      ],
      "payable": false,
      "stateMutability": "view",
      "type": "function"
    },
    {
      "constant": true,
      "inputs": [
        {
          "name": "",
          "type": "uint256"
        }
      ],
      "name": "rides",
      "outputs": [
        {
          "name": "rider",
          "type": "address"
        },
        {
          "name": "driver",
          "type": "address"
        },
        {
          "name": "pickUpLocation",
          "type": "string"
        },
        {
          "name": "dropOffLocation",
          "type": "string"
        },
        {
          "name": "distance",
          "type": "uint256"
        },
        {
          "name": "rideValue",
          "type": "uint256"
        },
        {
          "name": "status",
          "type": "uint8"
        },
        {
          "name": "rideCompleteDriver",
          "type": "bool"
        },
        {
          "name": "rideCompleteRider",
          "type": "bool"
        }
      ],
      "payable": false,
      "stateMutability": "view",
      "type": "function"
    },
    {
      "constant": false,
      "inputs": [],
      "name": "renounceOwnership",
      "outputs": [],
      "payable": false,
      "stateMutability": "nonpayable",
      "type": "function"
    },
    {
      "constant": true,
      "inputs": [],
      "name": "owner",
      "outputs": [
        {
          "name": "",
          "type": "address"
        }
      ],
      "payable": false,
      "stateMutability": "view",
      "type": "function"
    },
    {
      "constant": true,
      "inputs": [
        {
          "name": "",
          "type": "uint256"
        }
      ],
      "name": "listDrivers",
      "outputs": [
        {
          "name": "",
          "type": "address"
        }
      ],
      "payable": false,
      "stateMutability": "view",
      "type": "function"
    },
    {
      "constant": false,
      "inputs": [
        {
          "name": "_newOwner",
          "type": "address"
        }
      ],
      "name": "transferOwnership",
      "outputs": [],
      "payable": false,
      "stateMutability": "nonpayable",
      "type": "function"
    },
    {
      "inputs": [
        {
          "name": "_drivers",
          "type": "address[]"
        }
      ],
      "payable": false,
      "stateMutability": "nonpayable",
      "type": "constructor"
    },
    {
      "anonymous": false,
      "inputs": [
        {
          "indexed": true,
          "name": "rideId",
          "type": "uint256"
        },
        {
          "indexed": false,
          "name": "driver",
          "type": "address"
        },
        {
          "indexed": false,
          "name": "rider",
          "type": "address"
        },
        {
          "indexed": false,
          "name": "pickup",
          "type": "string"
        },
        {
          "indexed": false,
          "name": "dropoff",
          "type": "string"
        },
        {
          "indexed": false,
          "name": "rideValue",
          "type": "uint256"
        },
        {
          "indexed": false,
          "name": "status",
          "type": "uint256"
        }
      ],
      "name": "RideCreation",
      "type": "event"
    },
    {
      "anonymous": false,
      "inputs": [
        {
          "indexed": true,
          "name": "rideId",
          "type": "uint256"
        },
        {
          "indexed": true,
          "name": "driver",
          "type": "address"
        },
        {
          "indexed": true,
          "name": "rider",
          "type": "address"
        },
        {
          "indexed": false,
          "name": "rideValue",
          "type": "uint256"
        }
      ],
      "name": "RideComplete",
      "type": "event"
    },
    {
      "anonymous": false,
      "inputs": [
        {
          "indexed": true,
          "name": "rideId",
          "type": "uint256"
        },
        {
          "indexed": false,
          "name": "status",
          "type": "uint256"
        }
      ],
      "name": "RidePaid",
      "type": "event"
    },
    {
      "anonymous": false,
      "inputs": [
        {
          "indexed": true,
          "name": "previousOwner",
          "type": "address"
        }
      ],
      "name": "OwnershipRenounced",
      "type": "event"
    },
    {
      "anonymous": false,
      "inputs": [
        {
          "indexed": true,
          "name": "previousOwner",
          "type": "address"
        },
        {
          "indexed": true,
          "name": "newOwner",
          "type": "address"
        }
      ],
      "name": "OwnershipTransferred",
      "type": "event"
    },
    {
      "constant": false,
      "inputs": [
        {
          "name": "_newFee",
          "type": "uint256"
        }
      ],
      "name": "setRideFee",
      "outputs": [],
      "payable": false,
      "stateMutability": "nonpayable",
      "type": "function"
    },
    {
      "constant": true,
      "inputs": [],
      "name": "numOfDrivers",
      "outputs": [
        {
          "name": "",
          "type": "uint256"
        }
      ],
      "payable": false,
      "stateMutability": "view",
      "type": "function"
    },
    {
      "constant": true,
      "inputs": [],
      "name": "getAllDriver",
      "outputs": [
        {
          "name": "",
          "type": "address[]"
        }
      ],
      "payable": false,
      "stateMutability": "view",
      "type": "function"
    },
    {
      "constant": true,
      "inputs": [],
      "name": "getRideCount",
      "outputs": [
        {
          "name": "",
          "type": "uint256"
        }
      ],
      "payable": false,
      "stateMutability": "view",
      "type": "function"
    },
    {
      "constant": true,
      "inputs": [
        {
          "name": "_rideId",
          "type": "uint256"
        }
      ],
      "name": "getRide",
      "outputs": [
        {
          "name": "",
          "type": "uint256"
        },
        {
          "name": "",
          "type": "address"
        },
        {
          "name": "",
          "type": "address"
        },
        {
          "name": "",
          "type": "string"
        },
        {
          "name": "",
          "type": "string"
        },
        {
          "name": "",
          "type": "uint256"
        },
        {
          "name": "",
          "type": "uint256"
        }
      ],
      "payable": false,
      "stateMutability": "view",
      "type": "function"
    },
    {
      "constant": false,
      "inputs": [
        {
          "name": "_driver",
          "type": "address"
        },
        {
          "name": "_pickUpLocation",
          "type": "string"
        },
        {
          "name": "_dropOffLocation",
          "type": "string"
        },
        {
          "name": "_distance",
          "type": "uint256"
        }
      ],
      "name": "requestRide",
      "outputs": [],
      "payable": false,
      "stateMutability": "nonpayable",
      "type": "function"
    },
    {
      "constant": false,
      "inputs": [
        {
          "name": "_rideId",
          "type": "uint256"
        }
      ],
      "name": "payForRide",
      "outputs": [],
      "payable": true,
      "stateMutability": "payable",
      "type": "function"
    },
    {
      "constant": false,
      "inputs": [
        {
          "name": "_rideId",
          "type": "uint256"
        }
      ],
      "name": "startRide",
      "outputs": [],
      "payable": false,
      "stateMutability": "nonpayable",
      "type": "function"
    },
    {
      "constant": false,
      "inputs": [
        {
          "name": "_rideId",
          "type": "uint256"
        }
      ],
      "name": "cancelRide",
      "outputs": [],
      "payable": false,
      "stateMutability": "nonpayable",
      "type": "function"
    },
    {
      "constant": false,
      "inputs": [
        {
          "name": "_rideId",
          "type": "uint256"
        }
      ],
      "name": "completeRide",
      "outputs": [],
      "payable": false,
      "stateMutability": "nonpayable",
      "type": "function"
    },
    {
      "constant": true,
      "inputs": [
        {
          "name": "_rideId",
          "type": "uint256"
        }
      ],
      "name": "statusOfRide",
      "outputs": [
        {
          "name": "",
          "type": "string"
        }
      ],
      "payable": false,
      "stateMutability": "view",
      "type": "function"
    }
  ],
  "bytecode": "0x608060405266038d7ea4c680006005553480156200001c57600080fd5b50604051620023f7380380620023f783398101806040528101908080518201929190505050336000806101000a81548173ffffffffffffffffffffffffffffffffffffffff021916908373ffffffffffffffffffffffffffffffffffffffff160217905550806002908051906020019062000099929190620000a1565b505062000176565b8280548282559060005260206000209081019282156200011d579160200282015b828111156200011c5782518260006101000a81548173ffffffffffffffffffffffffffffffffffffffff021916908373ffffffffffffffffffffffffffffffffffffffff16021790555091602001919060010190620000c2565b5b5090506200012c919062000130565b5090565b6200017391905b808211156200016f57600081816101000a81549073ffffffffffffffffffffffffffffffffffffffff02191690555060010162000137565b5090565b90565b61227180620001866000396000f3006080604052600436106100f1576000357c0100000000000000000000000000000000000000000000000000000000900463ffffffff16806309c181c5146100f65780630df39bb1146101215780635205f11214610141578063715018a6146102f25780637c7b0ff4146103095780638959a5d1146104965780638da5cb5b146104c1578063a6f07b2914610518578063b585d9ce14610545578063b71cea8a146105eb578063c416dd0b14610658578063c679565114610685578063dcaeaec11461075e578063e9c14b1e1461078b578063eef10c4d146107b8578063f2fde38b14610824578063f69bc14014610867575b600080fd5b34801561010257600080fd5b5061010b610892565b6040518082815260200191505060405180910390f35b61013f60048036038101908080359060200190929190505050610898565b005b34801561014d57600080fd5b5061016c60048036038101908080359060200190929190505050610af6565b604051808a73ffffffffffffffffffffffffffffffffffffffff1673ffffffffffffffffffffffffffffffffffffffff1681526020018973ffffffffffffffffffffffffffffffffffffffff1673ffffffffffffffffffffffffffffffffffffffff16815260200180602001806020018881526020018781526020018660058111156101f457fe5b60ff168152602001851515151581526020018415151515815260200183810383528a818151815260200191508051906020019080838360005b8381101561024857808201518184015260208101905061022d565b50505050905090810190601f1680156102755780820380516001836020036101000a031916815260200191505b50838103825289818151815260200191508051906020019080838360005b838110156102ae578082015181840152602081019050610293565b50505050905090810190601f1680156102db5780820380516001836020036101000a031916815260200191505b509b50505050505050505050505060405180910390f35b3480156102fe57600080fd5b50610307610cdb565b005b34801561031557600080fd5b5061033460048036038101908080359060200190929190505050610ddd565b604051808881526020018773ffffffffffffffffffffffffffffffffffffffff1673ffffffffffffffffffffffffffffffffffffffff1681526020018673ffffffffffffffffffffffffffffffffffffffff1673ffffffffffffffffffffffffffffffffffffffff1681526020018060200180602001858152602001848152602001838103835287818151815260200191508051906020019080838360005b838110156103ee5780820151818401526020810190506103d3565b50505050905090810190601f16801561041b5780820380516001836020036101000a031916815260200191505b50838103825286818151815260200191508051906020019080838360005b83811015610454578082015181840152602081019050610439565b50505050905090810190601f1680156104815780820380516001836020036101000a031916815260200191505b50995050505050505050505060405180910390f35b3480156104a257600080fd5b506104ab61103b565b6040518082815260200191505060405180910390f35b3480156104cd57600080fd5b506104d6611045565b604051808273ffffffffffffffffffffffffffffffffffffffff1673ffffffffffffffffffffffffffffffffffffffff16815260200191505060405180910390f35b34801561052457600080fd5b506105436004803603810190808035906020019092919050505061106a565b005b34801561055157600080fd5b50610570600480360381019080803590602001909291905050506112f8565b6040518080602001828103825283818151815260200191508051906020019080838360005b838110156105b0578082015181840152602081019050610595565b50505050905090810190601f1680156105dd5780820380516001836020036101000a031916815260200191505b509250505060405180910390f35b3480156105f757600080fd5b50610616600480360381019080803590602001909291905050506115dd565b604051808273ffffffffffffffffffffffffffffffffffffffff1673ffffffffffffffffffffffffffffffffffffffff16815260200191505060405180910390f35b34801561066457600080fd5b506106836004803603810190808035906020019092919050505061161b565b005b34801561069157600080fd5b5061075c600480360381019080803573ffffffffffffffffffffffffffffffffffffffff169060200190929190803590602001908201803590602001908080601f0160208091040260200160405190810160405280939291908181526020018383808284378201915050505050509192919290803590602001908201803590602001908080601f0160208091040260200160405190810160405280939291908181526020018383808284378201915050505050509192919290803590602001909291905050506119a0565b005b34801561076a57600080fd5b5061078960048036038101908080359060200190929190505050611d3f565b005b34801561079757600080fd5b506107b660048036038101908080359060200190929190505050611da4565b005b3480156107c457600080fd5b506107cd611f6c565b6040518080602001828103825283818151815260200191508051906020019060200280838360005b838110156108105780820151818401526020810190506107f5565b505050509050019250505060405180910390f35b34801561083057600080fd5b50610865600480360381019080803573ffffffffffffffffffffffffffffffffffffffff169060200190929190505050611ffa565b005b34801561087357600080fd5b5061087c612061565b6040518082815260200191505060405180910390f35b60055481565b600160058111156108a557fe5b6003600083815260200190815260200160002060060160009054906101000a900460ff1660058111156108d457fe5b141515610949576040517f08c379a000000000000000000000000000000000000000000000000000000000815260040180806020018281038252601d8152602001807f52696465206e6f7420696e2074686520636f727265637420737461746500000081525060200191505060405180910390fd5b346004600082825401925050819055506003600082815260200190815260200160002060000160009054906101000a900473ffffffffffffffffffffffffffffffffffffffff1673ffffffffffffffffffffffffffffffffffffffff163373ffffffffffffffffffffffffffffffffffffffff161415610af3576003600082815260200190815260200160002060050154341415610a845760026003600083815260200190815260200160002060060160006101000a81548160ff02191690836005811115610a1457fe5b0217905550807f903cde2d25b055e29943c4e27153af4f80d7e07111b93267f15b24f469a8c05f6003600084815260200190815260200160002060060160009054906101000a900460ff166005811115610a6a57fe5b6040518082815260200191505060405180910390a2610af2565b6040517f08c379a00000000000000000000000000000000000000000000000000000000081526004018080602001828103825260108152602001807f496e636f727265637420416d6f756e740000000000000000000000000000000081525060200191505060405180910390fd5b5b50565b60036020528060005260406000206000915090508060000160009054906101000a900473ffffffffffffffffffffffffffffffffffffffff16908060010160009054906101000a900473ffffffffffffffffffffffffffffffffffffffff1690806002018054600181600116156101000203166002900480601f016020809104026020016040519081016040528092919081815260200182805460018160011615610100020316600290048015610bee5780601f10610bc357610100808354040283529160200191610bee565b820191906000526020600020905b815481529060010190602001808311610bd157829003601f168201915b505050505090806003018054600181600116156101000203166002900480601f016020809104026020016040519081016040528092919081815260200182805460018160011615610100020316600290048015610c8c5780601f10610c6157610100808354040283529160200191610c8c565b820191906000526020600020905b815481529060010190602001808311610c6f57829003601f168201915b5050505050908060040154908060050154908060060160009054906101000a900460ff16908060060160019054906101000a900460ff16908060060160029054906101000a900460ff16905089565b6000809054906101000a900473ffffffffffffffffffffffffffffffffffffffff1673ffffffffffffffffffffffffffffffffffffffff163373ffffffffffffffffffffffffffffffffffffffff16141515610d3657600080fd5b6000809054906101000a900473ffffffffffffffffffffffffffffffffffffffff1673ffffffffffffffffffffffffffffffffffffffff167ff8df31144d9c2f0f6b59d69b8b98abd5459d07f2742c4df920b25aae33c6482060405160405180910390a260008060006101000a81548173ffffffffffffffffffffffffffffffffffffffff021916908373ffffffffffffffffffffffffffffffffffffffff160217905550565b6000806000606080600080600080600080600080600360008f815260200190815260200160002060010160009054906101000a900473ffffffffffffffffffffffffffffffffffffffff169550600360008f815260200190815260200160002060000160009054906101000a900473ffffffffffffffffffffffffffffffffffffffff169450600360008f81526020019081526020016000206002019350600360008f81526020019081526020016000206003019250600360008f8152602001908152602001600020600501549150600360008f815260200190815260200160002060060160009054906101000a900460ff166005811115610edb57fe5b90508d868686868686838054600181600116156101000203166002900480601f016020809104026020016040519081016040528092919081815260200182805460018160011615610100020316600290048015610f795780601f10610f4e57610100808354040283529160200191610f79565b820191906000526020600020905b815481529060010190602001808311610f5c57829003601f168201915b50505050509350828054600181600116156101000203166002900480601f0160208091040260200160405190810160405280929190818152602001828054600181600116156101000203166002900480156110155780601f10610fea57610100808354040283529160200191611015565b820191906000526020600020905b815481529060010190602001808311610ff857829003601f168201915b505050505092509c509c509c509c509c509c509c50505050505050919395979092949650565b6000600154905090565b6000809054906101000a900473ffffffffffffffffffffffffffffffffffffffff1681565b6000806003600084815260200190815260200160002060010160009054906101000a900473ffffffffffffffffffffffffffffffffffffffff1691506003600084815260200190815260200160002060000160009054906101000a900473ffffffffffffffffffffffffffffffffffffffff1690508173ffffffffffffffffffffffffffffffffffffffff163373ffffffffffffffffffffffffffffffffffffffff1614156111ad5760056003600085815260200190815260200160002060060160006101000a81548160ff0219169083600581111561114657fe5b02179055508073ffffffffffffffffffffffffffffffffffffffff166108fc60036000868152602001908152602001600020600501549081150290604051600060405180830381858888f193505050501580156111a7573d6000803e3d6000fd5b506112f3565b8073ffffffffffffffffffffffffffffffffffffffff163373ffffffffffffffffffffffffffffffffffffffff1614156112f25760056003600085815260200190815260200160002060060160006101000a81548160ff0219169083600581111561121457fe5b02179055508073ffffffffffffffffffffffffffffffffffffffff166108fc6064605f60036000888152602001908152602001600020600501540281151561125857fe5b049081150290604051600060405180830381858888f19350505050158015611284573d6000803e3d6000fd5b508173ffffffffffffffffffffffffffffffffffffffff166108fc606460056003600088815260200190815260200160002060050154028115156112c457fe5b049081150290604051600060405180830381858888f193505050501580156112f0573d6000803e3d6000fd5b505b5b505050565b606060006003600084815260200190815260200160002090506001600581111561131e57fe5b8160060160009054906101000a900460ff16600581111561133b57fe5b141561137e576040805190810160405280600981526020017f526571756573746564000000000000000000000000000000000000000000000081525091506115d7565b6003600581111561138b57fe5b8160060160009054906101000a900460ff1660058111156113a857fe5b14156113eb576040805190810160405280600b81526020017f496e2050726f677265737300000000000000000000000000000000000000000081525091506115d7565b600060058111156113f857fe5b8160060160009054906101000a900460ff16600581111561141557fe5b1415611458576040805190810160405280600b81526020017f4e6f74205374617274656400000000000000000000000000000000000000000081525091506115d7565b6004600581111561146557fe5b8160060160009054906101000a900460ff16600581111561148257fe5b14156114c5576040805190810160405280600981526020017f436f6d706c65746564000000000000000000000000000000000000000000000081525091506115d7565b6005808111156114d157fe5b8160060160009054906101000a900460ff1660058111156114ee57fe5b1415611531576040805190810160405280600981526020017f43616e63656c6c6564000000000000000000000000000000000000000000000081525091506115d7565b6002600581111561153e57fe5b8160060160009054906101000a900460ff16600581111561155b57fe5b141561159e576040805190810160405280600481526020017f506169640000000000000000000000000000000000000000000000000000000081525091506115d7565b6040805190810160405280601081526020017f63616e6e6f742066696e6420726964650000000000000000000000000000000081525091505b50919050565b6002818154811015156115ec57fe5b906000526020600020016000915054906101000a900473ffffffffffffffffffffffffffffffffffffffff1681565b6000806003600084815260200190815260200160002060010160009054906101000a900473ffffffffffffffffffffffffffffffffffffffff1691506003600084815260200190815260200160002060000160009054906101000a900473ffffffffffffffffffffffffffffffffffffffff1690508173ffffffffffffffffffffffffffffffffffffffff163373ffffffffffffffffffffffffffffffffffffffff161480156116f25750600015156003600085815260200190815260200160002060060160019054906101000a900460ff161515145b1561172b5760016003600085815260200190815260200160002060060160016101000a81548160ff021916908315150217905550611835565b8073ffffffffffffffffffffffffffffffffffffffff163373ffffffffffffffffffffffffffffffffffffffff1614801561178d5750600015156003600085815260200190815260200160002060060160029054906101000a900460ff161515145b156117c65760016003600085815260200190815260200160002060060160026101000a81548160ff021916908315150217905550611834565b6040517f08c379a00000000000000000000000000000000000000000000000000000000081526004018080602001828103825260058152602001807f576f6f707300000000000000000000000000000000000000000000000000000081525060200191505060405180910390fd5b5b6003600084815260200190815260200160002060060160019054906101000a900460ff16801561188557506003600084815260200190815260200160002060060160029054906101000a900460ff165b1561199b578173ffffffffffffffffffffffffffffffffffffffff166108fc60036000868152602001908152602001600020600501549081150290604051600060405180830381858888f193505050501580156118e6573d6000803e3d6000fd5b5060046003600085815260200190815260200160002060060160006101000a81548160ff0219169083600581111561191a57fe5b02179055508073ffffffffffffffffffffffffffffffffffffffff168273ffffffffffffffffffffffffffffffffffffffff16847e915a3c88094db70ad025e09b8fb85eff8ad86ee9bf5afc02dea205c1e56e4660036000888152602001908152602001600020600501546040518082815260200191505060405180910390a45b505050565b600080600060016000815480929190600101919050555060015492503391506119cb8460055461206e565b9050610120604051908101604052808373ffffffffffffffffffffffffffffffffffffffff1681526020018873ffffffffffffffffffffffffffffffffffffffff16815260200187815260200186815260200185815260200182815260200160016005811115611a3757fe5b8152602001600015158152602001600015158152506003600085815260200190815260200160002060008201518160000160006101000a81548173ffffffffffffffffffffffffffffffffffffffff021916908373ffffffffffffffffffffffffffffffffffffffff16021790555060208201518160010160006101000a81548173ffffffffffffffffffffffffffffffffffffffff021916908373ffffffffffffffffffffffffffffffffffffffff1602179055506040820151816002019080519060200190611b099291906121a0565b506060820151816003019080519060200190611b269291906121a0565b506080820151816004015560a0820151816005015560c08201518160060160006101000a81548160ff02191690836005811115611b5f57fe5b021790555060e08201518160060160016101000a81548160ff0219169083151502179055506101008201518160060160026101000a81548160ff021916908315150217905550905050827f7d6b5aa4d22dc184d737086187aaa0f246b3727e6d9110353927ce6691341614888489898660016005811115611bdc57fe5b604051808773ffffffffffffffffffffffffffffffffffffffff1673ffffffffffffffffffffffffffffffffffffffff1681526020018673ffffffffffffffffffffffffffffffffffffffff1673ffffffffffffffffffffffffffffffffffffffff1681526020018060200180602001858152602001848152602001838103835287818151815260200191508051906020019080838360005b83811015611c90578082015181840152602081019050611c75565b50505050905090810190601f168015611cbd5780820380516001836020036101000a031916815260200191505b50838103825286818151815260200191508051906020019080838360005b83811015611cf6578082015181840152602081019050611cdb565b50505050905090810190601f168015611d235780820380516001836020036101000a031916815260200191505b509850505050505050505060405180910390a250505050505050565b6000809054906101000a900473ffffffffffffffffffffffffffffffffffffffff1673ffffffffffffffffffffffffffffffffffffffff163373ffffffffffffffffffffffffffffffffffffffff16141515611d9a57600080fd5b8060058190555050565b60026005811115611db157fe5b6003600083815260200190815260200160002060060160009054906101000a900460ff166005811115611de057fe5b141515611e55576040517f08c379a000000000000000000000000000000000000000000000000000000000815260040180806020018281038252601e8152602001807f5269646520686173206e6f74206265656e207061696420666f7220796574000081525060200191505060405180910390fd5b6003600082815260200190815260200160002060010160009054906101000a900473ffffffffffffffffffffffffffffffffffffffff1673ffffffffffffffffffffffffffffffffffffffff163373ffffffffffffffffffffffffffffffffffffffff161415611efb57600380600083815260200190815260200160002060060160006101000a81548160ff02191690836005811115611ef157fe5b0217905550611f69565b6040517f08c379a000000000000000000000000000000000000000000000000000000000815260040180806020018281038252600a8152602001807f4e6f74206472697665720000000000000000000000000000000000000000000081525060200191505060405180910390fd5b50565b60606002805480602002602001604051908101604052809291908181526020018280548015611ff057602002820191906000526020600020905b8160009054906101000a900473ffffffffffffffffffffffffffffffffffffffff1673ffffffffffffffffffffffffffffffffffffffff1681526020019060010190808311611fa6575b5050505050905090565b6000809054906101000a900473ffffffffffffffffffffffffffffffffffffffff1673ffffffffffffffffffffffffffffffffffffffff163373ffffffffffffffffffffffffffffffffffffffff1614151561205557600080fd5b61205e816120a6565b50565b6000600280549050905090565b60008083141561208157600090506120a0565b818302905081838281151561209257fe5b0414151561209c57fe5b8090505b92915050565b600073ffffffffffffffffffffffffffffffffffffffff168173ffffffffffffffffffffffffffffffffffffffff16141515156120e257600080fd5b8073ffffffffffffffffffffffffffffffffffffffff166000809054906101000a900473ffffffffffffffffffffffffffffffffffffffff1673ffffffffffffffffffffffffffffffffffffffff167f8be0079c531659141344cd1fd0a4f28419497f9722a3daafe3b4186f6b6457e060405160405180910390a3806000806101000a81548173ffffffffffffffffffffffffffffffffffffffff021916908373ffffffffffffffffffffffffffffffffffffffff16021790555050565b828054600181600116156101000203166002900490600052602060002090601f016020900481019282601f106121e157805160ff191683800117855561220f565b8280016001018555821561220f579182015b8281111561220e5782518255916020019190600101906121f3565b5b50905061221c9190612220565b5090565b61224291905b8082111561223e576000816000905550600101612226565b5090565b905600a165627a7a72305820b4807f89e604093f5740baf54fcc0ddef0c19b6763af012a6a7156cdfa5b3f3a0029",
  "source": "pragma solidity ^0.4.24;\r\n\r\nimport \"node_modules/openzeppelin-solidity/contracts/math/SafeMath.sol\";\r\nimport \"node_modules/openzeppelin-solidity/contracts/token/ERC20/ERC20.sol\";\r\nimport \"node_modules/openzeppelin-solidity/contracts/token/ERC20/ERC20Basic.sol\";\r\nimport \"node_modules/openzeppelin-solidity/contracts/token/ERC20/BasicToken.sol\";\r\nimport \"contracts/Ownable.sol\";\r\n\r\ncontract Uber_TCR is Ownable{\r\n    \r\n    using SafeMath for uint;\r\n    enum RideStatus {NotStarted, Requested, Paid, InProgress, Completed, Cancelled }\r\n    \r\n    event RideCreation(uint indexed rideId, address driver, address rider, string pickup, string dropoff, uint rideValue, uint status);\r\n    event RideComplete(uint indexed rideId, address indexed driver, address indexed rider, uint rideValue);\r\n    event RidePaid(uint indexed rideId, uint status);\r\n    \r\n    struct Ride{\r\n        address  rider; \r\n        address  driver;\r\n        string pickUpLocation;\r\n        string dropOffLocation;\r\n        uint  distance;\r\n        uint256  rideValue;        \r\n        RideStatus status;\r\n        bool rideCompleteDriver;\r\n        bool rideCompleteRider;\r\n    }\r\n    uint private numberOfRides;\r\n    address[] public listDrivers; \r\n    mapping(uint => Ride) public rides;\r\n    uint private contractAmount;\r\n    uint public feePerKM = 0.001 ether;\r\n    \r\n    constructor(address[] _drivers) public{\r\n        listDrivers = _drivers;         \r\n    }\r\n    \r\n    function setRideFee(uint256 _newFee) onlyOwner public{\r\n        feePerKM = _newFee;\r\n    }\r\n\r\n    function numOfDrivers() public view returns(uint256){\r\n        return listDrivers.length;\r\n    }\r\n    \r\n    function getAllDriver() public view returns(address[]){\r\n        return listDrivers;\r\n    }\r\n    \r\n    function getRideCount() public view returns(uint){\r\n        return numberOfRides;\r\n    }\r\n\r\n    function getRide(uint _rideId) public view returns(uint, address, address, string, string, uint, uint)\r\n    {        \r\n        address driver = rides[_rideId].driver;\r\n        address rider = rides[_rideId].rider;\r\n        string pickup = rides[_rideId].pickUpLocation;\r\n        string droppOff = rides[_rideId].dropOffLocation;\r\n        uint value = rides[_rideId].rideValue;\r\n        uint status = uint(rides[_rideId].status);\r\n        return(_rideId, driver, rider, pickup, droppOff, value, status);\r\n    }\r\n\r\n    function requestRide(address _driver, string _pickUpLocation, string _dropOffLocation, uint _distance) public{\r\n        numberOfRides++;\r\n        uint _rideId = numberOfRides;\r\n        address _rider = msg.sender;\r\n        uint256 _rideValue = SafeMath.mul(_distance, feePerKM);\r\n        rides[_rideId] = Ride(_rider, _driver, _pickUpLocation, _dropOffLocation, _distance, _rideValue, RideStatus.Requested, false, false);\r\n        emit RideCreation(_rideId, _driver, _rider, _pickUpLocation, _dropOffLocation, _rideValue, uint(RideStatus.Requested));\r\n    }\r\n\r\n    function payForRide(uint _rideId) public payable{\r\n        \r\n        require(rides[_rideId].status == RideStatus.Requested, \"Ride not in the correct state\");\r\n        \r\n        contractAmount+= msg.value;\r\n        if(msg.sender == rides[_rideId].rider) {\r\n            if(msg.value == rides[_rideId].rideValue)\r\n            {\r\n                rides[_rideId].status = RideStatus.Paid;\r\n                emit RidePaid(_rideId, uint(rides[_rideId].status));\r\n            }\r\n            else{\r\n                revert(\"Incorrect Amount\");\r\n            }\r\n        }  \r\n    }\r\n\r\n    function startRide(uint _rideId) public {\r\n        require(rides[_rideId].status == RideStatus.Paid, \"Ride has not been paid for yet\");\r\n        if(msg.sender == rides[_rideId].driver)\r\n        {\r\n            rides[_rideId].status = RideStatus.InProgress;\r\n        }else{\r\n            revert(\"Not driver\");\r\n        }\r\n    }\r\n    \r\n    function cancelRide(uint _rideId) public{\r\n        address _driver = rides[_rideId].driver;\r\n        address _rider = rides[_rideId].rider;\r\n\r\n        if(msg.sender == _driver)\r\n        {\r\n            rides[_rideId].status = RideStatus.Cancelled;\r\n            _rider.transfer(rides[_rideId].rideValue);\r\n        }else if(msg.sender == _rider)\r\n        {\r\n            rides[_rideId].status = RideStatus.Cancelled;\r\n            _rider.transfer(rides[_rideId].rideValue * 95 / 100);\r\n            //pay pentatly for cancellings\r\n            _driver.transfer(rides[_rideId].rideValue * 5 / 100);\r\n        }\r\n    }\r\n\r\n    function completeRide(uint _rideId) public{\r\n        \r\n        \r\n        address _driver = rides[_rideId].driver;\r\n        address _rider = rides[_rideId].rider;\r\n\r\n        if(msg.sender == _driver && rides[_rideId].rideCompleteDriver == false)\r\n        {\r\n            rides[_rideId].rideCompleteDriver = true;            \r\n        }else if(msg.sender == _rider &&  rides[_rideId].rideCompleteRider == false)\r\n        {\r\n            rides[_rideId].rideCompleteRider = true;            \r\n        }\r\n        else{\r\n            revert(\"Woops\");\r\n        }\r\n\r\n        if(rides[_rideId].rideCompleteDriver && rides[_rideId].rideCompleteRider)\r\n        {\r\n            _driver.transfer(rides[_rideId].rideValue);        \r\n            rides[_rideId].status = RideStatus.Completed;   \r\n            emit RideComplete(_rideId, _driver, _rider, rides[_rideId].rideValue);\r\n        }\r\n    }\r\n\r\n    function statusOfRide(uint _rideId) public view returns(string){ \r\n        Ride storage ride = rides[_rideId];\r\n        \r\n        if(ride.status == RideStatus.Requested){\r\n            return \"Requested\";\r\n         }else if(ride.status == RideStatus.InProgress){\r\n            return \"In Progress\";\r\n         }else if(ride.status == RideStatus.NotStarted){\r\n            return \"Not Started\";\r\n         }else if(ride.status == RideStatus.Completed){\r\n            return \"Completed\";             \r\n         }else if(ride.status == RideStatus.Cancelled){\r\n            return \"Cancelled\"; \r\n         }else if(ride.status == RideStatus.Paid){\r\n            return \"Paid\"; \r\n         }\r\n         else\r\n         {\r\n            return \"cannot find ride\";\r\n         }\r\n    }\r\n}",
  "sourcePath": "C:\\Users\\Graham.Nelson\\Documents\\Blockchain\\Development\\SmartContractDev\\TCR_Uber\\contracts\\Uber.sol",
  "compiler": {
    "name": "solc",
    "version": "0.4.24+commit.e67f0147.Emscripten.clang"
  },
  "schemaVersion": "2.0.0",
  "updatedAt": "2018-06-27T14:14:06.178Z"
}