{
  "contractName": "Uber_TCR",
  "abi": [
    {
      "constant": true,
      "inputs": [],
      "name": "feePerKM",
      "outputs": [
        {
          "name": "",
          "type": "uint256"
        }
      ],
      "payable": false,
      "stateMutability": "view",
      "type": "function"
    },
    {
      "constant": true,
      "inputs": [
        {
          "name": "",
          "type": "uint256"
        }
      ],
      "name": "rides",
      "outputs": [
        {
          "name": "rider",
          "type": "address"
        },
        {
          "name": "driver",
          "type": "address"
        },
        {
          "name": "pickUpLocation",
          "type": "string"
        },
        {
          "name": "dropOffLocation",
          "type": "string"
        },
        {
          "name": "distance",
          "type": "uint256"
        },
        {
          "name": "rideValue",
          "type": "uint256"
        },
        {
          "name": "status",
          "type": "uint8"
        },
        {
          "name": "rideCompleteDriver",
          "type": "bool"
        },
        {
          "name": "rideCompleteRider",
          "type": "bool"
        }
      ],
      "payable": false,
      "stateMutability": "view",
      "type": "function"
    },
    {
      "constant": false,
      "inputs": [],
      "name": "renounceOwnership",
      "outputs": [],
      "payable": false,
      "stateMutability": "nonpayable",
      "type": "function"
    },
    {
      "constant": true,
      "inputs": [],
      "name": "owner",
      "outputs": [
        {
          "name": "",
          "type": "address"
        }
      ],
      "payable": false,
      "stateMutability": "view",
      "type": "function"
    },
    {
      "constant": true,
      "inputs": [
        {
          "name": "",
          "type": "uint256"
        }
      ],
      "name": "listDrivers",
      "outputs": [
        {
          "name": "",
          "type": "address"
        }
      ],
      "payable": false,
      "stateMutability": "view",
      "type": "function"
    },
    {
      "constant": false,
      "inputs": [
        {
          "name": "_newOwner",
          "type": "address"
        }
      ],
      "name": "transferOwnership",
      "outputs": [],
      "payable": false,
      "stateMutability": "nonpayable",
      "type": "function"
    },
    {
      "inputs": [
        {
          "name": "_drivers",
          "type": "address[]"
        }
      ],
      "payable": false,
      "stateMutability": "nonpayable",
      "type": "constructor"
    },
    {
      "anonymous": false,
      "inputs": [
        {
          "indexed": true,
          "name": "rideId",
          "type": "uint256"
        },
        {
          "indexed": true,
          "name": "driver",
          "type": "address"
        },
        {
          "indexed": true,
          "name": "rider",
          "type": "address"
        },
        {
          "indexed": false,
          "name": "rideValue",
          "type": "uint256"
        }
      ],
      "name": "RideCreation",
      "type": "event"
    },
    {
      "anonymous": false,
      "inputs": [
        {
          "indexed": true,
          "name": "rideId",
          "type": "uint256"
        },
        {
          "indexed": true,
          "name": "driver",
          "type": "address"
        },
        {
          "indexed": true,
          "name": "rider",
          "type": "address"
        },
        {
          "indexed": false,
          "name": "rideValue",
          "type": "uint256"
        }
      ],
      "name": "RideComplete",
      "type": "event"
    },
    {
      "anonymous": false,
      "inputs": [
        {
          "indexed": true,
          "name": "rideId",
          "type": "uint256"
        },
        {
          "indexed": false,
          "name": "rider",
          "type": "address"
        }
      ],
      "name": "RidePaid",
      "type": "event"
    },
    {
      "anonymous": false,
      "inputs": [
        {
          "indexed": true,
          "name": "previousOwner",
          "type": "address"
        }
      ],
      "name": "OwnershipRenounced",
      "type": "event"
    },
    {
      "anonymous": false,
      "inputs": [
        {
          "indexed": true,
          "name": "previousOwner",
          "type": "address"
        },
        {
          "indexed": true,
          "name": "newOwner",
          "type": "address"
        }
      ],
      "name": "OwnershipTransferred",
      "type": "event"
    },
    {
      "constant": false,
      "inputs": [
        {
          "name": "_newFee",
          "type": "uint256"
        }
      ],
      "name": "setRideFee",
      "outputs": [],
      "payable": false,
      "stateMutability": "nonpayable",
      "type": "function"
    },
    {
      "constant": true,
      "inputs": [],
      "name": "numOfDrivers",
      "outputs": [
        {
          "name": "",
          "type": "uint256"
        }
      ],
      "payable": false,
      "stateMutability": "view",
      "type": "function"
    },
    {
      "constant": true,
      "inputs": [],
      "name": "getAllDriver",
      "outputs": [
        {
          "name": "",
          "type": "address[]"
        }
      ],
      "payable": false,
      "stateMutability": "view",
      "type": "function"
    },
    {
      "constant": false,
      "inputs": [
        {
          "name": "_driver",
          "type": "address"
        },
        {
          "name": "_pickUpLocation",
          "type": "string"
        },
        {
          "name": "_dropOffLocation",
          "type": "string"
        },
        {
          "name": "_distance",
          "type": "uint256"
        }
      ],
      "name": "requestRide",
      "outputs": [],
      "payable": false,
      "stateMutability": "nonpayable",
      "type": "function"
    },
    {
      "constant": false,
      "inputs": [
        {
          "name": "_rideId",
          "type": "uint256"
        }
      ],
      "name": "payForRide",
      "outputs": [],
      "payable": true,
      "stateMutability": "payable",
      "type": "function"
    },
    {
      "constant": false,
      "inputs": [
        {
          "name": "_rideId",
          "type": "uint256"
        }
      ],
      "name": "startRide",
      "outputs": [],
      "payable": false,
      "stateMutability": "nonpayable",
      "type": "function"
    },
    {
      "constant": false,
      "inputs": [
        {
          "name": "_rideId",
          "type": "uint256"
        }
      ],
      "name": "cancelRide",
      "outputs": [],
      "payable": false,
      "stateMutability": "nonpayable",
      "type": "function"
    },
    {
      "constant": false,
      "inputs": [
        {
          "name": "_rideId",
          "type": "uint256"
        }
      ],
      "name": "completeRide",
      "outputs": [],
      "payable": false,
      "stateMutability": "nonpayable",
      "type": "function"
    },
    {
      "constant": true,
      "inputs": [
        {
          "name": "_rideId",
          "type": "uint256"
        }
      ],
      "name": "statusOfRide",
      "outputs": [
        {
          "name": "",
          "type": "string"
        }
      ],
      "payable": false,
      "stateMutability": "view",
      "type": "function"
    }
  ],
  "bytecode": "0x608060405266038d7ea4c680006005553480156200001c57600080fd5b5060405162001dbb38038062001dbb83398101806040528101908080518201929190505050336000806101000a81548173ffffffffffffffffffffffffffffffffffffffff021916908373ffffffffffffffffffffffffffffffffffffffff160217905550806002908051906020019062000099929190620000a1565b505062000176565b8280548282559060005260206000209081019282156200011d579160200282015b828111156200011c5782518260006101000a81548173ffffffffffffffffffffffffffffffffffffffff021916908373ffffffffffffffffffffffffffffffffffffffff16021790555091602001919060010190620000c2565b5b5090506200012c919062000130565b5090565b6200017391905b808211156200016f57600081816101000a81549073ffffffffffffffffffffffffffffffffffffffff02191690555060010162000137565b5090565b90565b611c3580620001866000396000f3006080604052600436106100db576000357c0100000000000000000000000000000000000000000000000000000000900463ffffffff16806309c181c5146100e05780630df39bb11461010b5780635205f1121461012b578063715018a6146102dc5780638da5cb5b146102f3578063a6f07b291461034a578063b585d9ce14610377578063b71cea8a1461041d578063c416dd0b1461048a578063c6795651146104b7578063dcaeaec114610590578063e9c14b1e146105bd578063eef10c4d146105ea578063f2fde38b14610656578063f69bc14014610699575b600080fd5b3480156100ec57600080fd5b506100f56106c4565b6040518082815260200191505060405180910390f35b610129600480360381019080803590602001909291905050506106ca565b005b34801561013757600080fd5b5061015660048036038101908080359060200190929190505050610926565b604051808a73ffffffffffffffffffffffffffffffffffffffff1673ffffffffffffffffffffffffffffffffffffffff1681526020018973ffffffffffffffffffffffffffffffffffffffff1673ffffffffffffffffffffffffffffffffffffffff16815260200180602001806020018881526020018781526020018660058111156101de57fe5b60ff168152602001851515151581526020018415151515815260200183810383528a818151815260200191508051906020019080838360005b83811015610232578082015181840152602081019050610217565b50505050905090810190601f16801561025f5780820380516001836020036101000a031916815260200191505b50838103825289818151815260200191508051906020019080838360005b8381101561029857808201518184015260208101905061027d565b50505050905090810190601f1680156102c55780820380516001836020036101000a031916815260200191505b509b50505050505050505050505060405180910390f35b3480156102e857600080fd5b506102f1610b0b565b005b3480156102ff57600080fd5b50610308610c0d565b604051808273ffffffffffffffffffffffffffffffffffffffff1673ffffffffffffffffffffffffffffffffffffffff16815260200191505060405180910390f35b34801561035657600080fd5b5061037560048036038101908080359060200190929190505050610c32565b005b34801561038357600080fd5b506103a260048036038101908080359060200190929190505050610ec0565b6040518080602001828103825283818151815260200191508051906020019080838360005b838110156103e25780820151818401526020810190506103c7565b50505050905090810190601f16801561040f5780820380516001836020036101000a031916815260200191505b509250505060405180910390f35b34801561042957600080fd5b50610448600480360381019080803590602001909291905050506111a5565b604051808273ffffffffffffffffffffffffffffffffffffffff1673ffffffffffffffffffffffffffffffffffffffff16815260200191505060405180910390f35b34801561049657600080fd5b506104b5600480360381019080803590602001909291905050506111e3565b005b3480156104c357600080fd5b5061058e600480360381019080803573ffffffffffffffffffffffffffffffffffffffff169060200190929190803590602001908201803590602001908080601f0160208091040260200160405190810160405280939291908181526020018383808284378201915050505050509192919290803590602001908201803590602001908080601f016020809104026020016040519081016040528093929190818152602001838380828437820191505050505050919291929080359060200190929190505050611490565b005b34801561059c57600080fd5b506105bb60048036038101908080359060200190929190505050611703565b005b3480156105c957600080fd5b506105e860048036038101908080359060200190929190505050611768565b005b3480156105f657600080fd5b506105ff611930565b6040518080602001828103825283818151815260200191508051906020019060200280838360005b83811015610642578082015181840152602081019050610627565b505050509050019250505060405180910390f35b34801561066257600080fd5b50610697600480360381019080803573ffffffffffffffffffffffffffffffffffffffff1690602001909291905050506119be565b005b3480156106a557600080fd5b506106ae611a25565b6040518082815260200191505060405180910390f35b60055481565b600160058111156106d757fe5b6003600083815260200190815260200160002060060160009054906101000a900460ff16600581111561070657fe5b14151561077b576040517f08c379a000000000000000000000000000000000000000000000000000000000815260040180806020018281038252601d8152602001807f52696465206e6f7420696e2074686520636f727265637420737461746500000081525060200191505060405180910390fd5b346004600082825401925050819055506003600082815260200190815260200160002060000160009054906101000a900473ffffffffffffffffffffffffffffffffffffffff1673ffffffffffffffffffffffffffffffffffffffff163373ffffffffffffffffffffffffffffffffffffffff1614156109235760036000828152602001908152602001600020600501543414156108b45760026003600083815260200190815260200160002060060160006101000a81548160ff0219169083600581111561084657fe5b0217905550807f298bda476ccc04cbf603be3dfd5c4dc81367a3f5e23f51b1d9087ce10a28a29433604051808273ffffffffffffffffffffffffffffffffffffffff1673ffffffffffffffffffffffffffffffffffffffff16815260200191505060405180910390a2610922565b6040517f08c379a00000000000000000000000000000000000000000000000000000000081526004018080602001828103825260108152602001807f496e636f727265637420416d6f756e740000000000000000000000000000000081525060200191505060405180910390fd5b5b50565b60036020528060005260406000206000915090508060000160009054906101000a900473ffffffffffffffffffffffffffffffffffffffff16908060010160009054906101000a900473ffffffffffffffffffffffffffffffffffffffff1690806002018054600181600116156101000203166002900480601f016020809104026020016040519081016040528092919081815260200182805460018160011615610100020316600290048015610a1e5780601f106109f357610100808354040283529160200191610a1e565b820191906000526020600020905b815481529060010190602001808311610a0157829003601f168201915b505050505090806003018054600181600116156101000203166002900480601f016020809104026020016040519081016040528092919081815260200182805460018160011615610100020316600290048015610abc5780601f10610a9157610100808354040283529160200191610abc565b820191906000526020600020905b815481529060010190602001808311610a9f57829003601f168201915b5050505050908060040154908060050154908060060160009054906101000a900460ff16908060060160019054906101000a900460ff16908060060160029054906101000a900460ff16905089565b6000809054906101000a900473ffffffffffffffffffffffffffffffffffffffff1673ffffffffffffffffffffffffffffffffffffffff163373ffffffffffffffffffffffffffffffffffffffff16141515610b6657600080fd5b6000809054906101000a900473ffffffffffffffffffffffffffffffffffffffff1673ffffffffffffffffffffffffffffffffffffffff167ff8df31144d9c2f0f6b59d69b8b98abd5459d07f2742c4df920b25aae33c6482060405160405180910390a260008060006101000a81548173ffffffffffffffffffffffffffffffffffffffff021916908373ffffffffffffffffffffffffffffffffffffffff160217905550565b6000809054906101000a900473ffffffffffffffffffffffffffffffffffffffff1681565b6000806003600084815260200190815260200160002060010160009054906101000a900473ffffffffffffffffffffffffffffffffffffffff1691506003600084815260200190815260200160002060000160009054906101000a900473ffffffffffffffffffffffffffffffffffffffff1690508173ffffffffffffffffffffffffffffffffffffffff163373ffffffffffffffffffffffffffffffffffffffff161415610d755760056003600085815260200190815260200160002060060160006101000a81548160ff02191690836005811115610d0e57fe5b02179055508073ffffffffffffffffffffffffffffffffffffffff166108fc60036000868152602001908152602001600020600501549081150290604051600060405180830381858888f19350505050158015610d6f573d6000803e3d6000fd5b50610ebb565b8073ffffffffffffffffffffffffffffffffffffffff163373ffffffffffffffffffffffffffffffffffffffff161415610eba5760056003600085815260200190815260200160002060060160006101000a81548160ff02191690836005811115610ddc57fe5b02179055508073ffffffffffffffffffffffffffffffffffffffff166108fc6064605f600360008881526020019081526020016000206005015402811515610e2057fe5b049081150290604051600060405180830381858888f19350505050158015610e4c573d6000803e3d6000fd5b508173ffffffffffffffffffffffffffffffffffffffff166108fc60646005600360008881526020019081526020016000206005015402811515610e8c57fe5b049081150290604051600060405180830381858888f19350505050158015610eb8573d6000803e3d6000fd5b505b5b505050565b6060600060036000848152602001908152602001600020905060016005811115610ee657fe5b8160060160009054906101000a900460ff166005811115610f0357fe5b1415610f46576040805190810160405280600981526020017f5265717565737465640000000000000000000000000000000000000000000000815250915061119f565b60036005811115610f5357fe5b8160060160009054906101000a900460ff166005811115610f7057fe5b1415610fb3576040805190810160405280600b81526020017f496e2050726f6772657373000000000000000000000000000000000000000000815250915061119f565b60006005811115610fc057fe5b8160060160009054906101000a900460ff166005811115610fdd57fe5b1415611020576040805190810160405280600b81526020017f4e6f742053746172746564000000000000000000000000000000000000000000815250915061119f565b6004600581111561102d57fe5b8160060160009054906101000a900460ff16600581111561104a57fe5b141561108d576040805190810160405280600981526020017f436f6d706c657465640000000000000000000000000000000000000000000000815250915061119f565b60058081111561109957fe5b8160060160009054906101000a900460ff1660058111156110b657fe5b14156110f9576040805190810160405280600981526020017f43616e63656c6c65640000000000000000000000000000000000000000000000815250915061119f565b6002600581111561110657fe5b8160060160009054906101000a900460ff16600581111561112357fe5b1415611166576040805190810160405280600481526020017f5061696400000000000000000000000000000000000000000000000000000000815250915061119f565b6040805190810160405280601081526020017f63616e6e6f742066696e6420726964650000000000000000000000000000000081525091505b50919050565b6002818154811015156111b457fe5b906000526020600020016000915054906101000a900473ffffffffffffffffffffffffffffffffffffffff1681565b6000806003600084815260200190815260200160002060010160009054906101000a900473ffffffffffffffffffffffffffffffffffffffff1691506003600084815260200190815260200160002060000160009054906101000a900473ffffffffffffffffffffffffffffffffffffffff1690508173ffffffffffffffffffffffffffffffffffffffff163373ffffffffffffffffffffffffffffffffffffffff1614156112c05760016003600085815260200190815260200160002060060160016101000a81548160ff021916908315150217905550611325565b8073ffffffffffffffffffffffffffffffffffffffff163373ffffffffffffffffffffffffffffffffffffffff1614156113245760016003600085815260200190815260200160002060060160026101000a81548160ff0219169083151502179055505b5b6003600084815260200190815260200160002060060160019054906101000a900460ff16801561137557506003600084815260200190815260200160002060060160029054906101000a900460ff165b1561148b578173ffffffffffffffffffffffffffffffffffffffff166108fc60036000868152602001908152602001600020600501549081150290604051600060405180830381858888f193505050501580156113d6573d6000803e3d6000fd5b5060046003600085815260200190815260200160002060060160006101000a81548160ff0219169083600581111561140a57fe5b02179055508073ffffffffffffffffffffffffffffffffffffffff168273ffffffffffffffffffffffffffffffffffffffff16847e915a3c88094db70ad025e09b8fb85eff8ad86ee9bf5afc02dea205c1e56e4660036000888152602001908152602001600020600501546040518082815260200191505060405180910390a45b505050565b6000806000600160008154809291906001019190505592503391506114b784600554611a32565b9050610120604051908101604052808373ffffffffffffffffffffffffffffffffffffffff1681526020018873ffffffffffffffffffffffffffffffffffffffff1681526020018781526020018681526020018581526020018281526020016001600581111561152357fe5b8152602001600015158152602001600015158152506003600085815260200190815260200160002060008201518160000160006101000a81548173ffffffffffffffffffffffffffffffffffffffff021916908373ffffffffffffffffffffffffffffffffffffffff16021790555060208201518160010160006101000a81548173ffffffffffffffffffffffffffffffffffffffff021916908373ffffffffffffffffffffffffffffffffffffffff16021790555060408201518160020190805190602001906115f5929190611b64565b506060820151816003019080519060200190611612929190611b64565b506080820151816004015560a0820151816005015560c08201518160060160006101000a81548160ff0219169083600581111561164b57fe5b021790555060e08201518160060160016101000a81548160ff0219169083151502179055506101008201518160060160026101000a81548160ff0219169083151502179055509050508673ffffffffffffffffffffffffffffffffffffffff168273ffffffffffffffffffffffffffffffffffffffff16847f32b81ff1b9b883947eff3c00cc79a5d75e15b5edede83b3f1b53ac2483da833c846040518082815260200191505060405180910390a450505050505050565b6000809054906101000a900473ffffffffffffffffffffffffffffffffffffffff1673ffffffffffffffffffffffffffffffffffffffff163373ffffffffffffffffffffffffffffffffffffffff1614151561175e57600080fd5b8060058190555050565b6002600581111561177557fe5b6003600083815260200190815260200160002060060160009054906101000a900460ff1660058111156117a457fe5b141515611819576040517f08c379a000000000000000000000000000000000000000000000000000000000815260040180806020018281038252601e8152602001807f5269646520686173206e6f74206265656e207061696420666f7220796574000081525060200191505060405180910390fd5b6003600082815260200190815260200160002060010160009054906101000a900473ffffffffffffffffffffffffffffffffffffffff1673ffffffffffffffffffffffffffffffffffffffff163373ffffffffffffffffffffffffffffffffffffffff1614156118bf57600380600083815260200190815260200160002060060160006101000a81548160ff021916908360058111156118b557fe5b021790555061192d565b6040517f08c379a000000000000000000000000000000000000000000000000000000000815260040180806020018281038252600a8152602001807f4e6f74206472697665720000000000000000000000000000000000000000000081525060200191505060405180910390fd5b50565b606060028054806020026020016040519081016040528092919081815260200182805480156119b457602002820191906000526020600020905b8160009054906101000a900473ffffffffffffffffffffffffffffffffffffffff1673ffffffffffffffffffffffffffffffffffffffff168152602001906001019080831161196a575b5050505050905090565b6000809054906101000a900473ffffffffffffffffffffffffffffffffffffffff1673ffffffffffffffffffffffffffffffffffffffff163373ffffffffffffffffffffffffffffffffffffffff16141515611a1957600080fd5b611a2281611a6a565b50565b6000600280549050905090565b600080831415611a455760009050611a64565b8183029050818382811515611a5657fe5b04141515611a6057fe5b8090505b92915050565b600073ffffffffffffffffffffffffffffffffffffffff168173ffffffffffffffffffffffffffffffffffffffff1614151515611aa657600080fd5b8073ffffffffffffffffffffffffffffffffffffffff166000809054906101000a900473ffffffffffffffffffffffffffffffffffffffff1673ffffffffffffffffffffffffffffffffffffffff167f8be0079c531659141344cd1fd0a4f28419497f9722a3daafe3b4186f6b6457e060405160405180910390a3806000806101000a81548173ffffffffffffffffffffffffffffffffffffffff021916908373ffffffffffffffffffffffffffffffffffffffff16021790555050565b828054600181600116156101000203166002900490600052602060002090601f016020900481019282601f10611ba557805160ff1916838001178555611bd3565b82800160010185558215611bd3579182015b82811115611bd2578251825591602001919060010190611bb7565b5b509050611be09190611be4565b5090565b611c0691905b80821115611c02576000816000905550600101611bea565b5090565b905600a165627a7a723058207e431a916209986358ef6aed0fde851a08d3d3ad49fadda3e7874c96ae02192a0029",
  "source": "pragma solidity ^0.4.24;\r\n\r\nimport \"node_modules/openzeppelin-solidity/contracts/math/SafeMath.sol\";\r\nimport \"node_modules/openzeppelin-solidity/contracts/token/ERC20/ERC20.sol\";\r\nimport \"node_modules/openzeppelin-solidity/contracts/token/ERC20/ERC20Basic.sol\";\r\nimport \"node_modules/openzeppelin-solidity/contracts/token/ERC20/BasicToken.sol\";\r\nimport \"contracts/Ownable.sol\";\r\n\r\ncontract Uber_TCR is Ownable{\r\n    \r\n    using SafeMath for uint;\r\n    enum RideStatus {NotStarted, Requested, Paid, InProgress, Completed, Cancelled }\r\n    \r\n    event RideCreation(uint indexed rideId, address indexed driver, address indexed rider, uint rideValue);\r\n    event RideComplete(uint indexed rideId, address indexed driver, address indexed rider, uint rideValue);\r\n    event RidePaid(uint indexed rideId, address rider);\r\n    \r\n    struct Ride{\r\n        address  rider; \r\n        address  driver;\r\n        string pickUpLocation;\r\n        string dropOffLocation;\r\n        uint  distance;\r\n        uint256  rideValue;        \r\n        RideStatus status;\r\n        bool rideCompleteDriver;\r\n        bool rideCompleteRider;\r\n    }\r\n    uint private numberOfRides;\r\n    address[] public listDrivers; \r\n    mapping(uint => Ride) public rides;\r\n    uint private contractAmount;\r\n    uint public feePerKM = 0.001 ether;\r\n    \r\n    constructor(address[] _drivers) public{\r\n        listDrivers = _drivers;         \r\n    }\r\n    \r\n    function setRideFee(uint256 _newFee) onlyOwner public{\r\n        feePerKM = _newFee;\r\n    }\r\n\r\n    function numOfDrivers() public view returns(uint256){\r\n        return listDrivers.length;\r\n    }\r\n    \r\n    function getAllDriver() public view returns(address[]){\r\n        return listDrivers;\r\n    }\r\n    \r\n    function requestRide(address _driver, string _pickUpLocation, string _dropOffLocation, uint _distance) public{\r\n        \r\n        uint _rideId = numberOfRides++;\r\n        address _rider = msg.sender;\r\n        uint256 _rideValue = SafeMath.mul(_distance, feePerKM);\r\n        rides[_rideId] = Ride(_rider, _driver, _pickUpLocation, _dropOffLocation, _distance, _rideValue, RideStatus.Requested, false, false);\r\n        emit RideCreation(_rideId, _rider, _driver, _rideValue);\r\n    }\r\n\r\n    function payForRide(uint _rideId) public payable{\r\n        \r\n        require(rides[_rideId].status == RideStatus.Requested, \"Ride not in the correct state\");\r\n        \r\n        contractAmount+= msg.value;\r\n        if(msg.sender == rides[_rideId].rider) {\r\n            if(msg.value == rides[_rideId].rideValue)\r\n            {\r\n                rides[_rideId].status = RideStatus.Paid;\r\n                emit RidePaid(_rideId, msg.sender);\r\n            }\r\n            else{\r\n                revert(\"Incorrect Amount\");\r\n            }\r\n        }  \r\n    }\r\n\r\n    function startRide(uint _rideId) public {\r\n        require(rides[_rideId].status == RideStatus.Paid, \"Ride has not been paid for yet\");\r\n        if(msg.sender == rides[_rideId].driver)\r\n        {\r\n            rides[_rideId].status = RideStatus.InProgress;\r\n        }else{\r\n            revert(\"Not driver\");\r\n        }\r\n    }\r\n    \r\n    function cancelRide(uint _rideId) public{\r\n        address _driver = rides[_rideId].driver;\r\n        address _rider = rides[_rideId].rider;\r\n\r\n        if(msg.sender == _driver)\r\n        {\r\n            rides[_rideId].status = RideStatus.Cancelled;\r\n            _rider.transfer(rides[_rideId].rideValue);\r\n        }else if(msg.sender == _rider)\r\n        {\r\n            rides[_rideId].status = RideStatus.Cancelled;\r\n            _rider.transfer(rides[_rideId].rideValue * 95 / 100);\r\n            //pay pentatly for cancellings\r\n            _driver.transfer(rides[_rideId].rideValue * 5 / 100);\r\n        }\r\n    }\r\n\r\n    function completeRide(uint _rideId) public{\r\n        \r\n        \r\n        address _driver = rides[_rideId].driver;\r\n        address _rider = rides[_rideId].rider;\r\n\r\n        if(msg.sender == _driver)\r\n        {\r\n            rides[_rideId].rideCompleteDriver = true;            \r\n        }else if(msg.sender == _rider)\r\n        {\r\n            rides[_rideId].rideCompleteRider = true;            \r\n        }\r\n\r\n        if(rides[_rideId].rideCompleteDriver && rides[_rideId].rideCompleteRider)\r\n        {\r\n            _driver.transfer(rides[_rideId].rideValue);        \r\n            rides[_rideId].status = RideStatus.Completed;   \r\n            emit RideComplete(_rideId, _driver, _rider, rides[_rideId].rideValue);\r\n        }\r\n    }\r\n\r\n    function statusOfRide(uint _rideId) public view returns(string){ \r\n        Ride storage ride = rides[_rideId];\r\n        \r\n        if(ride.status == RideStatus.Requested){\r\n            return \"Requested\";\r\n         }else if(ride.status == RideStatus.InProgress){\r\n            return \"In Progress\";\r\n         }else if(ride.status == RideStatus.NotStarted){\r\n            return \"Not Started\";\r\n         }else if(ride.status == RideStatus.Completed){\r\n            return \"Completed\";             \r\n         }else if(ride.status == RideStatus.Cancelled){\r\n            return \"Cancelled\"; \r\n         }else if(ride.status == RideStatus.Paid){\r\n            return \"Paid\"; \r\n         }\r\n         else\r\n         {\r\n            return \"cannot find ride\";\r\n         }\r\n    }\r\n}",
  "sourcePath": "C:\\Users\\Graham.Nelson\\Documents\\Blockchain\\Development\\SmartContractDev\\TCR_Uber\\contracts\\Uber.sol",
  "compiler": {
    "name": "solc",
    "version": "0.4.24+commit.e67f0147.Emscripten.clang"
  },
  "schemaVersion": "2.0.0",
  "updatedAt": "2018-06-26T12:25:08.228Z"
}